:020000040800F2
:100000002C39012089010008E5010008E5010008FC
:10001000E5010008E5010008E50100080000000016
:10002000000000000000000000000000E5010008E2
:10003000E501000800000000E5010008E5010008F6
:10004000E5010008E5010008E5010008E5010008F8
:10005000E5010008E5010008E5010008E5010008E8
:10006000E5010008E5010008E5010008E5010008D8
:10007000E5010008E5010008E5010008E5010008C8
:10008000E5010008E5010008E5010008E5010008B8
:10009000E5010008E5010008E5010008E5010008A8
:1000A000E5010008E5010008E5010008E501000898
:1000B000450D0008E5010008E5010008E50100081C
:1000C000E5010008E5010008E5010008E501000878
:1000D000E5010008E5010008E5010008E501000868
:1000E000E5010008E5010008E5010008E501000858
:1000F000E5010008E5010008E5010008E501000848
:10010000E5010008E5010008E5010008E501000837
:10011000E5010008E5010008E5010008E501000827
:10012000E5010008E5010008E5010008E501000817
:10013000E5010008E5010008E5010008E501000807
:10014000E5010008E5010008E5010008E5010008F7
:10015000010E0008E5010008E5010008E5010008BE
:10016000E5010008E5010008E5010008E5010008D7
:10017000E5010008E5010008E5010008E5010008C7
:10018000E5010008E501000880B582B000AF104B22
:100190007B60104B3B6007E03B681A1D3A607A6851
:1001A000111D796012681A603B680B4A9342F3D3C1
:1001B0000A480B494FF000028842B8BF40F8042BB0
:1001C000FADB00F013F800BF0837BD4680BD00BF62
:1001D000FC35000800000020340400203404002016
:1001E0003031012080B400AFFEE700BF80B584B09D
:1001F00002AF00F047F900F0EFFB002000F02CFC0C
:100200000A220A210A2000F049FC00237B60002317
:100210003B600123009303230A229621962000F0DD
:1002200089FEF6E780B483B000AF78600B46FB70C0
:10023000FB78002B06D00949084B1A6B7B681343E7
:100240000B6306E00549054B1A6B7B68DB431340E3
:100250000B6300BF0C37BD4680BC704700380240BE
:1002600080B483B000AF78600B46FB70FB78002B46
:1002700006D00949084B1A6C7B6813430B6406E0EF
:100280000549054B1A6C7B68DB4313400B6400BFC8
:100290000C37BD4680BC70470038024080B483B044
:1002A00000AF78600B46FB70FB78002B06D0094945
:1002B000084B5A6C7B6813434B6406E00549054BB9
:1002C0005A6C7B68DB4313404B6400BF0C37BD4660
:1002D00080BC70470038024080B487B000AF7860BF
:1002E000396000237B6100233B610023FB60002316
:1002F0007B6176E001227B6902FA03F33B613B6894
:100300001A683B691340FB60FA683B699A4265D101
:100310007B681A687B695B00032101FA03F3DB4306
:100320001A407B681A607B681A683B681B7919461B
:100330007B695B0001FA03F31A437B681A603B6830
:100340001B79012B03D03B681B79022B2ED17B68D4
:100350009A687B695B00032101FA03F3DB431A40CF
:100360007B689A607B689A683B685B7919467B6911
:100370005B0001FA03F31A437B689A607B685A6852
:100380007B699BB2012101FA03F3DB431A407B68CE
:100390005A607B685A683B689B7919467B699BB2B7
:1003A00001FA03F39BB21A437B685A607B68DA68F0
:1003B0007B699BB25B00032101FA03F3DB431A4024
:1003C0007B68DA607B68DA683B68DB7919467B69B1
:1003D0005B0001FA03F31A437B68DA607B6901333F
:1003E0007B617B690F2B85D900BF1C37BD4680BC64
:1003F000704700BF80B485B000AF78600B467B804B
:1004000013467B700023FB600023BB607A787B88F7
:1004100003F007039B0002FA03F3FB607B88DB0811
:100420009BB218467B88DB089BB21A467B68083271
:1004300053F822207B8803F007039B000F2101FA69
:1004400003F3DB4302EA03017B6800F1080243F88F
:1004500022107B88DB089BB21A467B68083253F86F
:100460002220FB681343BB607B88DB089BB21A46E3
:100470007B680832B96843F8221000BF1437BD46C4
:1004800080BC704780B500AF124A124B1B6843F026
:10049000010313600F4B00229A600E4A0D4B1B683C
:1004A00023F0847323F4803313600A4B0A4A5A60A2
:1004B000084A084B1B6823F480231360054B002275
:1004C000DA6000F00DF8054B4FF000629A6000BF53
:1004D00080BD00BF003802401030002400ED00E075
:1004E00080B483B000AF00237B6000233B60354ABB
:1004F000344B1B6843F480331360324B1B6803F4A6
:1005000000333B607B6801337B603B68002B03D189
:100510007B68B3F5A06FF0D12A4B1B6803F400335E
:10052000002B02D001233B6001E000233B603B68CD
:10053000012B42D1234A234B1B6C43F0805313649D
:10054000214A214B1B6843F4804313601D4A1D4B15
:100550009B6893601B4A1B4B9B6843F4004393606A
:10056000184A184B9B6843F4A0539360154B174AE5
:100570005A60144A134B1B6843F08073136000BF2A
:10058000104B1B6803F00073002BF9D0104B40F2A6
:1005900005621A600B4A0B4B9B6823F003039360C0
:1005A000084A084B9B6843F00203936000BF054B69
:1005B0009B6803F00C03082BF9D100BF0C37BD4634
:1005C00080BC70470038024000700040085440076B
:1005D000003C024080B483B000AF78607B681B6849
:1005E00023F001027B681A607B6800221A607B6836
:1005F00000225A607B6800229A607B680022DA60E1
:100600007B6800221A617B6821225A617B68454A17
:10061000934203D1444B3D229A607EE07B68434A7B
:10062000934204D1404B4FF474629A6075E07B684A
:100630003F4A934204D13C4B4FF474129A606CE0F1
:100640007B683C4A934204D1374B4FF074629A6006
:1006500063E07B68384A934203D1334B374ADA6010
:100660005BE07B68364A934203D12F4B354ADA6010
:1006700053E07B68344A934203D12B4B334ADA6010
:100680004BE07B68324A934204D1274B4FF03D52F6
:10069000DA6042E07B682F4A934203D12E4B3D2221
:1006A0009A603AE07B682D4A934204D12A4B4FF47A
:1006B00074629A6031E07B68294A934204D1264BE8
:1006C0004FF474129A6028E07B68264A934204D162
:1006D000214B4FF074629A601FE07B68224A93427C
:1006E00003D11D4B154ADA6017E07B681F4A93421D
:1006F00003D1194B134ADA600FE07B681C4A93421E
:1007000003D1154B114ADA6007E07B68194A93421E
:1007100003D1114B4FF03D52DA6000BF0C37BD469C
:1007200080BC7047106002400060024028600240B8
:100730004060024058600240706002403D0000206E
:1007400088600240400F0020A060024000003D2071
:10075000B860024010640240006402402864024015
:100760004064024058640240706402408864024061
:10077000A0640240B864024080B485B000AF7860E5
:1007800039600023FB607B681B68FB60FA68244BC0
:100790001340FB603B681A683B68DB681A433B68A0
:1007A0005B691A433B689B691A433B68DB691A43E0
:1007B0003B681B6A1A433B685B6A1A433B689B6A47
:1007C0001A433B685B6B1A433B689B6B1343FA68A5
:1007D0001343FB607B68FA681A607B685B69FB60A7
:1007E000FB6823F00703FB603B68DA6A3B681B6B1E
:1007F0001343FA681343FB607B68FA685A613B68ED
:100800001A697B685A603B685A687B689A603B68E3
:100810009A687B68DA6000BF1437BD4680BC7047B9
:100820003F801CF080B483B000AF78600B46FB7053
:10083000FB78002B06D07B681B6843F001027B68C5
:100840001A6005E07B681B6823F001027B681A6070
:1008500000BF0C37BD4680BC704700BF80B485B078
:1008600000AFF860B9601346FB71BB6803F080030A
:10087000002B0FD0FB79002B06D0FB685B6943F09F
:100880008002FB685A6105E0FB685B6923F0800227
:10089000FB685A61BB68802B14D0FB79002B08D011
:1008A000FB681A68BB6803F01E031A43FB681A60F2
:1008B00008E0FB681A68BB6803F01E03DB431A40BC
:1008C000FB681A6000BF1437BD4680BC704700BF8C
:1008D00080B487B000AF786039600023FB750023D7
:1008E000FB600023BB607B68214A934202D8214B06
:1008F0003B6101E0204B3B613B6823F0F02323F098
:10090000C313002B0AD03B68DB0A03F01E03FB6015
:100910007B681A68FB681340BB6004E07B685B6916
:1009200003F08003BB603B6803F00053002B03D04F
:100930003B695B68FB6002E03B691B68FB60FB682E
:1009400023F0F02323F08213FB60FA683B68134026
:10095000002B05D0BB68002B02D00123FB7501E002
:100960000023FB75FB7D18461C37BD4680BC7047D5
:100970000F640240006002400064024080B485B011
:1009800000AF786039607B68104A934202D8104B00
:10099000FB6001E00F4BFB603B6803F00053002B52
:1009A00007D03B6823F0F02323F08213FA68D3606A
:1009B00006E03B6823F0F02323F08213FA6893608B
:1009C00000BF1437BD4680BC704700BF0F640240B3
:1009D000006002400064024080B582B000AF1B4B53
:1009E00000221A80194B00225A60184B00229A608C
:1009F0000023BB8017E00023FB800DE0BA8813467C
:100A00009B0013449B011A44FB881344104A0021A5
:100A1000D154FB880133FB80FB88B3F5A07FEDD96F
:100A2000BB880133BB80BB88EF2BE4D900F05CF8B6
:100A300000F0AEF800F03EF900F010F9054B1B682D
:100A4000024A936000BF0837BD4680BD34040020D1
:100A5000400400208864024080B584B000AF0346A3
:100A6000FB710023BB8112E00023FB8108E0FA79CF
:100A7000B989FB89184600F011F8FB890133FB8125
:100A8000FB89B3F5A07FF2D3BB890133BB81BB895E
:100A9000EF2BE9D900BF1037BD4680BD80B483B0CD
:100AA00000AF0346FB800B46BB801346FB70FB8800
:100AB000B3F5A07F01D30023FB80BB88EF2B01D9C6
:100AC0000023BB80BA8813469B0013449B011A4441
:100AD000FB8813440349FA78CA5400BF0C37BD465B
:100AE00080BC70474004002080B582B000AF012177
:100AF0001020FFF797FB4FF47F433B6001233B71CE
:100B00000023BB710123FB7103237B713B46194614
:100B10001D48FFF7E1FB1C4B4FF47F425A83012134
:100B20000220FFF77FFB4FF400633B6002233B7121
:100B300003237B710023BB710123FB713B461946E4
:100B40001248FFF7C9FB01220B211048FFF752FCA6
:100B500001210220FFF766FB4FF480533B60012325
:100B60003B710023BB710123FB7103237B713B4667
:100B700019460648FFF7B0FB044B4FF480521A8326
:100B800000BF0837BD4680BD00100240000402408F
:100B900080B588B000AF01210120FFF77FFB0B2358
:100BA000BB610023BB820023BB830023FB8207F1D0
:100BB00014031946284800F081FA01210120FFF7AB
:100BC0004FFB40F66B23BB610023BB820023BB833A
:100BD0000023FB8207F1140319464FF0804000F018
:100BE0006DFA60233B8001237B804FF4D273BB609E
:100BF0000223BB813B4619464FF0804000F008FBC2
:100C000008214FF0804000F0EFFB60233B80012380
:100C10007B804FF4A073BB600223BB813B46194627
:100C20004FF0804000F07AFB08214FF0804000F048
:100C3000F7FB0121084800F0ABFA01214FF080409A
:100C400000F0A6FA01214FF0804000F0C1FA00BF89
:100C50002037BD4680BD00BF0000014080B582B096
:100C600000AF012210211248FFF7F8FD44233B7129
:100C700000237B710023BB710123FB713B1D1846D0
:100C800000F0E4F8012208214FF0804000F0E6FB7C
:100C90001C233B7100237B710023BB710123FB717B
:100CA0003B1D184600F0D2F800BF0837BD4680BD96
:100CB0008864024080B590B000AF01214FF48000FD
:100CC000FFF7B0FA00211B48FFF7ACFD1948FFF70A
:100CD00081FC4FF040637B60174BBB60174BFB60A0
:100CE00040233B6140F241137B610023BB614FF421
:100CF0008063FB6100233B6200237B620023BB62B5
:100D00004FF44033FB6200233B6301237B630023EA
:100D1000BB630023FB633B1D19460648FFF72CFD10
:100D200001224FF48071064800F0CCFB00BF403731
:100D3000BD4680BD8864024015100240400400207A
:100D40000000014080B500AF08214FF0804000F066
:100D5000A9FB264B1B8801339AB2244B1A80234BE4
:100D60001B88B3F5037F05D9204B00221A80204A47
:100D70001E4B5A601D4B1B88012B04D81D4B4FF492
:100D800080525A8303E01B4B4FF480521A83174B57
:100D90001B88232B27D9154B1B8840F20222934234
:100DA00021D8154A114B9B681360134A0F4B5B689F
:100DB000D360124A114B1B889BB243F001039BB2D4
:100DC00013800D4A0C4B1B6843F001031360074B63
:100DD0001B8803F00103002B05D0044B5B6803F272
:100DE0004113024A536000BF80BD00BF340400209D
:100DF00040040020000402408864024000000140DA
:100E000080B500AF0D490E48FFF762FD0346002B89
:100E100012D00A490A48FFF7B1FD0A4A094B1B885C
:100E20009BB223F001039BB21380054B00221A6092
:100E3000054B4FF47F425A8300BF80BD00880020DD
:100E400088640240000001400010024080B485B078
:100E500000AF78600023FB730023BB730F237B7309
:100E60007B68DB78002B38D0264BDB68DB4303F450
:100E7000E0631B0AFB73FB7BC3F10403BB737A7B48
:100E8000FB7B42FA03F37B737B685B781A46BB7B80
:100E900002FA03F3FB737B689A787B7B1340DAB228
:100EA000FB7B1343FB73FB7B1B01FB73164A7B68C5
:100EB0001B781344FA7B83F80023134A7B681B7862
:100EC0005B09DBB218467B681B7803F01F03012126
:100ED00001FA03F342F820300FE00B497B681B78DE
:100EE0005B09DBB218467B681B7803F01F03012205
:100EF0009A4000F1200341F8232000BF1437BD467B
:100F000080BC704700ED00E000E100E080B584B0F7
:100F100000AFF860B9601346FB71FB689BB2BA681A
:100F200091B2FA791846FFF7B9FD00BF1037BD46F8
:100F300080BD00BFB0B588B000AFF860B9607A601E
:100F4000FB703B6B002B59D10023FB6150E0002369
:100F5000BB6145E07A68FB69D31A184602F094F940
:100F600003467B617A68BB69D31A184602F08CF994
:100F700003463B613969386902F0DAF903461C46D9
:100F80007969786902F0D4F903461946204602F0DF
:100F9000C7F80346184601F0B9FD03460C4618464B
:100FA000214600F0B5FC04460D467B68013B18461F
:100FB00001F09AFD02460B462046294602F062F8EF
:100FC0000346002B09D0FA68FB69D018BA68BB69E0
:100FD0001344FA781946FFF799FFBB690133BB61E7
:100FE0007B685A00BB699A42B4DCFB690133FB6140
:100FF0007B685A00FB699A42A9DC5BE00023FB6135
:1010000053E00023BB6148E07A68BB69D31A1846F5
:1010100001F06AFD4FF000024FF0804300F000FB4A
:1010200004460D467A68FB69D31A184601F05CFD48
:101030004FF000024FF0804300F0F2FA02460B46F8
:101040002046294601F004FC03460C46184621467A
:1010500000F05EFC03460C461846214600F058FAA4
:1010600004460D467B68013B184601F03DFD0246F3
:101070000B462046294602F019F80346002B09D0FA
:10108000FA68FB69D018BA68BB691344FA78194644
:10109000FFF73CFFBB690133BB617B685A00BB694A
:1010A0009A42B1DCFB690133FB617B685A00FB6942
:1010B0009A42A6DC00BF2037BD46B0BD80B485B0E3
:1010C00000AF786039600023FB817B681B88FB815F
:1010D0007B68284A934213D07B68274A93420FD0FB
:1010E0007B68B3F1804F0BD07B68244A934207D0D2
:1010F0007B68234A934203D07B68224A934208D1FB
:10110000FB8923F07003FB813B685A88FB891343FA
:10111000FB817B681C4A93420CD07B681B4A93423C
:1011200008D0FB8923F44073FB813B681A89FB8953
:101130001343FB817B68FA891A803B685A687B6895
:10114000DA623B681A887B681A857B68094A934291
:1011500003D07B68084A934204D13B689B7A9AB2D9
:101160007B681A867B6801229A8200BF1437BD46CD
:1011700080BC7047000001400004014000040040B2
:1011800000080040000C0040001000400014004027
:1011900080B483B000AF78600B46FB70FB78002B07
:1011A00008D07B681B889BB243F080039AB27B68AF
:1011B0001A8007E07B681B889BB223F080039AB2F9
:1011C0007B681A8000BF0C37BD4680BC704700BFEB
:1011D00080B483B000AF78600B46FB70FB78002BC7
:1011E00008D07B681B889BB243F001039AB27B68EE
:1011F0001A8007E07B681B889BB223F001039AB238
:101200007B681A8000BF0C37BD4680BC704700BFAA
:1012100080B485B000AF7860396000237B81002303
:10122000FB810023BB817B681B8C9BB223F4807302
:101230009AB27B681A847B681B8CFB817B689B88D5
:10124000BB817B689B8B7B817B8923F070037B81D7
:101250007B8923F003037B813B681A887B891343D6
:101260007B81FB8923F40073FB813B689B891B0214
:101270009AB2FB891343FB813B685B881B029AB2DD
:10128000FB891343FB817B68224A934203D07B682E
:10129000214A93422BD1FB8923F40063FB813B68F5
:1012A000DB891B029AB2FB891343FB81FB8923F480
:1012B0008063FB813B689B881B029AB2FB891343C6
:1012C000FB81BB8923F48053BB81BB8923F400538A
:1012D000BB813B681B8A1B019AB2BB891343BB814C
:1012E0003B685B8A1B019AB2BB891343BB817B6855
:1012F000BA899A807B687A899A833B689A687B6806
:10130000DA637B68FA891A8400BF1437BD4680BC53
:10131000704700BF000001400004014080B485B068
:1013200000AF786039600023BB8100237B810023FC
:10133000FB817B681B8C9BB223F480539AB27B6841
:101340001A847B681B8C7B817B689B88FB817B6814
:101350009B8BBB81BB8923F4E043BB81BB8923F416
:101360004073BB813B681B881B029AB2BB89134345
:10137000BB817B8923F400537B813B689B891B03E2
:101380009AB27B8913437B813B685B881B039AB2CB
:101390007B8913437B817B68114A934203D07B682E
:1013A000104A93420AD1FB8923F48043FB813B68B6
:1013B0001B8A9B019AB2FB891343FB817B68FA89E4
:1013C0009A807B68BA899A833B689A687B681A64BA
:1013D0007B687A891A8400BF1437BD4680BC704789
:1013E000000001400004014080B485B000AF786087
:1013F0000B467B800023FB817B689B8BFB81FB89F9
:1014000023F00803FB81FA897B881343FB817B6807
:10141000FA899A8300BF1437BD4680BC704700BF6D
:1014200080B485B000AF78600B467B800023FB81E1
:101430007B689B8BFB81FB8923F40063FB817B88AA
:101440001B029AB2FB891343FB817B68FA899A835A
:1014500000BF1437BD4680BC704700BF80B483B066
:1014600000AF78600B467B8013467B707B78002B47
:1014700008D07B689B899AB27B8813439AB27B68B9
:101480009A8109E07B689B899AB27B88DB439BB297
:1014900013409AB27B689A8100BF0C37BD4680BC6E
:1014A000704700BF80B483B000AF78600B467B808C
:1014B0007B88DB439AB27B681A8200BF0C37BD463B
:1014C00080BC704780B483B000AF78600B467B80EF
:1014D00013467B707B78002B08D07B689B899AB27F
:1014E0007B8813439AB27B689A8109E07B689B8969
:1014F0009AB27B88DB439BB213409AB27B689A8195
:1015000000BF0C37BD4680BC704700BF0000000024
:10151000C1F30A522DE9F843A2F2FF36132E0B460F
:101520000D4604468846074621DC002E4EDB3A4A2B
:1015300042FA06F901EA0902024386461CD034A3A6
:10154000D3E9002301F084F90022002301F0C2FD59
:1015500048B1002D04DD4FF4801343FA06F6B04481
:1015600028EA0905002738462946BDE8F883332EC6
:1015700006DDB6F5806F3CD020461946BDE8F883FD
:10158000A2F213424FF0FF3929FA02F910EA090FCB
:10159000F2D01FA3D3E9002301F05AF9002200235F
:1015A00001F098FD0028DED0002D09DD142E2BD08F
:1015B0000123C6F1340603FA06F6371928BF98440A
:1015C000454627EA090738462946CEE710A3D3E95E
:1015D000002301F03DF90022002301F07BFD0028EB
:1015E000C1D0002D0CDB55EA040707D000270B4DB6
:1015F000B9E702460B4601F02BF9BFE73D46B2E7DB
:1016000000274FF00045AEE705F10108D8E700BF1D
:101610009C7500883CE4377EFFFF0F000000F03F20
:101620002DE9F04FDFF8E4928DB006460F461446E0
:101630001D4600F0C9F999F90080B8F1FF3FCDE9E6
:10164000000146D022462B462046294601F04CFD9B
:10165000834600283DD132463B463046394601F0AC
:1016600043FD002282460023002840F0848030465B
:10167000394601F007FD002830D000220023204623
:10168000294601F0FFFC8346A8B10122984B029243
:1016900000210022CDF828A0CDE90467CDE9064558
:1016A000CDE908120393B8F1000F53D091490020FF
:1016B0000DB0BDE8F08F2046294600F0A3FF40B1F1
:1016C000002200232046294601F0E6FC002840F0D5
:1016D000B780DDE900010DB0BDE8F08FDDE9000164
:1016E00000F090FF804600285DD04FF0000A4FF0D8
:1016F000000B52465B46DDE9000101F0C3FC002807
:10170000E7D03046394600F07DFF0028E1D0204682
:10171000294600F077FF0028DBD099F90030744AA1
:10172000039204210022022BCDE90467CDE906458E
:10173000CDE908AB02910A9203D002A800F068FF3D
:1017400070B901F045FF2223036009E00023002463
:10175000CDE9083402A800F05BFF002800F0868085
:101760000A9B1BB101F034FF0A9B0360DDE908010D
:101770000DB0BDE8F08F2046294601F083FC00281B
:10178000A7D05C495A4BCDF828B001220020B8F10F
:10179000020FCDE90467CDE9064502920393CDE936
:1017A0000801D7D197E73046394600F02BFF0028D3
:1017B0009BD02046294600F025FF002895D0DDE982
:1017C00000231046194601F08FFC002873D1032333
:1017D00099F900800293464B0A900393CDE9046780
:1017E000CDE906450022002330463946B8F1000F06
:1017F00041D1414F4FF06046CDE9086701F04CFC04
:1018000000289AD000223D4B2046294601F0D2F90B
:1018100004460D4600F004FF02460B4620462946CA
:1018200001F030FC002843D1354B99F900804FF08E
:101830006042CDE90823B8F1020F7FF47EAF80E764
:1018400099F900302A4ACDF828B00121CDE9046782
:10185000CDE9064502910392002B3FF477AF294969
:101860000020022BCDE908017FF474AF01F0B0FE37
:101870002123036074E7244F0026CDE9086701F0B7
:101880000BFC0028D7D000221C4B2046294601F033
:1018900091F904460D4600F0C3FE02460B46204671
:1018A000294601F0EFFB18B9164B0022CDE90823B9
:1018B00099F90080BFE799F900900D4BCDF8288089
:1018C0000122CDE90467CDE9064502920393B9F1FF
:1018D000000F3FF43BAF002200231046194601F0F1
:1018E00093FAB9F1020FCDE90801BFD032E700BF8A
:1018F000DC3500080000F03FFFFFEF470000E03F4D
:10190000FFFFEFC70000F0FF0000F07F00000020A5
:101910002DE9F04F8BB004460D4600F0AFFD284B8B
:1019200093F900A0BAF1FF3F06460F4612D02246B7
:101930002B462046294601F0D7FB834650B94FF08D
:1019400000084FF0000942464B462046294601F068
:10195000A3FB20B9304639460BB0BDE8F08F194BD8
:10196000CDF820B00122CDE90445CDE902458DE84E
:101970000C00BAF1000F15D042464B46404649468E
:1019800001F042FABAF1020FCDE906010CD101F0E3
:101990001FFE21230360089B63B9DDE906010BB03C
:1019A000BDE8F08FCDE90689684600F031FE0028D9
:1019B000F1D1ECE701F00CFE089B0360EDE700BFFE
:1019C00000000020E03500082DE9F04F23F000482A
:1019D00058EA020993B03CD0714C21F00046A6426F
:1019E00083460D460CDD06F1404606F5801656EAA4
:1019F0000B0038D16B498346584613B0BDE8F08FD1
:101A00009A4696462BD0A045EDDC654CA04578D093
:101A1000002D0F468146CDE9002376DB0024BEF180
:101A2000000F27D15E4B984500F08B805D4B9845A9
:101A300052D0BAF1804F00F0C2835B4B9A4519D166
:101A4000002D17DB4846394613B0BDE8F04F00F0D3
:101A500015BDCB465349584613B0BDE8F08F00285A
:101A6000C1D1B045D1DD514813B0BDE8F04F00F011
:101A7000D1BD00244846394600F0C0FDBBF1000F3F
:101A80001CD0ED0F013D54EA050370D0484B98453A
:101A900040F3948003F10473984540F30584454B6B
:101AA0009E4270DDBAF1000F70DD3BA3D3E9002345
:101AB0001046194601F07EF883469DE726B1394B62
:101AC00025F040429A42DCD1BAF1000FC0F2B08357
:101AD000002D08DB83468FE7BAF1000FC0F2568471
:101AE000CB46394688E706F1404606F5801656EAA9
:101AF000040300F07B84012CECD1834601F100410A
:101B00007AE7BEF1000F83D06DE72B4B98452CDCB4
:101B1000A3F15473984581DD4FEA2853A3F2FF33B4
:101B2000142B40F34B84C3F134032EFA03F202FA70
:101B300003F39E457FF472AF02F00102C2F102048A
:101B40006DE706F1404303F5801353EA0B0300F001
:101B50003383184B9E4240F36083BAF1000F15DBCC
:101B6000DDE900349B46214646E7022457E74A4612
:101B700048463B46394600F069FE02460B4601F0F6
:101B800043F9834638E7BAF1000F8EDB4FF0000BC4
:101B9000594631E7AFF300809C7500883CE4377EFE
:101BA0000000F07F0000F03F0000E03FE435000857
:101BB0000000E041FFFFEF3FFFFF3F43B6F5801F0E
:101BC0004FF0000205DAD44B00F0F4FF6FF034025E
:101BD0000E463315D14FC6F31306A3F2FF33134459
:101BE00046F07F5ABE421A460D934AF4401A40F31B
:101BF000C183CB4B9E4240F3FD83134601330D93CB
:101C0000C84B0022CDE9062300270026CDE908674E
:101C1000CDE90E67AAF5801A0027024653465146C1
:101C2000CDE90A23DDE9062300F010FEDDE90623F5
:101C300080468946DDE90A0100F00AFE02460B46AD
:101C40000020B84901F0E0F80A460146CDE910123B
:101C5000134649460246404600F0ACFF4FEA6A038D
:101C600043F000538C46834603F50023CDE904BCC2
:101C7000DA468B46D9190023CDE902AB0293DDE9A0
:101C800002AB002006460F4602460B465046594618
:101C900000F090FF02460B464046494600F0D6FD54
:101CA000DDE90623804689463046394600F0CEFD00
:101CB00002460B46DDE90A0100F0C8FD52465B46CC
:101CC00000F078FF02460B464046494600F0BEFD54
:101CD000DDE9102300F06EFFDDE90467CDE90601C0
:101CE00032463B463046394600F064FF78A3D3E9DC
:101CF000002306460F4600F05DFF77A3D3E90023DB
:101D000000F0A6FD32463B4600F054FF74A3D3E931
:101D1000002300F09DFD32463B4600F04BFF72A3CE
:101D2000D3E9002300F094FD32463B4600F042FF29
:101D30006FA3D3E9002300F08BFD32463B4600F051
:101D400039FF6DA3D3E9002300F082FD32468046BF
:101D500089463B463046394600F02CFF02460B468A
:101D60004046494600F026FF524606460F465B466F
:101D7000DDE9040100F06CFDDDE9062300F01AFF47
:101D800032463B4600F064FD5246804689465B463B
:101D90005046594600F00EFF0022634BCDE90A0180
:101DA00000F056FD42464B4600F052FD02980F46A9
:101DB000064632463B465046594600F0FBFE00229E
:101DC00082468B46584B3046394600F03FFDDDE9F0
:101DD0000A2300F03BFD02460B464046494600F010
:101DE00035FDDDE9042300F0E5FE324680468946F4
:101DF0003B46DDE9060100F0DDFE02460B464046AB
:101E0000494600F025FD8046894602460B4650466D
:101E10005946CDE904AB00F01BFDDDE902AB38A368
:101E2000D3E9002350460F4600F0C4FEDDE9042349
:101E3000CDE902013946504600F008FD02460B4646
:101E40004046494600F002FD2FA3D3E9002300F0ED
:101E5000B1FE2FA3D3E90023804689465046394678
:101E600000F0A8FE02460B464046494600F0F0FC52
:101E7000DDE90E2300F0ECFC80460D98894600F069
:101E800033FE424606460F464B46DDE9020100F0AE
:101E9000DFFCDDE9082300F0DBFC32463B4600F0C6
:101EA000D7FC32463B4650468B4600F0CFFCDDE97E
:101EB000082300F0CBFCDDE9022300F0C7FC02465A
:101EC0000B464046494600F0C1FC80462EE000BF6C
:101ED000EF4E454A287ECA3F65DBC9934A86CD3F0F
:101EE00001411DA96074D13F4D268F515555D53FF5
:101EF000FFAB6FDBB66DDB3F033333333333E33F8D
:101F0000000000E009C7EE3FFD033ADC09C7EE3FE1
:101F1000F5015B14E02F3EBE000040438E980300A5
:101F200079B60B000000F03F000008408946013CF4
:101F300054EA0503DDE9000114BFD54CD54C00235C
:101F4000CDE9043403460C46CDE902340023029364
:101F5000DDE9024522462B4600F078FC52465B46FE
:101F600000F028FEDDE9002306460F4640464946BC
:101F700000F020FE02460B463046394600F068FC71
:101F8000224606460F462B4650465946CDE9006785
:101F900000F010FE0B460246804689463046394620
:101FA00000F056FCBC4B994206460D460C4640F3E9
:101FB0000E8101F13F4303F5E003034340F0EF815D
:101FC0009FA3D3E90023DDE9000100F041FC424674
:101FD00082468B464B463046294600F037FC024687
:101FE0000B465046594601F075F8002840F0D7815D
:101FF0002F463B154FF48012A3F2FE3342FA03F34F
:102000002344C3F30A52A54EA2F2FF321641C3F392
:10201000130B0020C2F1140523EA06014BF4801BC8
:1020200002460B46002C4BFA05FB40464946B8BF1A
:10203000CBF1000B00F00AFC02460B4680468946B5
:10204000DDE9000100F004FC4FEA0B5A00247EA3F6
:10205000D3E9002320460D4600F0ACFD424606467B
:102060000F464B462046294600F0F0FB02460B4641
:10207000DDE9000100F0EAFB75A3D3E9002300F0DD
:1020800099FD75A3D3E90023804689462046294659
:1020900000F090FD02460B464046494600F0D8FB52
:1020A0008046894602460B463046394600F0D0FB52
:1020B00032463B4604460D4600F0C8FB02460B463E
:1020C0004046494600F0C2FB2246804689462B46E0
:1020D0002046294600F06EFD61A3D3E900230646A1
:1020E0000F4600F067FD60A3D3E9002300F0AEFBCC
:1020F00032463B4600F05EFD5DA3D3E9002300F0CD
:10210000A7FB32463B4600F055FD5BA3D3E9002315
:1021100000F09CFB32463B4600F04CFD58A3D3E94F
:10212000002300F095FB32463B4600F043FD02469B
:102130000B462046294600F089FB06460F4602461C
:102140000B462046294600F035FD0022CDE900016E
:102150004FF080433046394600F078FB02460B468C
:10216000DDE9000100F050FE424606460F464B46B0
:102170002046294600F01EFD42464B4600F068FB13
:1021800002460B463046394600F060FB22462B469D
:1021900000F05CFB02460B4600203D4900F056FB78
:1021A0008A44BAF5801FC0F236815146DDE9042326
:1021B00000F000FD83461FE4F34635491CE44A461F
:1021C00048463B46394600F0F5FC834614E4344B60
:1021D00021F000479F4240F30081324B0B44034300
:1021E0000CD142464B4600F031FB02460B46DDE97E
:1021F000000100F05BFF00283FF4FBAE22A3D3E90F
:102200000023DDE9040100F0D5FC1FA3D3E900237E
:1022100000F0D0FC8346FFF7EFBBBAF1000FBFF62A
:10222000B5ACDDE900349B4604F10041FFF7E4BBA7
:1022300002460B460020164900F0E6FD48E400BFC8
:10224000FE822B654715973C00000000432EE63FB9
:10225000EF39FAFE422EE63F396CA80C615C20BED5
:10226000D0A4BE726937663EF16BD2C541BDBB3E9C
:102270002CDE25AF6A56113F93BDBE166CC1663F7A
:102280003E5555555555C53F59F3F8C21F6EA5012A
:102290000000F03F0000F0BFFFFF8F40FFFF0F0086
:1022A000FFCB904000346F3F6F4B9E427FF76BAC8B
:1022B0006E4B9E423FF7F6AB00226C4B00F0C6FA25
:1022C0005BA3D3E9002306460F4600F073FC5AA334
:1022D000D3E90023804689463046394600F06AFC3F
:1022E000002282468B46624B3046394600F062FC43
:1022F00002460B4652A1D1E9000100F0A7FA32468E
:102300003B4600F057FC02460B460020594900F0BE
:102310009DFA3246CDE902013B463046394600F08F
:1023200049FC02460B46DDE9020100F043FC46A3EE
:10233000D3E9002300F03EFC02460B4650465946C6
:1023400000F084FA02460B4606460F4640464946D0
:1023500000F07EFA42464B46002082468B4600F053
:1023600075FA02460B463046394600F06FFA804651
:102370008946DCE500220023CDE90823CDE90E23C0
:102380003A4B00220027CDE9062346E44A463B4665
:102390000020364900F038FD8346FFF72DBB2CA303
:1023A000D3E90023DDE9040100F004FC28A3D3E90C
:1023B000002300F0FFFB8346FFF71EBBBEF1000FBA
:1023C0007FF457ABC3F1140348FA03F202FA03F3A4
:1023D000984524D07446FFF729BB264B9F423FF710
:1023E00008AEDDE902349A469B462FE602460B46CC
:1023F000FFF7C1BB18A3D3E90023CDE9082318A335
:10240000D3E90023CDE90E231B4B00224FF4802794
:10241000CDE9062301E45A4600F08EF9C6E602F043
:102420000102C2F10204FFF701BB00BFAFF300805D
:10243000000000604715F73F44DF5DF80BAE543EE7
:10244000555555555555D53FFE822B654715F73FD8
:102450009C7500883CE4377E0000004003B8E23FF2
:1024600006D0CF43EBFD4C3EFEFFEF3F0000F03FB8
:102470000000D03F0000E03F0000F83F2DE9F843A6
:102480005D4EB6460E4076450C46054600F09580FA
:1024900000290B46024673DD0F157ED0A7F2FF37E9
:1024A000C3F31303F80743F4801364D403EBD2712E
:1024B00000260B447F105200B64616204FF4001140
:1024C0000EEB01049C424FEAD2754FEA420203DC54
:1024D0001B1B04EB010E0E44013805EB43034FEACE
:1024E0005101EDD1844620244FF0004109E020D075
:1024F00003EBD275013C4FEA51012B444FEA4202F3
:1025000020D09E4501EB0C05F1DA002D05EB010C06
:1025100009DBF0469542CEEB030300D9013B521B89
:102520000844C646E4E7BCF1000FF2DB0EF10108F7
:10253000F0E7954217D8002D05EB010C47DB9846D4
:102540000023ECE7134310D14008731003F17F53CD
:1025500003F50013F20703EB075948BF40F00040B2
:102560004946BDE8F8837346C2E7411C33D000F00A
:1025700001031844E8E75B0003EBD273520095E7D0
:1025800021F000460643ECD069BB0F46D30A153F45
:102590005205002BFAD0DD0220D4002100E00146D4
:1025A0005B00DC0201F10100F9D5C0F1200422FA40
:1025B00004F423437F1A824070E702460B4600F082
:1025C000F9FA2A46234600F043F9BDE8F883BCF146
:1025D000000FABDAB3E701362046B6E720244FF010
:1025E000FF310020E3E702460B4600F02FF90246D8
:1025F0000B4600F009FCB4E70000F07F21F0004139
:10260000704700BF41F0004101F58010C00F7047D6
:102610000020704700200149704700BF0000F87F8C
:10262000F0B5C1F30A5EAEF2FF36132E83B0024658
:102630000B460C464FEAD17507462EDC002E49DBCF
:102640003B49314103EA010010432BD049080B40BC
:1026500053EA02070CD04FF48023132E24EA010121
:1026600043FA06F444EA01040CBF4FF00047002788
:10267000304B03EBC5052146D5E9004538462246D7
:102680002B4600F0E5F8CDE9000122462B46DDE9B6
:10269000000100F0DBF803B0F0BD332E06DDB6F527
:1026A000806F42D01046194603B0F0BDAEF2134E13
:1026B0004FF0FF3121FA0EF10842F3D049080842E9
:1026C000D6D04FF0804320EA010143FA0EFE4EEAD5
:1026D0000107CDE721F000410143E3D0C3F313012B
:1026E000144E41EA000CCCF1000106EBC506D6E918
:1026F000006741EA0C0C5C0C4FEA1C3C0CF4002C0B
:1027000064044CEA040132463B4600F0A1F8CDE9EE
:1027100000013B463246DDE9000100F097F821F068
:10272000004444EAC5731946BEE700F091F8BBE7E0
:10273000FFFF0F00E8350008F8B5C1F30A5604465C
:102740000D460B46174606BB21F00043034325D038
:102750000022354B00F02EFA344A974204460D46CB
:102760000B462ADBC1F30A56363E3E4440F2FE7267
:10277000964228DC002E12DD23F0FF4323F4E00311
:1027800043EA065520462946F8BD40F2FF729642BC
:10279000EBD102460B4600F05BF8F8BDF8BD16F130
:1027A000350F1DDA4CF250339F4222462B4625DC72
:1027B00019A1D1E9000100F03DF817A3D3E90023E6
:1027C00000F0F8F9F8BD22462B4615A1D1E9000129
:1027D00000F030F812A3D3E9002300F0EBF9F8BDC4
:1027E00023F0FF4323F4E003363643EA0655204640
:1027F000294600220E4B00F0DDF9F8BD08A1D1E911
:10280000000100F017F806A3D3E9002300F0D2F985
:10281000F8BD00BFAFF3008059F3F8C21F6EA501E9
:102820009C7500883CE4377E00005043B03CFFFFBD
:102830000000903C03F0004321F0004242EA030113
:10284000704700BF81F0004102E000BF83F0004309
:1028500030B54FEA41044FEA430594EA050F08BF3B
:1028600090EA020F1FBF54EA000C55EA020C7FEAFF
:10287000645C7FEA655C00F0E2804FEA5454D4EB7C
:102880005555B8BF6D420CDD2C4480EA020281EA46
:10289000030382EA000083EA010180EA020281EA7E
:1028A0000303362D88BF30BD11F0004F4FEA0131D0
:1028B0004FF4801C4CEA113102D0404261EB4101DF
:1028C00013F0004F4FEA03334CEA133302D0524265
:1028D00063EB430394EA050F00F0A780A4F1010421
:1028E000D5F1200E0DDB02FA0EFC22FA05F280185B
:1028F00041F1000103FA0EF2801843FA05F3594141
:102900000EE0A5F120050EF1200E012A03FA0EFCBF
:1029100028BF4CF0020C43FA05F3C01851EBE371E9
:1029200001F0004507D54FF0000EDCF1000C7EEB06
:1029300000006EEB0101B1F5801F1BD3B1F5001F44
:102940000CD349085FEA30004FEA3C0C04F1010463
:102950004FEA445212F5800F80F09A80BCF1004F8C
:1029600008BF5FEA500C50F1000041EB045141EA0E
:10297000050130BD5FEA4C0C404141EB010111F40F
:10298000801FA4F10104E9D191F0000F04BF0146BA
:102990000020B1FA81F308BF2033A3F10B03B3F198
:1029A00020020CDA0C3208DD02F1140CC2F10C0228
:1029B00001FA0CF021FA02F10CE002F11402D8BF86
:1029C000C2F1200C01FA02F120FA0CFCDCBF41EA52
:1029D0000C019040E41AA2BF01EB0451294330BD21
:1029E0006FEA04041F3C1CDA0C340EDC04F11404FE
:1029F000C4F1200220FA04F001FA02F340EA0300D5
:102A000021FA04F345EA030130BDC4F10C04C4F11A
:102A1000200220FA02F001FA04F340EA03002946FA
:102A200030BD21FA04F0294630BD94F0000F83F444
:102A3000801306BF81F480110134013D4EE77FEA27
:102A4000645C18BF7FEA655C29D094EA050F08BF73
:102A500090EA020F05D054EA000C04BF1946104654
:102A600030BD91EA030F1EBF0021002030BD5FEA98
:102A7000545C05D14000494128BF41F0004130BDC0
:102A800014F580043CBF01F5801130BD01F0004514
:102A900045F0FE4141F470014FF0000030BD7FEA87
:102AA000645C1ABF194610467FEA655C1CBF0B4682
:102AB000024650EA013406BF52EA033591EA030F99
:102AC00041F4002130BD00BF90F0000F04BF002191
:102AD000704730B54FF4806404F132044FF00005C4
:102AE0004FF0000150E700BF90F0000F04BF00213D
:102AF000704730B54FF4806404F1320410F00045A3
:102B000048BF40424FF000013EE700BF42004FEA9D
:102B1000E2014FEA31014FEA02701FBF12F07F431A
:102B200093F07F4F81F06051704792F0000F14BF17
:102B300093F07F4F704730B54FF4607401F000455B
:102B400021F0004120E700BF50EA010208BF7047B2
:102B500030B54FF000050AE050EA010208BF7047A7
:102B600030B511F0004502D5404261EB41014FF410
:102B7000806404F132045FEA915C3FF4DCAE4FF014
:102B800003025FEADC0C18BF03325FEADC0C18BFFB
:102B9000033202EBDC02C2F1200300FA03FC20FA4C
:102BA00002F001FA03FE40EA0E0021FA02F1144499
:102BB000C1E600BF70B54FF0FF0C4CF4E06C1CEAAE
:102BC00011541DBF1CEA135594EA0C0F95EA0C0F23
:102BD00000F0DEF82C4481EA030621EA4C5123EA96
:102BE0004C5350EA013518BF52EA033541F48011C5
:102BF00043F4801338D0A0FB02CE4FF00005E1FB78
:102C000002E506F00042E0FB03E54FF00006E1FBC1
:102C100003569CF0000F18BF4EF0010EA4F1FF0404
:102C2000B6F5007F64F5407404D25FEA4E0E6D4144
:102C300046EB060642EAC62141EA55514FEAC52055
:102C400040EA5E504FEACE2EB4F1FD0C88BFBCF5D1
:102C5000E06F1ED8BEF1004F08BF5FEA500E50F182
:102C6000000041EB045170BD06F0004646EA010148
:102C700040EA020081EA0301B4EB5C04C2BFD4EB7A
:102C80000C0541EA045170BD41F480114FF0000E73
:102C9000013C00F3AB8014F1360FDEBF002001F0E1
:102CA000004170BDC4F10004203C35DA0C341BDC5B
:102CB00004F11404C4F1200500FA05F320FA04F02D
:102CC00001FA05F240EA020001F0004221F0004161
:102CD00010EBD37021FA04F642EB06015EEA430ED4
:102CE00008BF20EAD37070BDC4F10C04C4F1200504
:102CF00000FA04F320FA05F001FA04F240EA0200B7
:102D000001F0004110EBD37041F100015EEA430E87
:102D100008BF20EAD37070BDC4F1200500FA05F2A7
:102D20004EEA020E20FA04F301FA05F243EA020326
:102D300021FA04F001F0004121FA04F220EA020035
:102D400000EBD3705EEA430E08BF20EAD37070BD7B
:102D500094F0000F0FD101F00046400041EB01015B
:102D600011F4801F08BF013CF7D041EA060195F03D
:102D7000000F18BF704703F00046520043EB0303F7
:102D800013F4801F08BF013DF7D043EA06037047E4
:102D900094EA0C0F0CEA135518BF95EA0C0F0CD0EF
:102DA00050EA410618BF52EA4306D1D181EA030135
:102DB00001F000414FF0000070BD50EA410606BF2F
:102DC0001046194652EA430619D094EA0C0F02D174
:102DD00050EA013613D195EA0C0F05D152EA0336B9
:102DE0001CBF104619460AD181EA030101F00041D7
:102DF00041F0FE4141F470014FF0000070BD41F020
:102E0000FE4141F4780170BD70B54FF0FF0C4CF4F9
:102E1000E06C1CEA11541DBF1CEA135594EA0C0F18
:102E200095EA0C0F00F0A7F8A4EB050481EA030E65
:102E300052EA03354FEA013100F088804FEA03334C
:102E40004FF0805545EA131343EA12634FEA02221A
:102E500045EA111545EA10654FEA00260EF00041DB
:102E60009D4208BF964244F1FD0404F5407402D22D
:102E70005B084FEA3202B61A65EB03055B084FEABE
:102E800032024FF480104FF4002CB6EB020E75EBBB
:102E9000030E22BFB61A754640EA0C005B084FEAE3
:102EA0003202B6EB020E75EB030E22BFB61A754660
:102EB00040EA5C005B084FEA3202B6EB020E75EBAB
:102EC000030E22BFB61A754640EA9C005B084FEA23
:102ED0003202B6EB020E75EB030E22BFB61A754630
:102EE00040EADC0055EA060E18D04FEA051545EA1F
:102EF00016754FEA06164FEAC30343EA52734FEAC8
:102F0000C2025FEA1C1CC0D111F4801F0BD141EA40
:102F100000014FF000004FF0004CB6E711F4801FA5
:102F200004BF01430020B4F1FD0C88BFBCF5E06F85
:102F30003FF6AFAEB5EB030C04BFB6EB020C5FEA95
:102F4000500C50F1000041EB045170BD0EF0004EEA
:102F50004EEA113114EB5C04C2BFD4EB0C0541EA1C
:102F6000045170BD41F480114FF0000E013C90E619
:102F700045EA060E8DE60CEA135594EA0C0F08BFDD
:102F800095EA0C0F3FF43BAF94EA0C0F0AD150EADC
:102F900001347FF434AF95EA0C0F7FF425AF10466F
:102FA00019462CE795EA0C0F06D152EA03353FF497
:102FB000FDAE1046194622E750EA410618BF52EA14
:102FC00043067FF4C5AE50EA41047FF40DAF52EAE8
:102FD00043057FF4EBAE12E74FF0FF3C06E000BF85
:102FE0004FF0010C02E000BF4FF0010C4DF804CD92
:102FF0004FEA410C7FEA6C5C4FEA430C18BF7FEA52
:103000006C5C1BD001B050EA410C0CBF52EA430C7F
:1030100091EA030F02BF90EA020F0020704710F1FF
:10302000000F91EA030F58BF994208BF90422CBF8E
:10303000D8176FEAE37040F0010070474FEA410C87
:103040007FEA6C5C02D150EA013C07D14FEA430CA5
:103050007FEA6C5CD6D152EA033CD3D05DF8040B16
:10306000704700BF8446104662468C461946634648
:1030700000E000BF01B5FFF7B7FF002848BF10F11F
:10308000000F01BD4DF808EDFFF7F4FF0CBF012064
:1030900000205DF808FB00BF4DF808EDFFF7EAFFE0
:1030A00034BF012000205DF808FB00BF4DF808ED9B
:1030B000FFF7E0FF94BF012000205DF808FB00BF90
:1030C0004DF808EDFFF7CEFF94BF012000205DF81A
:1030D00008FB00BF4DF808EDFFF7C4FF34BF012027
:1030E00000205DF808FB00BF4FEA410C7FEA6C5CF2
:1030F00002D150EA013C0AD14FEA430C7FEA6C5CF2
:1031000002D152EA033C02D14FF0000070474FF069
:103110000100704780F0004002E000BF81F00041F4
:1031200042001FBF5FEA410392EA030F7FEA226C6D
:103130007FEA236C6AD04FEA1262D2EB1363C1BFFD
:10314000D218414048404140B8BF5B42192B88BF6C
:10315000704710F0004F40F4000020F07F4018BF8F
:10316000404211F0004F41F4000121F07F4118BFAF
:10317000494292EA030F3FD0A2F1010241FA03FC57
:1031800010EB0C00C3F1200301FA03F100F000433F
:1031900002D5494260EB4000B0F5000F13D3B0F107
:1031A000807F06D340084FEA310102F10102FE2A76
:1031B00051D2B1F1004F40EBC25008BF20F00100E6
:1031C00040EA03007047490040EB000010F4000F94
:1031D000A2F10102EDD1B0FA80FCACF1080CB2EB27
:1031E0000C0200FA0CF0AABF00EBC2505242184386
:1031F000BCBFD0401843704792F0000F81F400012B
:1032000006BF80F400000132013BB5E74FEA4103FD
:103210007FEA226C18BF7FEA236C21D092EA030F69
:1032200004D092F0000F08BF0846704790EA010FE3
:103230001CBF0020704712F07F4F04D1400028BF10
:1032400040F00040704712F100723CBF00F50000F2
:10325000704700F0004343F0FE4040F40000704728
:103260007FEA226216BF08467FEA236301464202D4
:1032700006BF5FEA412390EA010F40F480007047E7
:103280004FF0000304E000BF10F0004348BF40428D
:103290005FEA000C08BF704743F0964301464FF0C9
:1032A00000001CE050EA010208BF70474FF0000325
:1032B0000AE000BF50EA010208BF704711F0004366
:1032C00002D5404261EB41015FEA010C02BF844636
:1032D0000146002043F0B64308BFA3F18053A3F595
:1032E0000003BCFA8CF2083AA3EBC25310DB01FADC
:1032F00002FC634400FA02FCC2F12002BCF1004F60
:1033000020FA02F243EB020008BF20F001007047F0
:1033100002F1200201FA02FCC2F1200250EA4C0044
:1033200021FA02F243EB020008BF20EADC7070478A
:103330004FF0FF0C1CEAD0521EBF1CEAD15392EA98
:103340000C0F93EA0C0F6FD01A4480EA010C400274
:1033500018BF5FEA41211ED04FF0006343EA5010CE
:1033600043EA5111A0FB01310CF00040B1F5000F10
:103370003EBF490041EAD3715B0040EA010062F1BF
:103380007F02FD2A1DD8B3F1004F40EBC25008BFA9
:1033900020F00100704790F0000F0CF0004C08BFC7
:1033A00049024CEA502040EA51207F3AC2BFD2F194
:1033B000FF0340EAC250704740F400004FF00003A2
:1033C000013A5DDC12F1190FDCBF00F000407047DC
:1033D000C2F10002410021FA02F1C2F1200200FA1A
:1033E00002FC5FEA310040F1000053EA4C0308BFE1
:1033F00020EADC70704792F0000F00F0004C02BF32
:10340000400010F4000F013AF9D040EA0C0093F0AC
:10341000000F01F0004C02BF490011F4000F013B06
:10342000F9D041EA0C018FE70CEAD15392EA0C0F74
:1034300018BF93EA0C0F0AD030F0004C18BF31F0DF
:10344000004CD8D180EA010000F00040704790F0B5
:10345000000F17BF90F0004F084691F0000F91F059
:10346000004F14D092EA0C0F01D142020FD193EA1F
:103470000C0F03D14B0218BF084608D180EA0100A7
:1034800000F0004040F0FE4040F40000704740F083
:10349000FE4040F4400070474FF0FF0C1CEAD05251
:1034A0001EBF1CEAD15392EA0C0F93EA0C0F69D0AD
:1034B000A2EB030280EA010C49024FEA402037D018
:1034C0004FF0805343EA111143EA10130CF000400F
:1034D0008B4238BF5B0042F17D024FF4000C8B42FF
:1034E00024BF5B1A40EA0C00B3EB510F24BFA3EBDF
:1034F000510340EA5C00B3EB910F24BFA3EB9103AF
:1035000040EA9C00B3EBD10F24BFA3EBD10340EA08
:10351000DC001B0118BF5FEA1C1CE0D1FD2A3FF64E
:1035200050AF8B4240EBC25008BF20F00100704703
:103530000CF0004C4CEA50207F32C2BFD2F1FF03A6
:1035400040EAC250704740F400004FF00003013AD7
:1035500037E792F0000F00F0004C02BF400010F47B
:10356000000F013AF9D040EA0C0093F0000F01F08F
:10357000004C02BF490011F4000F013BF9D041EAB1
:103580000C0195E70CEAD15392EA0C0F08D14202E4
:103590007FF47DAF93EA0C0F7FF470AF084676E7B7
:1035A00093EA0C0F04D14B023FF44CAF08466EE790
:1035B00030F0004C18BF31F0004CCAD130F000425E
:1035C0007FF45CAF31F000437FF43CAF5FE700BFB6
:1035D000014B1868704700BF30040020706F7700FF
:1035E000737172740000000000000000000030439E
:0C35F00000000000000030C34300000099
:1035FC00010000000000000000000000F4020020A8
:10360C005C030020C4030020000000000000000048
:10361C00000000000000000000000000000000009E
:10362C00000000000000000000000000F835000859
:10363C00000000000000000000000000000000007E
:10364C00000000000000000000000000000000006E
:10365C00000000000000000000000000000000005E
:10366C00000000000000000000000000000000004E
:10367C00000000000000000000000000000000003E
:10368C00000000000000000000000000000000002E
:10369C00000000000000000000000000000000001E
:1036AC0001000000000000000E33CDAB34126DE6BB
:1036BC00ECDE05000B000000000000000000000024
:1036CC0000000000000000000000000000000000EE
:1036DC0000000000000000000000000000000000DE
:1036EC0000000000000000000000000000000000CE
:1036FC0000000000000000000000000000000000BE
:043A2C00080000206E
:0400000508000000EF
:00000001FF
