:020000040800F2
:100000005C39012089010008E5010008E5010008CC
:10001000E5010008E5010008E50100080000000016
:10002000000000000000000000000000E5010008E2
:10003000E501000800000000E5010008E5010008F6
:10004000E5010008E5010008E5010008E5010008F8
:10005000E5010008E5010008E5010008E5010008E8
:10006000E5010008E5010008E5010008E5010008D8
:10007000E5010008E5010008E5010008E5010008C8
:10008000E5010008E5010008E5010008E5010008B8
:10009000E5010008E5010008E5010008E5010008A8
:1000A000E5010008E5010008E5010008E501000898
:1000B00075100008E5010008E5010008E5010008E9
:1000C000E5010008E5010008E5010008E501000878
:1000D000E5010008E5010008E5010008E501000868
:1000E000E5010008E5010008E5010008E501000858
:1000F000E5010008E5010008E5010008E501000848
:10010000E5010008E5010008E5010008E501000837
:10011000E5010008E5010008E5010008E501000827
:10012000E5010008E5010008E5010008E501000817
:10013000E5010008E5010008E5010008E501000807
:10014000E5010008E5010008E5010008E5010008F7
:1001500031110008E5010008E5010008E50100088B
:10016000E5010008E5010008E5010008E5010008D7
:10017000E5010008E5010008E5010008E5010008C7
:10018000E5010008E501000880B582B000AF104B22
:100190007B60104B3B6007E03B681A1D3A607A6851
:1001A000111D796012681A603B680B4A9342F3D3C1
:1001B0000A480B494FF000028842B8BF40F8042BB0
:1001C000FADB00F013F800BF0837BD4680BD00BF62
:1001D0000481000800000020540400205404002082
:1001E0005C31012080B400AFFEE700BF80B584B071
:1001F00004AF00F0C9FA00F071FDFF2000F0AEFD81
:100200000A220A210A2000F0CBFD01F017F8032092
:1002100001F024F8E02001F031F8002000F09EFD0C
:1002200001231E226421322001F04CF81C2001F031
:1002300025F8FC2001F022F8012300936423142206
:100240009621962001F0D4FCE32001F017F8012359
:10025000334A6421642001F0F7FB1C2000F0FEFF0C
:100260001F2001F00BF80123009364236422322144
:10027000C82001F029F901230293C8230193B42374
:100280000093782364223221502001F02DFA0021BE
:10029000012000F0BDF81C2000F0AAF8142264210F
:1002A000204800F063F90121012000F0B1F8E820B6
:1002B00000F09EF8232264211B4800F057F9022128
:1002C000012000F0A5F8FC2000F092F83222642111
:1002D000164800F04BF90021002000F099F80320A7
:1002E00000F086F864226421114800F03FF90121F2
:1002F000002000F08DF8E02000F07AF882226421DE
:100300000C4800F033F90221002000F081F8FF20B2
:1003100000F06EF8A0226421074800F027F9FEE7FC
:1003200000002042E4600008046100082461000825
:10033000446100085C6100087061000880B483B00B
:1003400000AF78600B46FB70FB78002B06D00949A4
:10035000084B1A6B7B6813430B6306E00549054B9A
:100360001A6B7B68DB4313400B6300BF0C37BD4641
:1003700080BC70470038024080B483B000AF786022
:100380000B46FB70FB78002B06D00949084B1A6C12
:100390007B6813430B6406E00549054B1A6C7B68C8
:1003A000DB4313400B6400BF0C37BD4680BC704775
:1003B0000038024080B483B000AF78600B46FB7019
:1003C000FB78002B06D00949084B5A6C7B68134315
:1003D0004B6406E00549054B5A6C7B68DB431340D0
:1003E0004B6400BF0C37BD4680BC704700380240EC
:1003F00080B483B000AF0346FB71044AFB791370ED
:1004000000BF0C37BD4680BC704700BF54040020BD
:1004100080B483B000AF03460A46FB711346BB713C
:10042000FB79002B02D0012B07D00DE0BB79094AE4
:1004300052F82330084A136006E0BB79074A52F8A5
:100440002330054A136000BF00BF0C37BD4680BC97
:10045000704700BF0000002058310120100000202C
:1004600080B590B000AF0346B9607A60FB733C4B37
:100470001B681B69FB623A4B1B68DB68BB62FB7B3A
:10048000374A126812799B1A7B627B6ADB00BA6A70
:1004900013445B683B627B6ADB00BA6A13441B68E7
:1004A000FB61FB69002B00DA0733DB10FB63FA69A1
:1004B0002C4B1340002B03DA013B63F0070301339D
:1004C000002B02DDFB6B0133FB63254B1B681B68B4
:1004D000BB610023BB633AE000237B6330E0BB6B6E
:1004E000FA6B02FB03F23B6A1A447B6B13441A4615
:1004F000FB6A13441B78FB7500233B631AE0FA7D0B
:100500003B6B42FA03F303F00103002B0FD0BB68EF
:1005100003F108023B6BD21A7B6BDB00D0187A68C0
:10052000BB6BD118104B1B781A4600F0B7FE3B6B23
:1005300001333B633B6B072BE1DD7B6B01337B635B
:100540007A6BFB6B9A42CADBBB6B0133BB63BA6B42
:10055000BB699A42C0DBFB6918464037BD4680BD87
:1005600058310120070000805404002080B588B075
:1005700000AFF860B9607A60FB681B78FB770023F6
:10058000BB6100237B611FE0FB7F202B0DD0BA688D
:100590007B69D118FB7F7A681846FFF761FF034635
:1005A00001337A6913447B6106E00B4B1B689B683F
:1005B0005B007A6913447B61BB690133BB61BB6932
:1005C000FA6813441B78FB77FB7F002BDCD100BF5C
:1005D0002037BD4680BD00BF5831012080B487B0B0
:1005E00000AF7860396000237B6100233B6100230A
:1005F000FB6000237B6176E001227B6902FA03F352
:100600003B613B681A683B691340FB60FA683B69D1
:100610009A4265D17B681A687B695B00032101FA05
:1006200003F3DB431A407B681A607B681A683B68F7
:100630001B7919467B695B0001FA03F31A437B6857
:100640001A603B681B79012B03D03B681B79022B96
:100650002ED17B689A687B695B00032101FA03F362
:10066000DB431A407B689A607B689A683B685B79D9
:1006700019467B695B0001FA03F31A437B689A60B1
:100680007B685A687B699BB2012101FA03F3DB4363
:100690001A407B685A607B685A683B689B791946A8
:1006A0007B699BB201FA03F39BB21A437B685A60E1
:1006B0007B68DA687B699BB25B00032101FA03F374
:1006C000DB431A407B68DA607B68DA683B68DB7979
:1006D00019467B695B0001FA03F31A437B68DA6011
:1006E0007B6901337B617B690F2B85D900BF1C3788
:1006F000BD4680BC704700BF80B485B000AF786055
:100700000B467B8013467B700023FB600023BB609D
:100710007A787B8803F007039B0002FA03F3FB60FF
:100720007B88DB089BB218467B88DB089BB21A46A5
:100730007B68083253F822207B8803F007039B0074
:100740000F2101FA03F3DB4302EA03017B6800F1A6
:10075000080243F822107B88DB089BB21A467B68AC
:10076000083253F82220FB681343BB607B88DB0808
:100770009BB21A467B680832B96843F8221000BF62
:100780001437BD4680BC704780B500AF124A124B8B
:100790001B6843F0010313600F4B00229A600E4A5E
:1007A0000D4B1B6823F0847323F4803313600A4BD2
:1007B0000A4A5A60084A084B1B6823F480231360D6
:1007C000054B0022DA6000F00DF8054B4FF0006297
:1007D0009A6000BF80BD00BF003802401030002486
:1007E00000ED00E080B483B000AF00237B60002305
:1007F0003B60354A344B1B6843F480331360324B03
:100800001B6803F400333B607B6801337B603B680B
:10081000002B03D17B68B3F5A06FF0D12A4B1B6886
:1008200003F40033002B02D001233B6001E00023DE
:100830003B603B68012B42D1234A234B1B6C43F0A6
:1008400080531364214A214B1B6843F48043136097
:100850001D4A1D4B9B6893601B4A1B4B9B6843F4CE
:1008600000439360184A184B9B6843F4A05393606D
:10087000154B174A5A60144A134B1B6843F0807398
:10088000136000BF104B1B6803F00073002BF9D0FE
:10089000104B40F205621A600B4A0B4B9B6823F029
:1008A00003039360084A084B9B6843F0020393607C
:1008B00000BF054B9B6803F00C03082BF9D100BF68
:1008C0000C37BD4680BC70470038024000700040C5
:1008D00008544007003C024080B483B000AF786009
:1008E0007B681B6823F001027B681A607B6800222A
:1008F0001A607B6800225A607B6800229A607B68DD
:100900000022DA607B6800221A617B6821225A612A
:100910007B68454A934203D1444B3D229A607EE076
:100920007B68434A934204D1404B4FF474629A600F
:1009300075E07B683F4A934204D13C4B4FF47412FC
:100940009A606CE07B683C4A934204D1374B4FF08D
:1009500074629A6063E07B68384A934203D1334BF8
:10096000374ADA605BE07B68364A934203D12F4B0B
:10097000354ADA6053E07B68344A934203D12B4B0B
:10098000334ADA604BE07B68324A934204D1274B0A
:100990004FF03D52DA6042E07B682F4A934203D128
:1009A0002E4B3D229A603AE07B682D4A934204D157
:1009B0002A4B4FF474629A6031E07B68294A934273
:1009C00004D1264B4FF474129A6028E07B68264AC3
:1009D000934204D1214B4FF074629A601FE07B6810
:1009E000224A934203D11D4B154ADA6017E07B6817
:1009F0001F4A934203D1194B134ADA600FE07B6818
:100A00001C4A934203D1154B114ADA6007E07B6818
:100A1000194A934203D1114B4FF03D52DA6000BFA7
:100A20000C37BD4680BC7047106002400060024039
:100A300028600240406002405860024070600240FE
:100A40003D00002088600240400F0020A06002406E
:100A500000003D20B8600240106402400064024083
:100A600028640240406402405864024070640240BE
:100A700088640240A0640240B864024080B485B03B
:100A800000AF786039600023FB607B681B68FB6007
:100A9000FA68244B1340FB603B681A683B68DB68CC
:100AA0001A433B685B691A433B689B691A433B687E
:100AB000DB691A433B681B6A1A433B685B6A1A434B
:100AC0003B689B6A1A433B685B6B1A433B689B6BB2
:100AD0001343FA681343FB607B68FA681A607B680B
:100AE0005B69FB60FB6823F00703FB603B68DA6A25
:100AF0003B681B6B1343FA681343FB607B68FA681F
:100B00005A613B681A697B685A603B685A687B681F
:100B10009A603B689A687B68DA6000BF1437BD460C
:100B200080BC70473F801CF080B483B000AF786019
:100B30000B46FB70FB78002B06D07B681B6843F0EC
:100B400001027B681A6005E07B681B6823F00102E4
:100B50007B681A6000BF0C37BD4680BC704700BF81
:100B600080B485B000AFF860B9601346FB71BB6814
:100B700003F08003002B0FD0FB79002B06D0FB681D
:100B80005B6943F08002FB685A6105E0FB685B69C2
:100B900023F08002FB685A61BB68802B14D0FB797C
:100BA000002B08D0FB681A68BB6803F01E031A43C9
:100BB000FB681A6008E0FB681A68BB6803F01E0354
:100BC000DB431A40FB681A6000BF1437BD4680BC87
:100BD000704700BF80B487B000AF786039600023F1
:100BE000FB750023FB600023BB607B68214A9342B6
:100BF00002D8214B3B6101E0204B3B613B6823F075
:100C0000F02323F0C313002B0AD03B68DB0A03F068
:100C10001E03FB607B681A68FB681340BB6004E03E
:100C20007B685B6903F08003BB603B6803F00053A3
:100C3000002B03D03B695B68FB6002E03B691B68EB
:100C4000FB60FB6823F0F02323F08213FB60FA685B
:100C50003B681340002B05D0BB68002B02D001235A
:100C6000FB7501E00023FB75FB7D18461C37BD4674
:100C700080BC70470F640240006002400064024084
:100C800080B485B000AF786039607B68104A9342C9
:100C900002D8104BFB6001E00F4BFB603B6803F098
:100CA0000053002B07D03B6823F0F02323F082137E
:100CB000FA68D36006E03B6823F0F02323F0821348
:100CC000FA68936000BF1437BD4680BC704700BF10
:100CD0000F640240006002400064024080B582B0B0
:100CE00000AF1B4B00221A80194B00225A60184B90
:100CF00000229A600023BB8017E00023FB800DE0F8
:100D0000BA8813469B0013449B011A44FB88134482
:100D1000104A0021D154FB880133FB80FB88B3F5D6
:100D2000A07FEDD9BB880133BB80BB88EF2BE4D912
:100D300000F072F800F0C4F800F054F900F026F961
:100D4000054B1B68024A936000BF0837BD4680BD53
:100D500058040020640400208864024080B584B0F8
:100D600000AF0346FB710023BB8112E00023FB812F
:100D700008E0FA79B989FB89184600F011F8FB8977
:100D80000133FB81FB89B3F5A07FF2D3BB8901332B
:100D9000BB81BB89EF2BE9D900BF1037BD4680BDB1
:100DA00080B483B000AF0346FB800B46BB80134684
:100DB000FB70FB88B3F5A07F0AD3FA88134BA3FB23
:100DC0000213190A0B469B000B449B01D31AFB80AC
:100DD000BB88EF2B0AD9BA880D4BA3FB0213D909A4
:100DE0000B461B015B1A1B01D31ABB80BA88134642
:100DF0009B0013449B011A44FB8813440549FA786D
:100E0000CA5400BF0C37BD4680BC7047CDCCCCCC9B
:100E1000898888886404002080B582B000AF0121F1
:100E20001020FFF78BFA4FF47F433B6001233B71A7
:100E30000023BB710123FB7103237B713B461946E1
:100E40001D48FFF7CBFB1C4B4FF47F425A83012117
:100E50000220FFF773FA4FF400633B6002233B71FB
:100E600003237B710023BB710123FB713B461946B1
:100E70001248FFF7B3FB01220B211048FFF73CFC9F
:100E800001210220FFF75AFA4FF480533B600123FF
:100E90003B710023BB710123FB7103237B713B4634
:100EA00019460648FFF79AFB044B4FF480521A8309
:100EB00000BF0837BD4680BD00100240000402405C
:100EC00080B588B000AF01210120FFF773FA0B2332
:100ED000BB610023BB820023BB830023FB8207F19D
:100EE00014031946284801F087F901210120FFF772
:100EF00043FA40F66B23BB610023BB820023BB8314
:100F00000023FB8207F1140319464FF0804001F0E3
:100F100073F960233B8001237B804FF4D273BB6065
:100F20000223BB813B4619464FF0804001F00EFA88
:100F300008214FF0804001F0F5FA60233B80012347
:100F40007B804FF4A073BB600223BB813B461946F4
:100F50004FF0804001F080FA08214FF0804001F00E
:100F6000FDFA0121084801F0B1F901214FF080405C
:100F700001F0ACF901214FF0804001F0C7F900BF4A
:100F80002037BD4680BD00BF0000014080B582B063
:100F900000AF012210211248FFF7E2FD44233B710C
:100FA00000237B710023BB710123FB713B1D18469D
:100FB00000F0E4F8012208214FF0804001F0ECFA43
:100FC0001C233B7100237B710023BB710123FB7148
:100FD0003B1D184600F0D2F800BF0837BD4680BD63
:100FE0008864024080B590B000AF01214FF48000CA
:100FF000FFF7A4F900211B48FFF796FD1948FFF7FA
:101000006BFC4FF040637B60174BBB60174BFB6082
:1010100040233B6140F241137B610023BB614FF4ED
:101020008063FB6100233B6200237B620023BB6281
:101030004FF44033FB6200233B6301237B630023B7
:10104000BB630023FB633B1D19460648FFF716FDF3
:1010500001224FF48071064801F0D2FA00BF4037F8
:10106000BD4680BD88640240151002406404002023
:101070000000014080B500AF08214FF0804001F032
:10108000AFFA264B1B8801339AB2244B1A80234BAC
:101090001B88B3F5037F05D9204B00221A80204A14
:1010A0001E4B5A601D4B1B88012B04D81D4B4FF45F
:1010B00080525A8303E01B4B4FF480521A83174B24
:1010C0001B88232B27D9154B1B8840F20222934201
:1010D00021D8154A114B9B681360134A0F4B5B686C
:1010E000D360124A114B1B889BB243F001039BB2A1
:1010F00013800D4A0C4B1B6843F001031360074B30
:101100001B8803F00103002B05D0044B5B6803F23E
:101110004113024A536000BF80BD00BF5804002045
:101120006404002000040240886402400000014082
:1011300080B500AF0D490E48FFF74CFD0346002B6C
:1011400012D00A490A48FFF79BFD0A4A094B1B883F
:101150009BB223F001039BB21380054B00221A605F
:10116000054B4FF47F425A8300BF80BD00880020AA
:1011700088640240000001400010024080B485B045
:1011800000AF78600023FB730023BB730F237B73D6
:101190007B68DB78002B38D0264BDB68DB4303F41D
:1011A000E0631B0AFB73FB7BC3F10403BB737A7B15
:1011B000FB7B42FA03F37B737B685B781A46BB7B4D
:1011C00002FA03F3FB737B689A787B7B1340DAB2F5
:1011D000FB7B1343FB73FB7B1B01FB73164A7B6892
:1011E0001B781344FA7B83F80023134A7B681B782F
:1011F0005B09DBB218467B681B7803F01F030121F3
:1012000001FA03F342F820300FE00B497B681B78AA
:101210005B09DBB218467B681B7803F01F030122D1
:101220009A4000F1200341F8232000BF1437BD4647
:1012300080BC704700ED00E000E100E080B400AF4A
:10124000044B00221A70044B00221A7000BFBD46E6
:1012500080BC7047543101205504002080B483B015
:1012600000AF0346FB71044AFB79137000BF0C37D3
:10127000BD4680BC704700BF5431012080B483B0AC
:1012800000AF0346FB71044AFB79137000BF0C37B3
:10129000BD4680BC704700BF5504002080B584B0B7
:1012A00000AFF860B9601346FB71FB689BB2BA6887
:1012B00091B2FA791846FFF773FD00BF1037BD46AB
:1012C00080BD00BF90B58BB002AFF860B9607A60A6
:1012D0003B600023FB617B68BB617B68C3F101035A
:1012E0007B617B69002B09DAFB690133FB61FB69D8
:1012F0005A007B69134403337B610EE0FB690133C1
:10130000FB61FB695A007B691A44BB69013BBB6105
:10131000BB695B00D31A05337B613B68002B4BD064
:10132000FA68FB69D018BA68BB69D118FA68FB691A
:10133000D41ABA68BB691A44614B1B7800931346F0
:10134000224600F031F9FA68FB69D018BA68BB6927
:10135000D11AFA68FB69D41ABA68BB69D21A584B19
:101360001B7800931346224600F01EF9FA68BB6909
:10137000D018BA68FB69D118FA68BB69D41ABA6880
:10138000FB691A444E4B1B7800931346224600F02B
:101390000BF9FA68BB69D018BA68FB69D11AFA6808
:1013A000BB69D41ABA68FB69D21A454B1B78009303
:1013B0001346224600F0F8F8FA68FB69D018BA68BC
:1013C000BB69D1183F4B1B781A46FFF767FFFA68D5
:1013D000FB69D01ABA68BB69D1183A4B1B781A4618
:1013E000FFF75CFFFA68FB69D018BA68BB69D11ACD
:1013F000344B1B781A46FFF751FFFA68FB69D01A85
:10140000BA68BB69D11A2F4B1B781A46FFF746FF03
:10141000FA68BB69D018BA68FB69D118294B1B78E8
:101420001A46FFF73BFFFA68BB69D01ABA68FB6936
:10143000D118244B1B781A46FFF730FFFA68BB69B6
:10144000D018BA68FB69D11A1E4B1B781A46FFF7F1
:1014500025FFFA68BB69D01ABA68FB69D11A194B23
:101460001B781A46FFF71AFFFA69BB699A42FFF622
:1014700038AF3B68002B0CD0FA687B68D01AFA684A
:101480007B681A440E4B1B780093BB68B96800F068
:101490008BF8FA687B68D01A0A4B1B781A46B96831
:1014A000FFF7FCFEFA687B68D018064B1B781A46DB
:1014B000B968FFF7F3FE00BF2437BD4690BD00BFFB
:1014C000550400205431012080B586B000AFF8608B
:1014D000B9607A603B603B6A002B1ED000237B61C1
:1014E00017E000233B610DE0FA687B69D018BA6809
:1014F0003B69D1182A4B1B781A46FFF7CFFE3B6990
:1015000001333B613A693B689A42EDDB7B69013309
:101510007B617A697B689A42E3DB00237B6116E09A
:10152000FA687B69D0181F4B1B781A46B968FFF719
:10153000B5FEFA687B69D018BA683B68D118194BB8
:101540001B781A46FFF7AAFE7B6901337B617B6833
:101550005A1C7B699A42E3DC00233B6116E0BA68BF
:101560003B69D1180F4B1B781A46F868FFF796FEB7
:10157000FA687B68D018BA683B69D118094B1B78A8
:101580001A46FFF78BFE3B6901333B613B685A1CEF
:101590003B699A42E3DC00BF1837BD4680BD00BFFF
:1015A0005504002054310120B0B588B000AFF86078
:1015B000B9607A603B607A68FB68D31A184601F01C
:1015C000FBFE0346BB613A68BB68D31A184601F0BC
:1015D000F3FE03467B61B969B86901F041FF034638
:1015E0001C467969786901F03BFF0346194620469D
:1015F00001F02EFE0346184601F0A8FA03460C46F9
:101600001846214601F020F803460C4618462146AC
:1016100001F0C8FD03463B610023FB613EE0F86832
:1016200001F0CAFE0446F86901F0C6FE0346B96936
:10163000184601F015FF03463969184601F0C4FF4A
:1016400003461946204601F003FE0346184602F001
:10165000CDF80446B86801F0AFFE0546F86901F020
:10166000ABFE03467969184601F0FAFE0346396974
:10167000184601F0A9FF03461946284601F0E8FD87
:101680000346184602F0B2F8014697F830301A4681
:101690002046FFF703FEFB690133FB61F86901F0A7
:1016A0008BFE03463969184602F078F80346002B92
:1016B000B5D100BF2037BD46B0BD00BF80B586B0F4
:1016C00002AFF860B9607A603B60064B1B7800930C
:1016D0003B687A68B968F868FFF766FF00BF1037A3
:1016E000BD4680BD5431012090B599B000AFF8607F
:1016F000B9607A603B60BB6F002B00F08B817A6829
:10170000FB68D31A184601F057FE03463B653A685A
:10171000BB68D31A184601F04FFE0346FB643A6FCC
:101720007B68D31A184601F047FE0346BB647A6F04
:101730003B68D31A184601F03FFE03467B64FA6803
:101740003B6FD31A184601F037FE03463B64BA6874
:101750007B6FD31A184601F02FFE0346FB63396DE9
:10176000386D01F07DFE03461C46F96CF86C01F003
:1017700077FE03461946204601F06AFD03461846E7
:1017800001F0E4F903460C461846214600F05CFFE0
:1017900003460C461846214601F004FD0346BB6390
:1017A000B96CB86C01F05CFE03461C46796C786C31
:1017B00001F056FE03461946204601F049FD034656
:1017C000184601F0C3F903460C461846214600F0BE
:1017D0003BFF03460C461846214601F0E3FC034656
:1017E0007B63396C386C01F03BFE03461C46F96B99
:1017F000F86B01F035FE03461946204601F028FD3E
:101800000346184601F0A2F903460C461846214645
:1018100000F01AFF03460C461846214601F0C2FCB0
:1018200003463B63864B1B7887F82F30854B1B782C
:101830001846FFF713FD0023FB653FE0F86D01F04C
:10184000BBFD0346396D184601F00AFE0346B96B2D
:10185000184601F0B9FE0346BB62F86D01F0ACFD1D
:101860000346F96C184601F0FBFD0346B96B1846B8
:1018700001F0AAFE03467B62F86801F09DFD034675
:10188000B96A184601F0E4FC0346184601F0AEFFC1
:101890000446B86801F090FD0346796A184601F0E5
:1018A000D7FC0346184601F0A1FF01467B6F3A6F53
:1018B0002046FFF703FFFB6D0133FB65F86D01F078
:1018C0007BFD0346B96B184601F068FF0346002B09
:1018D000B4D10023BB653FE0B86D01F06DFD034658
:1018E000B96C184601F0BCFD0346796B184601F04F
:1018F0006BFE03463B62B86D01F05EFD0346796CFA
:10190000184601F0ADFD0346796B184601F05CFE08
:101910000346FB61786801F04FFD0346396A1846BB
:1019200001F096FC0346184601F060FF0446386853
:1019300001F042FD0346F969184601F089FC0346AF
:10194000184601F053FF0146BB68FA682046FFF7CE
:10195000B5FEBB6D0133BB65B86D01F02DFD0346CF
:10196000796B184601F01AFF0346002BB4D100230F
:101970007B653FE0786D01F01FFD0346396C18462A
:1019800001F06EFD0346396B184601F01DFE03465B
:10199000BB61786D01F010FD0346F96B184601F04C
:1019A0005FFD0346396B184601F00EFE03467B616E
:1019B000386F01F001FD0346B969184601F048FC93
:1019C0000346184601F012FF0446786F01F0F4FC5C
:1019D00003467969184601F03BFC0346184601F0BE
:1019E00005FF01463B687A682046FFF767FE7B6D7E
:1019F00001337B65786D01F0DFFC0346396B1846D7
:101A000001F0CCFE0346002BB4D197F82F301846D6
:101A1000FFF724FC3B687A68B968F868FFF74EFE68
:101A20007B6F3A6F39687868FFF748FEBB68FA68E1
:101A3000796F386FFFF742FE00BF6437BD4690BD37
:101A40005431012055040020B0B58CB000AFF860CF
:101A5000B9607A603B60FB68BB62B86801F064F80B
:101A600004460D46786801F071F84FF000025D4BB6
:101A700001F0C0F802460B462046294600F006FF5A
:101A800003460C461846214601F064FB03467B6280
:101A9000F86801F049F804460D46786801F056F8F8
:101AA0004FF000024F4B01F0A5F802460B462046CE
:101AB000294600F0EDFE03460C461846214601F08B
:101AC00049FB03463B62B86801F02EF804460D4618
:101AD000786801F03BF84FF00002424B01F08AF8C1
:101AE00002460B462046294600F0D2FE03460C462D
:101AF0001846214601F02EFB0346FB61F86801F011
:101B000013F804460D46786801F020F84FF0000203
:101B1000344B01F06FF802460B462046294600F090
:101B2000B5FE03460C461846214601F013FB03465A
:101B3000BB61B86800F0F8FF04460D46786801F014
:101B400005F84FF00002274B01F054F802460B460F
:101B50002046294600F09CFE03460C4618462146C6
:101B600001F0F8FA03467B613B68002B24D01E4B42
:101B70001B78FB741D4B1B781846FFF76FFB002387
:101B8000FB620AE0BA69FB6AD0187B6ABA6A7969B3
:101B9000FFF794FDFB6A0133FB62F86A01F00CFC6D
:101BA00003467968184601F0F9FD0346002BE9D198
:101BB000FB7C1846FFF752FBFB693A6A796AB86A00
:101BC000FFF77CFD7B69BA69F969386AFFF776FD32
:101BD0007B6ABA6A7969B869FFF770FD00BF303770
:101BE000BD46B0BD0000E03F543101205504002047
:101BF000F0B591B002AFF860B9607A603B607A6886
:101C00003B689A421ADD7B68DA0F13445B10184672
:101C100001F0D2FB0346FB624FF07E537B633868D2
:101C200001F0CAFB0446786801F0C6FB034619467A
:101C3000204601F0C9FC03463B6319E03B68DA0F1C
:101C400013445B10184601F0B7FB0346FB6278684B
:101C500001F0B2FB0446386801F0AEFB03461946BA
:101C6000204601F0B1FC03467B634FF07E533B639B
:101C70004FF00003BB62FB6A7B62F96A4FF07E5053
:101C800001F0E4FA0346184601F0B0FD03463B625A
:101C90003B6A002B22DA386A01F08EFB04464FF0D3
:101CA0007E51B86A01F0D4FA0346BB62BB6A19469A
:101CB000184601F0CDFA03461946204601F0C8FA4D
:101CC00003460549184601F0C3FA0346184601F0D9
:101CD0008DFD03463B6234E000004040386A01F06D
:101CE0006BFB04464FF07E51B86A01F0B1FA03462F
:101CF000BB62BB6A1946184601F0AAFA03461946A8
:101D0000204601F0A5FA03461C464FF07E51786A42
:101D100001F09CFA03467B627B6A1946184601F083
:101D200097FA03461946204601F090FA0346AF4958
:101D3000184601F08DFA0346184601F057FD034698
:101D40003B62B96A786B01F08BFB0346FB61796AF1
:101D5000786B01F085FB0346BB61B96A386B01F013
:101D60007FFB03467B61796A386B01F079FB0346A0
:101D70003B613B6D002B00F0F480F86801F01CFB28
:101D80000346F969184601F063FA0346184601F064
:101D90002DFD0446B86801F00FFB0346396918466B
:101DA00001F056FA0346184601F020FD0546F86892
:101DB00001F002FB0346F969184601F047FA0346B1
:101DC000184601F013FD0646B86801F0F5FA03461F
:101DD0003969184601F03CFA0346184601F006FD41
:101DE0000246834B1B780093134632462946204611
:101DF000FFF7DAFBF86801F0DFFA0346F9691846E5
:101E000001F026FA0346184601F0F0FC0446B868D3
:101E100001F0D2FA03463969184601F017FA034671
:101E2000184601F0E3FC0546F86801F0C5FA0346E0
:101E3000F969184601F00AFA0346184601F0D6FC83
:101E40000646B86801F0B8FA03463969184601F049
:101E5000FDF90346184601F0C9FC0246644B1B78A5
:101E600000931346324629462046FFF79DFBF8684B
:101E700001F0A2FA0346B969184601F0E9F90346F0
:101E8000184601F0B3FC0446B86801F095FA034621
:101E90007969184601F0DCF90346184601F0A6FC02
:101EA0000546F86801F088FA0346B969184601F05A
:101EB000CDF90346184601F099FC0646B86801F0D2
:101EC0007BFA03467969184601F0C2F903461846C1
:101ED00001F08CFC0246464B1B78009313463246B9
:101EE00029462046FFF760FBF86801F065FA0346D3
:101EF000B969184601F0ACF90346184601F076FCC2
:101F00000446B86801F058FA03467969184601F0AA
:101F10009DF90346184601F069FC0546F86801F092
:101F20004BFA0346B969184601F090F90346184682
:101F300001F05CFC0646B86801F03EFA0346796998
:101F4000184601F083F90346184601F04FFC02469B
:101F5000274B1B7800931346324629462046FFF74D
:101F600023FBF86801F028FA0346F969184601F0E6
:101F70006FF90346184601F039FC0446B86801F0D1
:101F80001BFA03463969184601F062F90346184600
:101F900001F02CFC0146174B1B781A462046FFF730
:101FA0007DF9F86801F008FA0346F969184601F06E
:101FB0004DF90346184601F019FC0446B86801F0D3
:101FC000FBF903463969184601F042F90346184601
:101FD00001F00CFC0146074B1B781A462046FFF720
:101FE0005DF9F86801F0E8F906E000BF0000A040E4
:101FF00055040020543101200346F969184601F0C8
:1020000027F90346184601F0F1FB0446B86801F0D1
:10201000D3F903463969184601F018F90346184602
:1020200001F0E4FB0146724B1B781A462046FFF78D
:1020300035F9F86801F0C0F90346F969184601F06E
:1020400005F90346184601F0D1FB0446B86801F0D3
:10205000B3F903463969184601F0F8F80346184603
:1020600001F0C4FB0146624B1B781A462046FFF77D
:1020700015F9F86801F0A0F90346B969184601F0AE
:10208000E7F80346184601F0B1FB0446B86801F0D2
:1020900093F903467969184601F0DAF803461846C1
:1020A00001F0A4FB0146524B1B781A462046FFF76D
:1020B000F5F8F86801F080F90346B969184601F0AF
:1020C000C5F80346184601F091FB0446B86801F0D4
:1020D00073F903467969184601F0BAF803461846C1
:1020E00001F084FB0146424B1B781A462046FFF75D
:1020F000D5F8F86801F060F90346B969184601F0AF
:10210000A7F80346184601F071FB0446B86801F0D1
:1021100053F903467969184601F098F803461846C2
:1021200001F064FB0146324B1B781A462046FFF74C
:10213000B5F8F86801F040F90346B969184601F0AE
:1021400085F80346184601F051FB0446B86801F0D3
:1021500033F903467969184601F078F803461846C2
:1021600001F044FB0146224B1B781A462046FFF73C
:1021700095F8796AB86A01F011FB0346002B7FF4E9
:1021800087AD3B6D002B14D07B68DA0F13445B10D6
:102190001A46FB68981A7B68DA0F13445B101A46DC
:1021A000FB681A44134B1B780093BB68B968FFF7B0
:1021B000FBF97B68DA0F13445B101A46FB68981A28
:1021C0000B4B1B781A46B968FFF768F87B68DA0F83
:1021D00013445B101A46FB68D018054B1B781A464F
:1021E000B968FFF75BF800BF3C37BD46F0BD00BFE4
:1021F000543101205504002080B485B000AF7860D0
:1022000039600023FB817B681B88FB817B68284A3F
:10221000934213D07B68274A93420FD07B68B3F177
:10222000804F0BD07B68244A934207D07B68234AB7
:10223000934203D07B68224A934208D1FB8923F062
:102240007003FB813B685A88FB891343FB817B68E1
:102250001C4A93420CD07B681B4A934208D0FB89EE
:1022600023F44073FB813B681A89FB891343FB818C
:102270007B68FA891A803B685A687B68DA623B6837
:102280001A887B681A857B68094A934203D07B6869
:10229000084A934204D13B689B7A9AB27B681A86BB
:1022A0007B6801229A8200BF1437BD4680BC70470C
:1022B000000001400004014000040040000800400C
:1022C000000C0040001000400014004080B483B0B7
:1022D00000AF78600B46FB70FB78002B08D07B6862
:1022E0001B889BB243F080039AB27B681A8007E098
:1022F0007B681B889BB223F080039AB27B681A80AC
:1023000000BF0C37BD4680BC704700BF80B483B0AF
:1023100000AF78600B46FB70FB78002B08D07B6821
:102320001B889BB243F001039AB27B681A8007E0D6
:102330007B681B889BB223F001039AB27B681A80EA
:1023400000BF0C37BD4680BC704700BF80B485B06D
:1023500000AF7860396000237B810023FB8100237C
:10236000BB817B681B8C9BB223F480739AB27B6821
:102370001A847B681B8CFB817B689B88BB817B6894
:102380009B8B7B817B8923F070037B817B8923F08E
:1023900003037B813B681A887B8913437B81FB891C
:1023A00023F40073FB813B689B891B029AB2FB8973
:1023B0001343FB813B685B881B029AB2FB89134382
:1023C000FB817B68224A934203D07B68214A934277
:1023D0002BD1FB8923F40063FB813B68DB891B0263
:1023E0009AB2FB891343FB81FB8923F48063FB8151
:1023F0003B689B881B029AB2FB891343FB81BB8914
:1024000023F48053BB81BB8923F40053BB813B6819
:102410001B8A1B019AB2BB891343BB813B685B8A51
:102420001B019AB2BB891343BB817B68BA899A802E
:102430007B687A899A833B689A687B68DA637B68F1
:10244000FA891A8400BF1437BD4680BC704700BFAC
:10245000000001400004014080B485B000AF786006
:1024600039600023BB8100237B810023FB817B68D3
:102470001B8C9BB223F480539AB27B681A847B68CE
:102480001B8C7B817B689B88FB817B689B8BBB81E2
:10249000BB8923F4E043BB81BB8923F44073BB8138
:1024A0003B681B881B029AB2BB891343BB817B89A3
:1024B00023F400537B813B689B891B039AB27B8981
:1024C00013437B813B685B881B039AB27B89134370
:1024D0007B817B68114A934203D07B68104A934208
:1024E0000AD1FB8923F48043FB813B681B8A9B0153
:1024F0009AB2FB891343FB817B68FA899A807B68D7
:10250000BA899A833B689A687B681A647B687A897F
:102510001A8400BF1437BD4680BC704700000140DC
:102520000004014080B485B000AF78600B467B802A
:102530000023FB817B689B8BFB81FB8923F00803D5
:10254000FB81FA897B881343FB817B68FA899A8334
:1025500000BF1437BD4680BC704700BF80B485B053
:1025600000AF78600B467B800023FB817B689B8BF0
:10257000FB81FB8923F40063FB817B881B029AB2F9
:10258000FB891343FB817B68FA899A8300BF143768
:10259000BD4680BC704700BF80B483B000AF786098
:1025A0000B467B8013467B707B78002B08D07B68C2
:1025B0009B899AB27B8813439AB27B689A8109E01F
:1025C0007B689B899AB27B88DB439BB213409AB2AB
:1025D0007B689A8100BF0C37BD4680BC704700BF46
:1025E00080B483B000AF78600B467B807B88DB4390
:1025F0009AB27B681A8200BF0C37BD4680BC704718
:1026000080B483B000AF78600B467B8013467B704C
:102610007B78002B08D07B689B899AB27B88134318
:102620009AB27B689A8109E07B689B899AB27B8821
:10263000DB439BB213409AB27B689A8100BF0C3790
:10264000BD4680BC704700BF2DE9F04F8BB00446FB
:102650000D4600F055F8284B93F900A0BAF1FF3F62
:1026600006460F4612D022462B462046294600F049
:102670005BFD834650B94FF000084FF00009424619
:102680004B462046294600F027FD20B93046394602
:102690000BB0BDE8F08F194BCDF820B00122CDE989
:1026A0000445CDE902458DE80C00BAF1000F15D0C4
:1026B00042464B464046494600F0C6FBBAF1020F7F
:1026C000CDE906010CD101F0B7F821230360089B86
:1026D00063B9DDE906010BB0BDE8F08FCDE90689ED
:1026E000684600F0CDF80028F1D1ECE701F0A4F83D
:1026F000089B0360EDE700BF20000020F880000881
:102700002DE9F8435D4EB6460E4076450C4605462B
:1027100000F0958000290B46024673DD0F157ED030
:10272000A7F2FF37C3F31303F80743F4801364D40D
:1027300003EBD27100260B447F105200B6461620E0
:102740004FF400110EEB01049C424FEAD2754FEAA0
:10275000420203DC1B1B04EB010E0E44013805EBA7
:1027600043034FEA5101EDD1844620244FF000414C
:1027700009E020D003EBD275013C4FEA51012B4414
:102780004FEA420220D09E4501EB0C05F1DA002D04
:1027900005EB010C09DBF0469542CEEB030300D9B3
:1027A000013B521B0844C646E4E7BCF1000FF2DBD4
:1027B0000EF10108F0E7954217D8002D05EB010C4A
:1027C00047DB98460023ECE7134310D14008731011
:1027D00003F17F5303F50013F20703EB075948BFDA
:1027E00040F000404946BDE8F8837346C2E7411C0B
:1027F00033D000F001031844E8E75B0003EBD27329
:10280000520095E721F000460643ECD069BB0F4625
:10281000D30A153F5205002BFAD0DD0220D4002147
:1028200000E001465B00DC0201F10100F9D5C0F1D6
:10283000200422FA04F423437F1A824070E7024600
:102840000B4600F0D7F92A46234600F021F8BDE8F0
:10285000F883BCF1000FABDAB3E701362046B6E7E8
:1028600020244FF0FF310020E3E702460B4600F042
:102870000DF802460B4600F0E7FAB4E70000F07FDF
:102880000020704781F0004102E000BF83F0004368
:1028900030B54FEA41044FEA430594EA050F08BFFB
:1028A00090EA020F1FBF54EA000C55EA020C7FEABF
:1028B000645C7FEA655C00F0E2804FEA5454D4EB3C
:1028C0005555B8BF6D420CDD2C4480EA020281EA06
:1028D000030382EA000083EA010180EA020281EA3E
:1028E0000303362D88BF30BD11F0004F4FEA013190
:1028F0004FF4801C4CEA113102D0404261EB41019F
:1029000013F0004F4FEA03334CEA133302D0524224
:1029100063EB430394EA050F00F0A780A4F10104E0
:10292000D5F1200E0DDB02FA0EFC22FA05F280181A
:1029300041F1000103FA0EF2801843FA05F3594100
:102940000EE0A5F120050EF1200E012A03FA0EFC7F
:1029500028BF4CF0020C43FA05F3C01851EBE371A9
:1029600001F0004507D54FF0000EDCF1000C7EEBC6
:1029700000006EEB0101B1F5801F1BD3B1F5001F04
:102980000CD349085FEA30004FEA3C0C04F1010423
:102990004FEA445212F5800F80F09A80BCF1004F4C
:1029A00008BF5FEA500C50F1000041EB045141EACE
:1029B000050130BD5FEA4C0C404141EB010111F4CF
:1029C000801FA4F10104E9D191F0000F04BF01467A
:1029D0000020B1FA81F308BF2033A3F10B03B3F158
:1029E00020020CDA0C3208DD02F1140CC2F10C02E8
:1029F00001FA0CF021FA02F10CE002F11402D8BF46
:102A0000C2F1200C01FA02F120FA0CFCDCBF41EA11
:102A10000C019040E41AA2BF01EB0451294330BDE0
:102A20006FEA04041F3C1CDA0C340EDC04F11404BD
:102A3000C4F1200220FA04F001FA02F340EA030094
:102A400021FA04F345EA030130BDC4F10C04C4F1DA
:102A5000200220FA02F001FA04F340EA03002946BA
:102A600030BD21FA04F0294630BD94F0000F83F404
:102A7000801306BF81F480110134013D4EE77FEAE7
:102A8000645C18BF7FEA655C29D094EA050F08BF33
:102A900090EA020F05D054EA000C04BF1946104614
:102AA00030BD91EA030F1EBF0021002030BD5FEA58
:102AB000545C05D14000494128BF41F0004130BD80
:102AC00014F580043CBF01F5801130BD01F00045D4
:102AD00045F0FE4141F470014FF0000030BD7FEA47
:102AE000645C1ABF194610467FEA655C1CBF0B4642
:102AF000024650EA013406BF52EA033591EA030F59
:102B000041F4002130BD00BF90F0000F04BF002150
:102B1000704730B54FF4806404F132044FF0000583
:102B20004FF0000150E700BF90F0000F04BF0021FC
:102B3000704730B54FF4806404F1320410F0004562
:102B400048BF40424FF000013EE700BF42004FEA5D
:102B5000E2014FEA31014FEA02701FBF12F07F43DA
:102B600093F07F4F81F06051704792F0000F14BFD7
:102B700093F07F4F704730B54FF4607401F000451B
:102B800021F0004120E700BF50EA010208BF704772
:102B900030B54FF000050AE050EA010208BF704767
:102BA00030B511F0004502D5404261EB41014FF4D0
:102BB000806404F132045FEA915C3FF4DCAE4FF0D4
:102BC00003025FEADC0C18BF03325FEADC0C18BFBB
:102BD000033202EBDC02C2F1200300FA03FC20FA0C
:102BE00002F001FA03FE40EA0E0021FA02F1144459
:102BF000C1E600BF70B54FF0FF0C4CF4E06C1CEA6E
:102C000011541DBF1CEA135594EA0C0F95EA0C0FE2
:102C100000F0DEF82C4481EA030621EA4C5123EA55
:102C20004C5350EA013518BF52EA033541F4801184
:102C300043F4801338D0A0FB02CE4FF00005E1FB37
:102C400002E506F00042E0FB03E54FF00006E1FB81
:102C500003569CF0000F18BF4EF0010EA4F1FF04C4
:102C6000B6F5007F64F5407404D25FEA4E0E6D4104
:102C700046EB060642EAC62141EA55514FEAC52015
:102C800040EA5E504FEACE2EB4F1FD0C88BFBCF591
:102C9000E06F1ED8BEF1004F08BF5FEA500E50F142
:102CA000000041EB045170BD06F0004646EA010108
:102CB00040EA020081EA0301B4EB5C04C2BFD4EB3A
:102CC0000C0541EA045170BD41F480114FF0000E33
:102CD000013C00F3AB8014F1360FDEBF002001F0A1
:102CE000004170BDC4F10004203C35DA0C341BDC1B
:102CF00004F11404C4F1200500FA05F320FA04F0ED
:102D000001FA05F240EA020001F0004221F0004120
:102D100010EBD37021FA04F642EB06015EEA430E93
:102D200008BF20EAD37070BDC4F10C04C4F12005C3
:102D300000FA04F320FA05F001FA04F240EA020076
:102D400001F0004110EBD37041F100015EEA430E47
:102D500008BF20EAD37070BDC4F1200500FA05F267
:102D60004EEA020E20FA04F301FA05F243EA0203E6
:102D700021FA04F001F0004121FA04F220EA0200F5
:102D800000EBD3705EEA430E08BF20EAD37070BD3B
:102D900094F0000F0FD101F00046400041EB01011B
:102DA00011F4801F08BF013CF7D041EA060195F0FD
:102DB000000F18BF704703F00046520043EB0303B7
:102DC00013F4801F08BF013DF7D043EA06037047A4
:102DD00094EA0C0F0CEA135518BF95EA0C0F0CD0AF
:102DE00050EA410618BF52EA4306D1D181EA0301F5
:102DF00001F000414FF0000070BD50EA410606BFEF
:102E00001046194652EA430619D094EA0C0F02D133
:102E100050EA013613D195EA0C0F05D152EA033678
:102E20001CBF104619460AD181EA030101F0004196
:102E300041F0FE4141F470014FF0000070BD41F0DF
:102E4000FE4141F4780170BD70B54FF0FF0C4CF4B9
:102E5000E06C1CEA11541DBF1CEA135594EA0C0FD8
:102E600095EA0C0F00F0A7F8A4EB050481EA030E25
:102E700052EA03354FEA013100F088804FEA03330C
:102E80004FF0805545EA131343EA12634FEA0222DA
:102E900045EA111545EA10654FEA00260EF000419B
:102EA0009D4208BF964244F1FD0404F5407402D2ED
:102EB0005B084FEA3202B61A65EB03055B084FEA7E
:102EC00032024FF480104FF4002CB6EB020E75EB7B
:102ED000030E22BFB61A754640EA0C005B084FEAA3
:102EE0003202B6EB020E75EB030E22BFB61A754620
:102EF00040EA5C005B084FEA3202B6EB020E75EB6B
:102F0000030E22BFB61A754640EA9C005B084FEAE2
:102F10003202B6EB020E75EB030E22BFB61A7546EF
:102F200040EADC0055EA060E18D04FEA051545EADE
:102F300016754FEA06164FEAC30343EA52734FEA87
:102F4000C2025FEA1C1CC0D111F4801F0BD141EA00
:102F500000014FF000004FF0004CB6E711F4801F65
:102F600004BF01430020B4F1FD0C88BFBCF5E06F45
:102F70003FF6AFAEB5EB030C04BFB6EB020C5FEA55
:102F8000500C50F1000041EB045170BD0EF0004EAA
:102F90004EEA113114EB5C04C2BFD4EB0C0541EADC
:102FA000045170BD41F480114FF0000E013C90E6D9
:102FB00045EA060E8DE60CEA135594EA0C0F08BF9D
:102FC00095EA0C0F3FF43BAF94EA0C0F0AD150EA9C
:102FD00001347FF434AF95EA0C0F7FF425AF10462F
:102FE00019462CE795EA0C0F06D152EA03353FF457
:102FF000FDAE1046194622E750EA410618BF52EAD4
:1030000043067FF4C5AE50EA41047FF40DAF52EAA7
:1030100043057FF4EBAE12E74FF0FF3C06E000BF44
:103020004FF0010C02E000BF4FF0010C4DF804CD51
:103030004FEA410C7FEA6C5C4FEA430C18BF7FEA11
:103040006C5C1BD001B050EA410C0CBF52EA430C3F
:1030500091EA030F02BF90EA020F0020704710F1BF
:10306000000F91EA030F58BF994208BF90422CBF4E
:10307000D8176FEAE37040F0010070474FEA410C47
:103080007FEA6C5C02D150EA013C07D14FEA430C65
:103090007FEA6C5CD6D152EA033CD3D05DF8040BD6
:1030A000704700BF8446104662468C461946634608
:1030B00000E000BF01B5FFF7B7FF002848BF10F1DF
:1030C000000F01BD4DF808EDFFF7F4FF0CBF012024
:1030D00000205DF808FB00BF4DF808EDFFF7EAFFA0
:1030E00034BF012000205DF808FB00BF4DF808ED5B
:1030F000FFF7E0FF94BF012000205DF808FB00BF50
:103100004DF808EDFFF7CEFF94BF012000205DF8D9
:1031100008FB00BF4DF808EDFFF7C4FF34BF0120E6
:1031200000205DF808FB00BF4FEA410C7FEA6C5CB1
:1031300002D150EA013C0AD14FEA430C7FEA6C5CB1
:1031400002D152EA033C02D14FF0000070474FF029
:10315000010070474FEA410212F5001215D211D555
:103160006FF47873B3EB625212D94FEAC12343F084
:10317000004343EA505311F0004F23FA02F018BF06
:10318000404270474FF00000704750EA013005D1CF
:1031900011F0004008BF6FF0004070474FF0000092
:1031A000704700BF4FEA4102B2F1E04324BFB3F5DC
:1031B000001CDCF1FE5C0DD901F0004C4FEAC002AE
:1031C0004CEA5070B2F1004F40EB830008BF20F092
:1031D0000100704711F0804F21D113F13872BCBF4C
:1031E00001F00040704741F480114FEA5252C2F1A1
:1031F0001802C2F1200C10FA0CF320FA02F018BFEA
:1032000040F001004FEAC1234FEAD32303FA0CFC3C
:1032100040EA0C0023FA02F34FEA4303CCE77FEACB
:10322000625307D150EA01331EBF4FF0FE4040F415
:103230004000704701F0004040F0FE4040F40000C4
:10324000704700BF80F0004002E000BF81F0004105
:1032500042001FBF5FEA410392EA030F7FEA226C3C
:103260007FEA236C6AD04FEA1262D2EB1363C1BFCC
:10327000D218414048404140B8BF5B42192B88BF3B
:10328000704710F0004F40F4000020F07F4018BF5E
:10329000404211F0004F41F4000121F07F4118BF7E
:1032A000494292EA030F3FD0A2F1010241FA03FC26
:1032B00010EB0C00C3F1200301FA03F100F000430E
:1032C00002D5494260EB4000B0F5000F13D3B0F1D6
:1032D000807F06D340084FEA310102F10102FE2A45
:1032E00051D2B1F1004F40EBC25008BF20F00100B5
:1032F00040EA03007047490040EB000010F4000F63
:10330000A2F10102EDD1B0FA80FCACF1080CB2EBF5
:103310000C0200FA0CF0AABF00EBC2505242184354
:10332000BCBFD0401843704792F0000F81F40001F9
:1033300006BF80F400000132013BB5E74FEA4103CC
:103340007FEA226C18BF7FEA236C21D092EA030F38
:1033500004D092F0000F08BF0846704790EA010FB2
:103360001CBF0020704712F07F4F04D1400028BFDF
:1033700040F00040704712F100723CBF00F50000C1
:10338000704700F0004343F0FE4040F400007047F7
:103390007FEA226216BF08467FEA236301464202A3
:1033A00006BF5FEA412390EA010F40F480007047B6
:1033B0004FF0000304E000BF10F0004348BF40425C
:1033C0005FEA000C08BF704743F0964301464FF098
:1033D00000001CE050EA010208BF70474FF00003F4
:1033E0000AE000BF50EA010208BF704711F0004335
:1033F00002D5404261EB41015FEA010C02BF844605
:103400000146002043F0B64308BFA3F18053A3F563
:103410000003BCFA8CF2083AA3EBC25310DB01FAAA
:1034200002FC634400FA02FCC2F12002BCF1004F2E
:1034300020FA02F243EB020008BF20F001007047BF
:1034400002F1200201FA02FCC2F1200250EA4C0013
:1034500021FA02F243EB020008BF20EADC70704759
:103460004FF0FF0C1CEAD0521EBF1CEAD15392EA67
:103470000C0F93EA0C0F6FD01A4480EA010C400243
:1034800018BF5FEA41211ED04FF0006343EA50109D
:1034900043EA5111A0FB01310CF00040B1F5000FDF
:1034A0003EBF490041EAD3715B0040EA010062F18E
:1034B0007F02FD2A1DD8B3F1004F40EBC25008BF78
:1034C00020F00100704790F0000F0CF0004C08BF96
:1034D00049024CEA502040EA51207F3AC2BFD2F163
:1034E000FF0340EAC250704740F400004FF0000371
:1034F000013A5DDC12F1190FDCBF00F000407047AB
:10350000C2F10002410021FA02F1C2F1200200FAE8
:1035100002FC5FEA310040F1000053EA4C0308BFAF
:1035200020EADC70704792F0000F00F0004C02BF00
:10353000400010F4000F013AF9D040EA0C0093F07B
:10354000000F01F0004C02BF490011F4000F013BD5
:10355000F9D041EA0C018FE70CEAD15392EA0C0F43
:1035600018BF93EA0C0F0AD030F0004C18BF31F0AE
:10357000004CD8D180EA010000F00040704790F084
:10358000000F17BF90F0004F084691F0000F91F028
:10359000004F14D092EA0C0F01D142020FD193EAEE
:1035A0000C0F03D14B0218BF084608D180EA010076
:1035B00000F0004040F0FE4040F40000704740F052
:1035C000FE4040F4400070474FF0FF0C1CEAD05220
:1035D0001EBF1CEAD15392EA0C0F93EA0C0F69D07C
:1035E000A2EB030280EA010C49024FEA402037D0E7
:1035F0004FF0805343EA111143EA10130CF00040DE
:103600008B4238BF5B0042F17D024FF4000C8B42CD
:1036100024BF5B1A40EA0C00B3EB510F24BFA3EBAD
:10362000510340EA5C00B3EB910F24BFA3EB91037D
:1036300040EA9C00B3EBD10F24BFA3EBD10340EAD7
:10364000DC001B0118BF5FEA1C1CE0D1FD2A3FF61D
:1036500050AF8B4240EBC25008BF20F001007047D2
:103660000CF0004C4CEA50207F32C2BFD2F1FF0375
:1036700040EAC250704740F400004FF00003013AA6
:1036800037E792F0000F00F0004C02BF400010F44A
:10369000000F013AF9D040EA0C0093F0000F01F05E
:1036A000004C02BF490011F4000F013BF9D041EA80
:1036B0000C0195E70CEAD15392EA0C0F08D14202B3
:1036C0007FF47DAF93EA0C0F7FF470AF084676E786
:1036D00093EA0C0F04D14B023FF44CAF08466EE75F
:1036E00030F0004C18BF31F0004CCAD130F000422D
:1036F0007FF45CAF31F000437FF43CAF5FE700BF85
:103700004FF0FF3C06E000BF4FF0010C02E000BFAD
:103710004FF0010C4DF804CD4FEA40024FEA41034F
:103720007FEA226C18BF7FEA236C11D001B052EA05
:10373000530C18BF90EA010F58BFB2EB030088BFCB
:10374000C81738BF6FEAE17018BF40F0010070473A
:103750007FEA226C02D15FEA402C05D17FEA236C1C
:10376000E4D15FEA412CE1D05DF8040B704700BF63
:10377000844608466146FFE70FB5FFF7C9FF0028FA
:1037800048BF10F1000F0FBD4DF808EDFFF7F4FF33
:103790000CBF012000205DF808FB00BF4DF808EDCC
:1037A000FFF7EAFF34BF012000205DF808FB00BFEF
:1037B0004DF808EDFFF7E0FF94BF012000205DF811
:1037C00008FB00BF4DF808EDFFF7D2FF94BF0120C2
:1037D00000205DF808FB00BF4DF808EDFFF7C8FFBB
:1037E00034BF012000205DF808FB00BF4FEA400213
:1037F000B2F1FE4F0FD34FF09E03B3EB12620DD91F
:103800004FEA002343F0004310F0004F23FA02F088
:1038100018BF404270474FF00000704712F1610F2F
:1038200001D1420205D110F0004008BF6FF0004006
:1038300070474FF000007047014B1868704700BF99
:103840005004002000202020404040008000000064
:10385000005050A000000000000000000024244898
:10386000FC48FC9090000000083854503018A8A87C
:10387000704000000000708091009200E40009C0D8
:10388000124022404380000000000000000E12148D
:1038900038D7948877000000004040800000000086
:1038A00000000000001020404080808080804000A8
:1038B0000020101010101020204080000020A87060
:1038C000A82000000000000000101010FE101010D2
:1038D0000000000000000000000000004080000028
:1038E000000000000000E0000000000000000000F8
:1038F0000000000080000000000810102020404060
:1039000080000000003048488888909060000000E7
:103910000030102020202040E00000000030480847
:1039200010102050F00000000038481060101010F7
:10393000E0000000000C18284850F810200000009B
:10394000001C203008080810E0000000001820705B
:103950008888889060000000007890102020404007
:103960008000000000182424186888887000000077
:103970000018244444483810E00000000000000013
:103980004000000080000000000000002000000057
:1039900040800000000000087080700800000000F7
:1039A000000000F800F800000000000000000080A7
:1039B000700870800000000000609090204040007F
:1039C0008000000000001E0021004E809280A28036
:1039D000A480A500BE00408061001E0000040C14FD
:1039E000143C2444EE000000003C12223C242444F9
:1039F000F8000000003A464480808084780000008F
:103A0000003E112121212246F8000000003E122430
:103A10003C282044F8000000003F11243C282040AE
:103A2000E0000000003A46C4808E848478000000E4
:103A300000003B80110022003E00220022004400D2
:103A4000EE00000000000000003810202020204080
:103A5000E0000000001C0810101020A0C0000000B2
:103A6000003B162830302848EE00000000381020B7
:103A700020202048F80000000000306010802980DD
:103A80002A802A802C804900EB8000000000000082
:103A9000000031C010802880290025002500420048
:103AA000E200000000000000001C22428282848CA0
:103AB00070000000003C1222223C2040E000000088
:103AC000001C224282828488F044F800003C1222CA
:103AD0003C282844E6000000001A2420100848482A
:103AE000B0000000007C542020202040E0000000B6
:103AF00000E742848484848870000000E6444850D3
:103B0000A0A0C080000000000000DD8049005A0035
:103B10009200B400D400D800900000000000000023
:103B200000001BC009000A000C000C001400240057
:103B3000EE0000000000000000EC4848502040402B
:103B4000E0000000003E440810102044FC0000008B
:103B5000382020204040404080E0000000808080ED
:103B60008080808080000000001C0408080810107D
:103B70001020E0000000205088000000000000003D
:103B800000000000000000000000FC000080400079
:103B9000000000000000000000000000384888908D
:103BA000F800000000602040784888906000000025
:103BB0000000000030508090E0000000000C04087D
:103BC00038489090F8000000000000003050E0906D
:103BD000E0000000060A103810102020A0C00000ED
:103BE000000000003C4870407088F00000602040F9
:103BF000586848909800000000002000C0404080B5
:103C0000C0000000000008003010102020A0C000FC
:103C100000602040586060A89000000000602040D4
:103C200040404080C000000000000000DB6D499271
:103C30009300000000000000D86848909800000041
:103C40000000000038488890E000000000000000FC
:103C50006C3424487040C000000000003848889050
:103C6000F010300000000000D060408080000000B4
:103C700000000000604020A0C000000000000040E4
:103C8000E0404080C000000000000000C8484890AC
:103C9000F800000000000000D0505060400000001C
:103CA00000000000D45454785000000000000000D0
:103CB0005020205090000000000000003414141820
:103CC00010A0C0000000000078502050F00000005C
:103CD000001820204080404080804000008080808C
:103CE00080808080808080000010080810100810FC
:103CF0002020C0000000000000E49C000000000044
:103D00000300000000000000040000000C000000A0
:103D1000060000001800000006000000240000005B
:103D20000A00000030000000080000004800000009
:103D300002000000540000000400000060000000C9
:103D4000040000006C000000050000007800000086
:103D50000700000084000000020000009000000046
:103D6000030000009C00000001000000A80000000B
:103D700005000000B400000005000000C0000000C5
:103D800004000000CC00000005000000D800000086
:103D900005000000E400000006000000F000000044
:103DA00006000000FC000000050000000801000003
:103DB00005000000140100000600000020010000C2
:103DC000060000002C010000020000003801000085
:103DD0000300000044010000050000005001000045
:103DE000050000005C010000050000006801000003
:103DF00004000000740100000900000080010000C0
:103E0000070000009801000007000000A401000066
:103E100007000000B001000008000000BC01000025
:103E200007000000C801000008000000D4010000E5
:103E300007000000E001000009000000EC010000A4
:103E4000050000000402000006000000100200004F
:103E5000080000001C02000005000000280200000D
:103E60000B000000340200000A0000004C020000B9
:103E7000070000006402000007000000700200005C
:103E8000070000007C02000007000000880200001C
:103E9000070000009402000006000000A0020000DD
:103EA00008000000AC02000007000000B80200009B
:103EB00009000000C40200000A000000DC0200004B
:103EC00006000000F40200000700000000030000EC
:103ED000050000000C0300000100000018030000B2
:103EE000060000002403000005000000300300006D
:103EF000060000003C030000020000004803000030
:103F000005000000540300000500000060030000ED
:103F1000040000006C0300000600000078030000AD
:103F2000040000008403000007000000900300006C
:103F3000060000009C03000005000000A80300002C
:103F400003000000B403000005000000C0030000EF
:103F500005000000CC03000003000000D8030000AF
:103F600008000000E403000005000000F00300006A
:103F700005000000FC03000006000000080400002B
:103F800005000000140400000400000020040000EC
:103F9000030000002C0400000300000038040000AF
:103FA000050000004404000004000000500400006C
:103FB000060000005C04000004000000680400002B
:103FC00006000000740400000500000080040000EA
:103FD000050000008C0400000100000098040000AF
:103FE00005000000A404000006000000B00400006A
:103FF0000C000000217E000002000000003D0008CF
:10400000443800080018183030303020206040401C
:104010000000C0C0000000000000D8D8D890900078
:104020000000000000000000000000000000000090
:104030000CC00CC018C01980FFE0FFE0198031806F
:104040003300FFE0FFE0330063006600660000001D
:10405000000000000000000001000F801AC0326064
:104060003200320034001C000700058004C008C084
:10407000C8C0C9806B803E00100000000000000036
:10408000000000003E067F0C6318C330C330C660DA
:10409000FEC07D8001BE037F06630CC30CC318C63F
:1040A00030FE607C0000000000000000000007807F
:1040B0000FC01CC018C018801B000E003C0066001A
:1040C000C310C1B0C0E0E1E07F703E2000000000FE
:1040D00000000000000000C0C0C0808000000000A0
:1040E0000000000000000000000000000408103084
:1040F00030606060C0C0C0C0C0C0C0C040602000B0
:10410000001018080C0C0C0C0C0C0C0C18181830A7
:104110003020408000001818FF183C6600000000A6
:10412000000000000000000000000000000000008F
:1041300000000C000C000C000C00FFC0FFC00C00C5
:104140000C000C000C00000000000000000000004B
:10415000000000000000000000000000000000005F
:10416000000060602040C00000000000000000006F
:104170000000FCFC00000000000000000000000047
:10418000000000000000000000000000C0C00000AF
:10419000000000000000C001800180030003000651
:1041A0000006000C001800180030003000600060AD
:1041B00000C0000000000000000000000000000738
:1041C000801FC038E03060606060606060C060C0C8
:1041D000E0C0C0C0C0C180E3807F003C00000000A0
:1041E0000000000000000000060C1C7CEC8C0C1889
:1041F00018181818303030000000000000000F8040
:104200003FC030E070606060006000C00180070067
:104210000E00180030006000FFC0FFC0000000006A
:10422000000000000000000007801FC018E03060A0
:10423000006000C00780078001C000C000C0C0C08F
:10424000E1807F003E000000000000000000000050
:10425000000000E001E0036006C00CC018C030C0E0
:1042600061C0C180FFE0FFE0018003800300030024
:104270000000000000000000000000000FE01FE050
:1042800018001000300037803FC070E00060006010
:104290000060C0C0E1C07F803E0000000000000060
:1042A00000000000000007801FC038603060700010
:1042B0006F00FF80F1C0E0C0C0C0C0C0C1C063805B
:1042C0007F003E0000000000000000000000000031
:1042D000FFC0FFC00180030006000C000C001800A6
:1042E00030003000600060006000C000C0000000CE
:1042F000000000000000000000000F801FC038E038
:104300003060306038C01F803F8061C0C0C0C0C016
:10431000C0C0E1807F003E000000000000000000FF
:10432000000000000F001F8031C070C060C060C07E
:1043300061C071C03FC01D800180C380C7007E0086
:104340003C00000000000000000000000000000031
:1043500000303000000000000000C0C0000000007D
:1043600000000000000018180000000000000060BD
:10437000602040C0000000000000000000800380BA
:104380000F001C007000C00070001C000F000380B4
:10439000008000000000000000000000000000009D
:1043A000000000000000000000000000FF80FF800F
:1043B00000000000FF80FF800000000000000000FF
:1043C00000000000000000000000000000000000ED
:1043D0008000E00078001C000700018007001C003E
:1043E0007800E000800000000000000000000000F5
:1043F0000000000000003E007F006380C18001805B
:1044000003000E001C003800700060000000000077
:10441000C000C0000000000000000000000000001C
:104420000003F8000FFE001E0F0038038031E78004
:1044300063F6C0671CC0C60CC0CC0CC0CC0CC0CC92
:104440001CC0CC1980CE3B80C7FF00639E0070006B
:10445000E03801C01E07800FFF0003FC00000000D1
:10446000E001B001B00330033006300E300C301CD8
:10447000301FF03FF8301860186018C018000000B6
:104480000000000000000000001FE01FF03030308E
:1044900030303030603FC07FE0607060306030604E
:1044A00030C060FFE0FF800000000000000000005E
:1044B00000000007C01FE0383070186018E000C02E
:1044C00000C000C000C000C030E06070E03FC01F0E
:1044D000000000000000000000000000001FE01FBE
:1044E000F01838301C300C300C300C300C600C6084
:1044F00018601860306070FFE0FF8000000000006E
:10450000000000000000001FF81FF83800300030E5
:104510000030003FF07FF06000600060006000E06D
:1045200000FFF0FFE00000000000000000000000BD
:10453000001FF81FF818003000300030003FF03F37
:10454000F060006000600060006000C000C000001B
:10455000000000000000000000000007E01FF03C29
:10456000383018600C6000C000C1F8C1F8C018C035
:1045700018E03070703FE01F800000000000000075
:104580000000000000180618063806300C300C3009
:104590000C3FFC7FFC6018601860186018E038C0A1
:1045A00030C03000000000000000000000001818BB
:1045B00038303030307060606060E0C0C0000000B3
:1045C0000000000000C000C000C001800180018028
:1045D0000180018003000300C300C300C600FE0089
:1045E0007C00000000000000000000000000180C2B
:1045F0001818183030E031C0330037003F007980A0
:10460000718060C060C06060C030C03000000000D9
:104610000000000000000000180018003800300002
:10462000300030003000700060006000600060000A
:10463000E000FFC0FFC0000000000000000000001C
:104640000000001C07801E0780360D00360F003664
:104650001B00361B00363300663600666600636654
:104660000063460063C600C38C00C38C00C30C000B
:10467000000000000000000000000000000000003A
:10468000001C061C063E06360C370C330C330C712E
:104690008C6198619860D860D8E0D8C070C0700014
:1046A000000000000000000000000007C01FF03CF8
:1046B000387018600CE00CC00CC00CC00CC01CC0E2
:1046C00018603870F03FE00F80000000000000002C
:1046D00000000000001FF01FF8181C300C300C30D8
:1046E0001C30383FF07FE06000600060006000C078
:1046F00000C00000000000000000000000000007F3
:10470000C01FF03C387018600CE00CC00CC00CC02E
:104710000CC018C11863B070E03FE00FF00030002B
:104720001000000000000000001FF01FFC380C30DB
:104730000C300C301C3FF87FE060C060C0606060EF
:1047400060E030C030C01800000000000000000031
:104750000000000FC01FF038383018300038001F3C
:104760000007C001E00070C030C030E0707FE01F83
:1047700080000000000000000000000000FFF0FFCB
:10478000F0060006000C000C000C000C00180018CD
:104790000018001800180030003000000000000071
:1047A00000000000000000300C300C301860186071
:1047B00018601860306030C030C030C060C060E049
:1047C000E07FC01F000000000000000000000000AB
:1047D00000C030C030C060C060C0C0C0C0E18063F5
:1047E000006300660066006C006C00380038000052
:1047F000000000000000000000000000C07018C0B1
:104800007018C0F030C0F030C1B060C1B060E338A3
:10481000C0E338C06639806C19806C1B00781E00BC
:10482000781E00701C00701C0000000000000000DA
:104830000000000000000000000018031C060C0C23
:1048400006180630036003C00180038006C00C60B8
:10485000186030306030C018000000000000000018
:1048600000000000C030C030606060C030C03180E7
:104870001B001B000E000C000C000C001C0018009C
:1048800018000000000000000000000000003FF0E1
:104890003FF00030006000C0018003000600060009
:1048A0000C00180030006000FFE0FFE00000000096
:1048B000000000000000000F0F1C181818183030FE
:1048C0003030306060606060F0F00000C0C0C0C098
:1048D0006060606060606030303030000000000078
:1048E000000F0F0303060606060C0C0C1818181808
:1048F0003030F0F00000000C001E001E00330033CA
:104900000061806180C0C000000000000000000065
:104910000000000000000000000000000000000097
:104920000000000000000000000000000000000087
:104930000000000000000000000000000000000077
:10494000000000FFF8FFF8000000E0603000000009
:104950000000000000000000000000000000000057
:1049600000000000000000001F003FC070C000C039
:104970001FC07FC0E180C180C380FF807D800000B8
:1049800000000000000000000000180018003800BF
:10499000300037803FC038E0706060606060606009
:1049A00060C0F1C0DF80CF00000000000000000008
:1049B0000000000000000000000000000F003F8029
:1049C00071C060C0C000C000C000C180E3007F00B3
:1049D0003C0000000000000000000000000000306B
:1049E0000030007000601E603F6070E060E0C0C09A
:1049F000C0C0C0C0C1C0E3C07F803D8000000000D7
:104A000000000000000000000000000000000000A6
:104A10000F803FC070E06060FFE0FFE0C000C0C0FA
:104A2000E1807F803E0000000000000000000000E8
:104A3000000F1E1830FCFC30306060606060C0C049
:104A40000000000000000000000000000000000F57
:104A5000603FE070E060E0C0C0C0C0C0C0C1C0E363
:104A6000807F803D800180C300FF007C000000004B
:104A700000180018003800300033C03FE038607084
:104A800060706060C060C060C0E0C0C180C1800074
:104A90000000000000000000000018180000303086
:104AA000307060606060E0C0C00000000000000383
:104AB0000300000606060E0C0C0C0C0C1818183817
:104AC000F0E0000000180018001000300030C03185
:104AD0008037002E007C007E00760063006300C1FA
:104AE00080C18000000000000000000000001818D5
:104AF0001830303030306060606060C0C00000004E
:104B0000000000000000000000000000379E3FFF92
:104B100038E370C36186618661866186E186C30C75
:104B2000C30C0000000000000000000000000000B6
:104B300000000000000033C03FE03860706070C0CB
:104B400060C060C060C0E0C0C180C18000000000E3
:104B50000000000000000000000000000000000055
:104B60000F803FC070E06060C060C060C060C0C0C7
:104B7000E1C07F803E000000000000000000000057
:104B8000000000000000000000001BC01FE03C709F
:104B90003830303030303030706070E06FC06700D7
:104BA0006000E000C000C000000000000000000045
:104BB000000000001E603F6071E060C0C0C0C0C067
:104BC000C1C0C1C0E3807F803D80018001800300BF
:104BD000030000000000000000373F387060606094
:104BE00060C0C0C000000000000000000000000025
:104BF0000000000F003FC030C038001C000F000351
:104C000080C180E1807F003E0000000000000000C5
:104C10000000000010306060F8F8606060C0C0C044
:104C2000C0F0E000000000000000000000000000F4
:104C3000000030603060306060E060C060C060C024
:104C400061C0E3C07F8079800000000000000000A8
:104C5000000000000000000000000000C0C0C18093
:104C6000C1806300660066006C006C00780038004C
:104C70003000000000000000000000000000000004
:104C8000000000000000C30CC30CC70867986598BB
:104C90006D906CB068A028A038E030C00000000023
:104CA0000000000000000000000000000000000004
:104CB000306018C019800F000E0006000F001B00A6
:104CC00031806180C0C000000000000000000000D2
:104CD0000000000000000000000030303060306054
:104CE00018C0198019801B001B001E001C000C003E
:104CF00018001800F000E0000000000000000000B4
:104D0000000000003FC03FC00180030006000C000F
:104D1000180030006000FF00FF00000000000000ED
:104D20000000000000070F0C0C0C181830E0E030F9
:104D300030303070606070700000C0C0C0C0C0C053
:104D4000C0C0C0C0C0C0C0C0C0C0C0C0C00000079C
:104D500007030303060606060307060C1C18183093
:104D6000F0E0000000000000000000000000000073
:104D7000007840FFC08780000000000000000000B5
:104D80000000000000000000000000000000000023
:104D900005000000000000000500000015000000F4
:104DA0000B0000002A0000000B000000540000006F
:104DB000100000007E0000000C000000A8000000B1
:104DC00002000000D200000006000000E700000022
:104DD00006000000FC0000000800000011010000B7
:104DE0000A0000002601000003000000500100003E
:104DF0000600000065010000020000007A010000CA
:104E00000A0000008F0100000B000000B901000043
:104E100007000000E30100000B000000F8010000A3
:104E20000B000000220200000B0000004C020000FA
:104E30000B000000760200000B000000A002000042
:104E40000A000000CA0200000B000000F40200008B
:104E50000A0000001E0300000400000048030000D8
:104E6000050000005D03000009000000720300005F
:104E7000090000009C03000009000000C6030000B8
:104E800009000000F0030000130000001A040000F5
:104E90000D000000590400000C0000008304000015
:104EA0000D000000AD0400000E000000D70400005B
:104EB0000D000000010500000D0000002B050000A2
:104EC0000E000000550500000F0000007F050000E7
:104ED00005000000A90500000A000000BE05000052
:104EE0000E000000E80500000A00000012060000A5
:104EF000110000003C0600000F0000007B060000CF
:104F00000E000000A50600000E000000CF06000005
:104F10000E000000F90600000E000000230700004C
:104F20000D0000004D0700000C0000007707000096
:104F30000E000000A10700000C000000CB070000DD
:104F400015000000F5070000100000003408000004
:104F50000C0000005E0800000C0000008808000043
:104F600008000000B208000004000000C7080000AC
:104F700008000000DC0800000A000000F108000042
:104F80000D0000001B09000004000000450900009E
:104F90000A0000005A0900000B000000840900000C
:104FA0000A000000AE0900000C000000D809000053
:104FB0000B000000020A0000080000002C0A00009C
:104FC0000B000000410A00000B0000006B0A00000B
:104FD00005000000950A000008000000AA0A000071
:104FE0000A000000BF0A000005000000E90A0000F6
:104FF00010000000FE0A00000B000000280B00005B
:105000000B000000520B00000C0000007C0B0000A5
:105010000B000000A60B000008000000D00B0000F1
:105020000A000000E50B0000050000000F0C000066
:105030000B000000240C00000A0000004E0C0000D1
:105040000E000000780C00000B000000A20C000015
:105050000C000000CC0C00000A000000F60C000060
:1050600008000000200D000002000000350D0000C7
:10507000080000004A0D00000A0000005F0D00005B
:1050800015000000217E000002000000904D000885
:105090000440000800C0C0C0C0C0C0C0C0C0C0C084
:1050A0000000C0C0000000000000CCCCCCCCCC0084
:1050B00000000000000000000000000000000000F0
:1050C0000C600C600CE018C0FFF0FFF018C03180DD
:1050D0003180FFF0FFF03180730063006300000057
:1050E000000000000000000008003E007F00EB8090
:1050F000C980C800E8007C001F000B80098009807F
:10510000C980EB807F003E0008000800000000001E
:105110000000000000380C006C1800C61800C630F3
:1051200000C63000C660006CC00038CE00019B0095
:1051300001B1800331800331800631800C1B000CEB
:105140000E00000000000000000000000000000051
:105150000000000F001F8030C030C031801B001ED7
:10516000003E006730C3B0C1E0C0C0E1E07FB03EA8
:10517000100000000000000000000000C0C0C0C01F
:10518000C00000000000000000000000000000005F
:1051900000081030206060C0C0C0C0C0C0C06060E7
:1051A0002030100800008040602030301818181897
:1051B00018181830302060408000001818FF183C84
:1051C0006600000000000000000000000000000079
:1051D000000000000000000C000C000C000C00FFA0
:1051E000C0FFC00C000C000C000C00000000000010
:1051F00000000000000000000000000000000000AF
:1052000000000000000000C0C0404080000000001E
:1052100000000000000000FCFC0000000000000096
:10522000000000000000000000000000000000007E
:1052300000C0C00000000000000C0C181818183046
:10524000303060606060C0C0000000000000003EC0
:10525000007F806180C0C0C0C0C0C0C0C0C0C0C02E
:10526000C0C0C0C0C0C0C061807F801F00000000FF
:1052700000000000000000000C0C3C7CCC0C0C0C6E
:105280000C0C0C0C0C0C0C000000000000003F008B
:105290007F80E1C0C0C000C000C001800180030069
:1052A0000E001C0030006000FFC0FFC000000000C6
:1052B00000000000000000003E007F00E380C1808D
:1052C000018003000E000F8001C000C000C0C0C0FC
:1052D000E1807F803E000000000000000000000030
:1052E00000000100030007000F001B001B0033003B
:1052F0006300C300FFC0FFC00300030003000300FE
:105300000000000000000000000000003F803F801F
:105310006000600060006F00FF80C1C000C000C07E
:1053200000C0C0C0E1807F803E000000000000009F
:105330000000000000001F003F8061C060C0C0008E
:10534000CF00FF80E1C0C0C0C0C0C0C0C0C061808D
:105350003F801E0000000000000000000000000070
:10536000FFC0FFC0018003000300060006000C0020
:105370000C00180018001800300030003000000049
:10538000000000000000000000001E003F006180DF
:105390006180618061803F003F006180C0C0C0C00B
:1053A000C0C0E1C07F803F0000000000000000009E
:1053B000000000001E007F006180C0C0C0C0C0C0EF
:1053C000C0C061C07FC03CC000C0C180E1807F0020
:1053D0003E0000000000000000000000000000008F
:1053E00000C0C000000000000000C0C000000000BD
:1053F000000000000000C0C000000000000000C06D
:10540000C04040800000000000000000004001C0DB
:1054100007801E007000C00070001E00078001C0E1
:10542000004000000000000000000000000000003C
:1054300000000000000000000000FFC0FFC00000EE
:1054400000000000FFC0FFC00000000000000000DE
:10545000000000000000000000000000000000004C
:105460008000E00078001E00038000C003801E0062
:105470007800E00080000000000000000000000054
:105480000000000000003F007F80E1C0C0C000C0FD
:105490000180038007000E000C000C0000000000DB
:1054A0000C000C00000000000000000000000000E4
:1054B0000001FC000FFF001E07803801C030E6C06D
:1054C00063F6E0671C60C60C60CC0C60CC0C60CC52
:1054D00008E0CC18C0CE398067FF0073DE6038006A
:1054E000C01E03800FFF0003FC0000000000000747
:1054F0000007000D800D800D8018C018C018C03F37
:10550000E03FE0603060306030C018C0180000003C
:10551000000000000000000000FF00FF80C1C0C0CC
:10552000C0C0C0C1C0FF80FF80C0C0C060C060C03C
:1055300060C0E0FFC0FF800000000000000000002D
:105540000000000FC03FE038706038E018C000C0B5
:1055500000C000C000C000E018603078703FE00F6D
:10556000C0000000000000000000000000FF00FF7D
:10557000C0C0E0C060C030C030C030C030C030C03B
:1055800030C030C060C0E0FFC0FF0000000000007D
:1055900000000000000000FFE0FFE0C000C000C00D
:1055A00000C000FFC0FFC0C000C000C000C000C0FD
:1055B00000FFE0FFE000000000000000000000002D
:1055C00000FFC0FFC0C000C000C000C000FF80FFDF
:1055D00080C000C000C000C000C000C000C000000B
:1055E00000000000000000000000000FE01FF03885
:1055F00038601C6008C000C000C1FCC1FCC00C6069
:105600000C600C383C1FF807E000000000000000B0
:105610000000000000C030C030C030C030C030C01A
:1056200030FFF0FFF0C030C030C030C030C030C0FC
:1056300030C0300000000000000000000000C0C0CA
:10564000C0C0C0C0C0C0C0C0C0C0C0C0C00000009A
:1056500000000003030303030303030303C3C3E7BF
:105660007E3C00000000000000C0E0C1C0C380C755
:1056700000CE00DC00DC00FC00EE00C700C380C1EF
:1056800080C1C0C0E0C07000000000000000000049
:10569000000000C000C000C000C000C000C000C0CA
:1056A00000C000C000C000C000C000C000FF80FFFC
:1056B00080000000000000000000000000E00EF08C
:1056C0001EF01ED016D836D836C826CC66CC66C496
:1056D00046C6C6C6C6C286C386C386000000000092
:1056E00000000000000000C030E030F030F030D8A2
:1056F00030CC30CC30C630C330C330C1B0C0F0C0C5
:10570000F0C070C030000000000000000000000089
:10571000000FC01FE038706018E01CC00CC00CC047
:105720000CC00CC00CE01C601838701FE00FC000EB
:105730000000000000000000000000FF80FFC0C06B
:10574000E0C060C060C060C0E0FFC0FF80C000C0BB
:1057500000C000C000C000C0000000000000000049
:1057600000000000000FC01FF038786018E01CC077
:105770000CC00CC00CC00CC00CE01861D838701FF5
:10578000F80FDC000400000000000000000000FF33
:1057900080FFC0C0E0C060C060C0E0FFC0FF80C349
:1057A00000C380C180C1C0C0E0C060C07000000004
:1057B0000000000000000000000F803FE0707060FB
:1057C00030600070003F000FC000E00030C030E0EB
:1057D0003070703FE01F80000000000000000000FB
:1057E000000000FFF0FFF0060006000600060006BD
:1057F0000006000600060006000600060006000679
:1058000000000000000000000000000000C030C0E8
:1058100030C030C030C030C030C030C030C030C008
:1058200030C030E07070E03FC01F8000000000001A
:1058300000000000000000C018E0386030603070E8
:10584000703060306038E018C018C01DC00D800D89
:10585000800F800700000000000000000000000032
:105860000000C07018C0701860D83060D83060D8A0
:105870003070C870318C60318C60318C601B06C018
:105880001B06C01B06C01B06C00E03800E03800053
:105890000000000000000000000000000000000008
:1058A0007038387018600CC00CC007800300078087
:1058B00007800DC01CE0186030307038E01C00001C
:1058C00000000000000000000000E01C6018303004
:1058D00038701CE00CC00780078003000300030041
:1058E00003000300030003000000000000000000AC
:1058F000000000007FF07FF0006000C001800180A8
:10590000030006000C001800180030006000FFF0D3
:10591000FFF00000000000000000000000F0F0C0F8
:10592000C0C0C0C0C0C0C0C0C0C0C0C0C0C0F0F017
:105930000000C0C060606060303030181818180C6B
:105940000C000000000000F0F0303030303030301B
:105950003030303030303030F0F00000183C3C3C1B
:10596000666666C300000000000000000000000042
:105970000000000000000000000000000000000027
:105980000000000000000000000000000000000017
:1059900000000000FFF0FFF0000000C060200000E9
:1059A00000000000000000000000000000000000F7
:1059B0000000000000000000003F00FF80C18001E7
:1059C000800F807F80F180C180C380FF807CC00019
:1059D0000000000000000000000000C000C000C087
:1059E00000C000DE00FF00E300C180C180C180C1B3
:1059F00080C180E300FF00DE000000000000000026
:105A0000000000000000000000000000001E007FF9
:105A1000006380C180C000C000C000C18063807F7F
:105A2000003E000000000000000000000000000137
:105A3000800180018001803D807F806380C180C1C2
:105A400080C180C180C18063807F803D8000000074
:105A50000000000000000000000000000000000046
:105A6000001E007F806180C0C0FFC0FFC0C000C0BA
:105A70000061C07F801F00000000000000000000E7
:105A800000001E3E3030FCFC3030303030303030E2
:105A900030000000000000000000000000000000D6
:105AA0003D807F806380C180C180C180C180C18012
:105AB00063807F803D800180C380FF003E00000046
:105AC0000000C000C000C000C000DE00FF00E38096
:105AD000C180C180C180C180C180C180C180C180BE
