:020000040800F2
:100000002C39012089010008E5010008E5010008FC
:10001000E5010008E5010008E50100080000000016
:10002000000000000000000000000000E5010008E2
:10003000E501000800000000E5010008E5010008F6
:10004000E5010008E5010008E5010008E5010008F8
:10005000E5010008E5010008E5010008E5010008E8
:10006000E5010008E5010008E5010008E5010008D8
:10007000E5010008E5010008E5010008E5010008C8
:10008000E5010008E5010008E5010008E5010008B8
:10009000E5010008E5010008E5010008E5010008A8
:1000A000E5010008E5010008E5010008E501000898
:1000B000E10D0008E5010008E5010008E501000880
:1000C000E5010008E5010008E5010008E501000878
:1000D000E5010008E5010008E5010008E501000868
:1000E000E5010008E5010008E5010008E501000858
:1000F000E5010008E5010008E5010008E501000848
:10010000E5010008E5010008E5010008E501000837
:10011000E5010008E5010008E5010008E501000827
:10012000E5010008E5010008E5010008E501000817
:10013000E5010008E5010008E5010008E501000807
:10014000E5010008E5010008E5010008E5010008F7
:100150009D0E0008E5010008E5010008E501000822
:10016000E5010008E5010008E5010008E5010008D7
:10017000E5010008E5010008E5010008E5010008C7
:10018000E5010008E501000880B582B000AF104B22
:100190007B60104B3B6007E03B681A1D3A607A6851
:1001A000111D796012681A603B680B4A9342F3D3C1
:1001B0000A480B494FF000028842B8BF40F8042BB0
:1001C000FADB00F013F800BF0837BD4680BD00BF62
:1001D00054430008000000203404002034040020B0
:1001E0003031012080B400AFFEE700BF80B584B09D
:1001F00002AF00F095F900F03DFC002000F07AFC21
:100200000A220A210A2000F097FC00237B6050E0BC
:10021000002000F06FFC01230093E02332226421D0
:10022000642000F0D5FE01230093FF2328226421DF
:10023000642000F0CDFE01230093E0231E22642100
:10024000642000F0C5FE01230093FF2314226421E3
:10025000642000F0BDFE01230093E0230A22642104
:10026000642000F0B5FE7B68C3F1BD00012301935B
:10027000D023009306236422612100F06BFF7B688A
:10028000C3F1B40001230193922300930B4B14227A
:10029000642101F049F800233B6002E03B68013330
:1002A0003B603B6842F20F729342F7DD7B6801339B
:1002B0007B607B68462BABDDFEE700BF000034436C
:1002C00080B483B000AF78600B46FB70FB78002BE6
:1002D00006D00949084B1A6B7B6813430B6306E091
:1002E0000549054B1A6B7B68DB4313400B6300BF6A
:1002F0000C37BD4680BC70470038024080B483B0E4
:1003000000AF78600B46FB70FB78002B06D00949E4
:10031000084B1A6C7B6813430B6406E00549054BD8
:100320001A6C7B68DB4313400B6400BF0C37BD467F
:1003300080BC70470038024080B483B000AF786062
:100340000B46FB70FB78002B06D00949084B5A6C12
:100350007B6813434B6406E00549054B5A6C7B6888
:10036000DB4313404B6400BF0C37BD4680BC704775
:100370000038024080B487B000AF78603960002355
:100380007B6100233B610023FB6000237B6176E0FF
:1003900001227B6902FA03F33B613B681A683B69FF
:1003A0001340FB60FA683B699A4265D17B681A6822
:1003B0007B695B00032101FA03F3DB431A407B688E
:1003C0001A607B681A683B681B7919467B695B0079
:1003D00001FA03F31A437B681A603B681B79012B0F
:1003E00003D03B681B79022B2ED17B689A687B690E
:1003F0005B00032101FA03F3DB431A407B689A6038
:100400007B689A683B685B7919467B695B0001FAF7
:1004100003F31A437B689A607B685A687B699BB2D6
:10042000012101FA03F3DB431A407B685A607B68C1
:100430005A683B689B7919467B699BB201FA03F3C2
:100440009BB21A437B685A607B68DA687B699BB20F
:100450005B00032101FA03F3DB431A407B68DA6097
:100460007B68DA683B68DB7919467B695B0001FAD7
:1004700003F31A437B68DA607B6901337B617B6934
:100480000F2B85D900BF1C37BD4680BC704700BF0D
:1004900080B485B000AF78600B467B8013467B70DC
:1004A0000023FB600023BB607A787B8803F007039E
:1004B0009B0002FA03F3FB607B88DB089BB21846C3
:1004C0007B88DB089BB21A467B68083253F82220EF
:1004D0007B8803F007039B000F2101FA03F3DB4342
:1004E00002EA03017B6800F1080243F822107B88CE
:1004F000DB089BB21A467B68083253F82220FB685F
:100500001343BB607B88DB089BB21A467B680832CA
:10051000B96843F8221000BF1437BD4680BC70474D
:1005200080B500AF124A124B1B6843F00103136001
:100530000F4B00229A600E4A0D4B1B6823F0847308
:1005400023F4803313600A4B0A4A5A60084A084B66
:100550001B6823F480231360054B0022DA6000F04F
:100560000DF8054B4FF000629A6000BF80BD00BFE0
:10057000003802401030002400ED00E080B483B069
:1005800000AF00237B6000233B60354A344B1B687F
:1005900043F480331360324B1B6803F400333B6039
:1005A0007B6801337B603B68002B03D17B68B3F52C
:1005B000A06FF0D12A4B1B6803F40033002B02D04C
:1005C00001233B6001E000233B603B68012B42D1EB
:1005D000234A234B1B6C43F080531364214A214B65
:1005E0001B6843F4804313601D4A1D4B9B68936056
:1005F0001B4A1B4B9B6843F400439360184A184BFB
:100600009B6843F4A0539360154B174A5A60144AF1
:10061000134B1B6843F08073136000BF104B1B68C3
:1006200003F00073002BF9D0104B40F205621A6002
:100630000B4A0B4B9B6823F003039360084A084B5B
:100640009B6843F00203936000BF054B9B6803F077
:100650000C03082BF9D100BF0C37BD4680BC704796
:10066000003802400070004008544007003C02403F
:1006700080B483B000AF78607B681B6823F0010210
:100680007B681A607B6800221A607B6800225A60CF
:100690007B6800229A607B680022DA607B68002217
:1006A0001A617B6821225A617B68454A934203D1D3
:1006B000444B3D229A607EE07B68434A934204D1DA
:1006C000404B4FF474629A6075E07B683F4A9342F6
:1006D00004D13C4B4FF474129A606CE07B683C4A46
:1006E000934204D1374B4FF074629A6063E07B68A9
:1006F000384A934203D1334B374ADA605BE07B6878
:10070000364A934203D12F4B354ADA6053E07B6877
:10071000344A934203D12B4B334ADA604BE07B6877
:10072000324A934204D1274B4FF03D52DA6042E007
:100730007B682F4A934203D12E4B3D229A603AE0C8
:100740007B682D4A934204D12A4B4FF474629A601D
:1007500031E07B68294A934204D1264B4FF474124E
:100760009A6028E07B68264A934204D1214B4FF0DF
:1007700074629A601FE07B68224A934203D11D4B4A
:10078000154ADA6017E07B681F4A934203D1194B80
:10079000134ADA600FE07B681C4A934203D1154B81
:1007A000114ADA6007E07B68194A934203D1114B82
:1007B0004FF03D52DA6000BF0C37BD4680BC704739
:1007C0001060024000600240286002404060024029
:1007D00058600240706002403D0000208860024086
:1007E000400F0020A060024000003D20B8600240A1
:1007F00010640240006402402864024040640240E9
:10080000586402407064024088640240A064024060
:10081000B864024080B485B000AF786039600023CE
:10082000FB607B681B68FB60FA68244B1340FB602D
:100830003B681A683B68DB681A433B685B691A438C
:100840003B689B691A433B68DB691A433B681B6A38
:100850001A433B685B6A1A433B689B6A1A433B68CE
:100860005B6B1A433B689B6B1343FA681343FB6053
:100870007B68FA681A607B685B69FB60FB6823F041
:100880000703FB603B68DA6A3B681B6B1343FA683B
:100890001343FB607B68FA685A613B681A697B689E
:1008A0005A603B685A687B689A603B689A687B68C4
:1008B000DA6000BF1437BD4680BC70473F801CF033
:1008C00080B483B000AF78600B46FB70FB78002BE0
:1008D00006D07B681B6843F001027B681A6005E064
:1008E0007B681B6823F001027B681A6000BF0C372D
:1008F000BD4680BC704700BF80B485B000AFF860D3
:10090000B9601346FB71BB6803F08003002B0FD066
:10091000FB79002B06D0FB685B6943F08002FB6823
:100920005A6105E0FB685B6923F08002FB685A614D
:10093000BB68802B14D0FB79002B08D0FB681A68A9
:10094000BB6803F01E031A43FB681A6008E0FB68EB
:100950001A68BB6803F01E03DB431A40FB681A6089
:1009600000BF1437BD4680BC704700BF80B487B05D
:1009700000AF786039600023FB750023FB60002323
:10098000BB607B68214A934202D8214B3B6101E066
:10099000204B3B613B6823F0F02323F0C313002B73
:1009A0000AD03B68DB0A03F01E03FB607B681A6811
:1009B000FB681340BB6004E07B685B6903F0800365
:1009C000BB603B6803F00053002B03D03B695B68BE
:1009D000FB6002E03B691B68FB60FB6823F0F023CF
:1009E00023F08213FB60FA683B681340002B05D0AC
:1009F000BB68002B02D00123FB7501E00023FB75CF
:100A0000FB7D18461C37BD4680BC70470F64024012
:100A1000006002400064024080B485B000AF78609E
:100A200039607B68104A934202D8104BFB6001E0AA
:100A30000F4BFB603B6803F00053002B07D03B6873
:100A400023F0F02323F08213FA68D36006E03B68BA
:100A500023F0F02323F08213FA68936000BF143769
:100A6000BD4680BC704700BF0F640240006002407A
:100A70000064024080B582B000AF1B4B00221A8098
:100A8000194B00225A60184B00229A600023BB8049
:100A900017E00023FB800DE0BA8813469B00134447
:100AA0009B011A44FB881344104A0021D154FB884F
:100AB0000133FB80FB88B3F5A07FEDD9BB88013300
:100AC000BB80BB88EF2BE4D900F05CF800F0AEF8F7
:100AD00000F03EF900F010F9054B1B68024A9360E4
:100AE00000BF0837BD4680BD34040020400400200C
:100AF0008864024080B584B000AF0346FB710023D8
:100B0000BB8112E00023FB8108E0FA79B989FB89F7
:100B1000184600F011F8FB890133FB81FB89B3F51E
:100B2000A07FF2D3BB890133BB81BB89EF2BE9D90D
:100B300000BF1037BD4680BD80B483B000AF034610
:100B4000FB800B46BB801346FB70FB88B3F5A07F90
:100B500001D30023FB80BB88EF2B01D90023BB808E
:100B6000BA8813469B0013449B011A44FB88134424
:100B70000349FA78CA5400BF0C37BD4680BC7047A1
:100B80004004002080B582B000AF01211020FFF7A3
:100B900097FB4FF47F433B6001233B710023BB7104
:100BA0000123FB7103237B713B4619461D48FFF768
:100BB000E1FB1C4B4FF47F425A8301210220FFF7D7
:100BC0007FFB4FF400633B6002233B7103237B7187
:100BD0000023BB710123FB713B4619461248FFF706
:100BE000C9FB01220B211048FFF752FC0121022012
:100BF000FFF766FB4FF480533B6001233B710023FA
:100C0000BB710123FB7103237B713B4619460648E8
:100C1000FFF7B0FB044B4FF480521A8300BF083734
:100C2000BD4680BD001002400004024080B588B07F
:100C300000AF01210120FFF77FFB0B23BB610023E5
:100C4000BB820023BB830023FB8207F114031946F8
:100C5000284800F03DFD01210120FFF74FFB40F641
:100C60006B23BB610023BB820023BB830023FB8279
:100C700007F1140319464FF0804000F029FD60236E
:100C80003B8001237B804FF4D273BB600223BB8186
:100C90003B4619464FF0804000F0C4FD08214FF05C
:100CA000804000F0ABFE60233B8001237B804FF44B
:100CB000A073BB600223BB813B4619464FF08040C6
:100CC00000F036FE08214FF0804000F0B3FE012115
:100CD000084800F067FD01214FF0804000F062FD00
:100CE00001214FF0804000F07DFD00BF2037BD4660
:100CF00080BD00BF0000014080B582B000AF01227E
:100D000010211248FFF7F8FD44233B7100237B714B
:100D10000023BB710123FB713B1D184600F0E4F872
:100D2000012208214FF0804000F0A2FE1C233B71FD
:100D300000237B710023BB710123FB713B1D18460F
:100D400000F0D2F800BF0837BD4680BD886402407D
:100D500080B590B000AF01214FF48000FFF7B0FAEA
:100D600000211B48FFF7ACFD1948FFF781FC4FF04D
:100D700040637B60174BBB60174BFB6040233B61BC
:100D800040F241137B610023BB614FF48063FB6140
:100D900000233B6200237B620023BB624FF440339D
:100DA000FB6200233B6301237B630023BB630023BF
:100DB000FB633B1D19460648FFF72CFD01224FF44B
:100DC0008071064800F088FE00BF4037BD4680BDF8
:100DD00088640240151002404004002000000140D9
:100DE00080B500AF08214FF0804000F065FE264B33
:100DF0001B8801339AB2244B1A80234B1B88B3F50E
:100E0000037F05D9204B00221A80204A1E4B5A60CE
:100E10001D4B1B88012B04D81D4B4FF480525A8365
:100E200003E01B4B4FF480521A83174B1B88232B74
:100E300027D9154B1B8840F20222934221D8154A2C
:100E4000114B9B681360134A0F4B5B68D360124AC7
:100E5000114B1B889BB243F001039BB213800D4AD8
:100E60000C4B1B6843F001031360074B1B8803F016
:100E70000103002B05D0044B5B6803F24113024AC7
:100E8000536000BF80BD00BF340400204004002038
:100E900000040240886402400000014080B500AFB9
:100EA0000D490E48FFF762FD0346002B12D00A4998
:100EB0000A48FFF7B1FD0A4A094B1B889BB223F091
:100EC00001039BB21380054B00221A60054B4FF4BF
:100ED0007F425A8300BF80BD0088002088640240A2
:100EE000000001400010024080B485B000AF78607F
:100EF0000023FB730023BB730F237B737B68DB78BA
:100F0000002B38D0264BDB68DB4303F4E0631B0A7D
:100F1000FB73FB7BC3F10403BB737A7BFB7B42FA5D
:100F200003F37B737B685B781A46BB7B02FA03F39F
:100F3000FB737B689A787B7B1340DAB2FB7B1343AD
:100F4000FB73FB7B1B01FB73164A7B681B78134406
:100F5000FA7B83F80023134A7B681B785B09DBB2BA
:100F600018467B681B7803F01F03012101FA03F385
:100F700042F820300FE00B497B681B785B09DBB23D
:100F800018467B681B7803F01F0301229A4000F18A
:100F9000200341F8232000BF1437BD4680BC7047B2
:100FA00000ED00E000E100E080B584B000AFF86043
:100FB000B9601346FB71FB689BB2BA6891B2FA79CB
:100FC0001846FFF7B9FD00BF1037BD4680BD00BF12
:100FD000B0B58AB000AFF860B9607A60FB70BB6BE7
:100FE000002B52D100237B6249E000233B623EE0AC
:100FF0007A687B6AD31A184602F072FE0346FB61D8
:101000007A683B6AD31A184602F06AFE0346BB614F
:10101000B969B86902F0B8FE03461C46F969F86977
:1010200002F0B2FE03461946204602F0A5FD034633
:101030001C467B68013B7A68013A02FB03F31846C1
:1010400002F04EFE03461946204603F031F80346EF
:10105000002B09D0FA687B6AD018BA683B6A13443F
:10106000FA781946FFF7A0FF3B6A01333B627B68C1
:101070005A003B6A9A42BBDC7B6A01337B627B6825
:101080005A007B6A9A42B0DC60E000237B6258E041
:1010900000233B624DE07A687B6AD31A184602F05F
:1010A0001FFE03467B617A683B6AD31A184602F03A
:1010B00017FE03463B613969386902F065FE034655
:1010C0001C467969786902F05FFE0346194620469E
:1010D00002F052FD0346184602F0CCF903460C46D6
:1010E0001846214600F01CFD04460D467B68013B76
:1010F0007A68013A02FB03F3184602F0A9F90246A6
:101100000B462046294602F085FC0346002B0DD0F5
:10111000FA687B6A1A447B68D01ABA683B6A1A4438
:101120007B68D31AFA781946FFF73EFF3B6A013312
:101130003B627B685A003B6A9A42ACDC7B6A0133B3
:101140007B627B685A007B6A9A42A1DC00BF283729
:10115000BD46B0BD90B589B002AFF860B9607A60A5
:101160003B60FB687B6113E097F828301A46B9684A
:101170007869FFF719FFBA683B681344013B97F899
:10118000282019467869FFF70FFF7B6901337B61DF
:10119000FA687B6813445A1E7B699A42E4DABB689A
:1011A0003B6113E097F828301A463969F868FFF771
:1011B000FBFEFA687B681344013B97F828203969E5
:1011C0001846FFF7F1FE3B6901333B61BA683B68A3
:1011D00013445A1E3B699A42E4DAFB6A012B15D18B
:1011E0007B68002B12DD3B68002B0FDDFB68581C71
:1011F000BB68591C7B685A1E3B685C1E0123019327
:1012000097F8283000932346FFF7A4FF00BF1C3750
:10121000BD4690BDB0B588B000AFF860B9607A60E7
:101220003B607A68FB68D31A184602F059FD034602
:10123000BB613A68BB68D31A184602F051FD0346F9
:101240007B61B969B86902F09FFD03461C46796964
:10125000786902F099FD03461946204602F08CFC9D
:101260000346184602F006F903460C461846214686
:1012700000F06CFD03460C461846214602F026FCA1
:1012800003463B610023FB613EE0F86802F028FD65
:101290000446F86902F024FD0346B969184602F0D5
:1012A00073FD03463969184602F022FE03461946CB
:1012B000204602F061FC0346184602F02BFF04466C
:1012C000B86802F00DFD0546F86902F009FD034615
:1012D0007969184602F058FD03463969184602F04C
:1012E00007FE03461946284602F046FC0346184608
:1012F00002F010FF014697F830301A462046FFF7FB
:1013000053FEFB690133FB61F86902F0E9FC034617
:101310003969184602F0D6FE0346002BB5D100BF4E
:101320002037BD46B0BD00BF2DE9B0438EB002AF3F
:10133000F860B9607A603B60D14BFB62F86802F0FC
:1013400087F804460D46786802F0CAFC0346F96A3D
:10135000184602F019FD0346184602F08BF8804645
:101360008946C849386802F007FC0346184602F06F
:1013700081F8C1A3D3E9002302F0D0F802460B465E
:10138000104619464FF00002BF4B02F0F1F9024639
:101390000B461046194600F04BFC02460B464046F1
:1013A000494602F0BBF802460B462046294601F0AA
:1013B00003FF03460C461846214602F05FFB034636
:1013C000BB62B86802F044F804460D46786802F043
:1013D00087FC0346F96A184602F0D6FC0346184615
:1013E00002F048F880468946A649386802F0C4FBF6
:1013F0000346184602F03EF89FA3D3E9002302F00B
:101400008DF802460B46104619464FF000029E4BDF
:1014100002F0AEF902460B461046194600F052FCA7
:1014200002460B464046494602F078F802460B4613
:101430002046294601F0C0FE03460C4618462146C8
:1014400002F01CFB03467B62F86802F001F80446D8
:101450000D46786802F044FC0346F96A184602F02B
:1014600093FC0346184602F005F8804689468749F2
:10147000386802F081FB0346184601F0FBFF7EA3AB
:10148000D3E9002302F04AF802460B4610461946FB
:101490004FF000027C4B02F06BF902460B461046FF
:1014A000194600F0C5FB02460B464046494602F08D
:1014B00035F802460B462046294601F07DFE0346DC
:1014C0000C461846214602F0D9FA03463B62B8683A
:1014D00001F0BEFF04460D46786802F001FC0346A9
:1014E000F96A184602F050FC0346184601F0C2FFA4
:1014F000804689466549386802F03EFB0346184637
:1015000001F0B8FF5CA3D3E9002302F007F802461C
:101510000B46104619464FF000025B4B02F028F9CB
:1015200002460B461046194600F0CCFB02460B461D
:101530004046494601F0F2FF02460B462046294646
:1015400001F03AFE03460C461846214602F096FA90
:101550000346FB61F86801F07BFF04460D4678689E
:1015600002F0BEFB0346F96A184602F00DFC034682
:10157000184601F07FFF80468946386801F07AFFFF
:101580003DA3D3E9002301F0C9FF02460B461046F4
:1015900019464FF000023C4B02F0EAF802460B46B7
:1015A0001046194600F044FB02460B4640464946A9
:1015B00001F0B4FF02460B462046294601F0FCFD2F
:1015C00003460C461846214602F058FA0346BB6112
:1015D000B86801F03DFF04460D46786802F080FBD4
:1015E0000346F96A184602F0CFFB0346184601F09D
:1015F00041FF80468946386801F03CFF1EA3D3E9CD
:10160000002301F08BFF02460B46104619464FF0AF
:1016100000021D4B02F0ACF802460B46104619467C
:1016200000F050FB02460B464046494601F076FF6B
:1016300002460B462046294601F0BEFD03460C46F5
:101640001846214602F01AFA03467B6197F84830A3
:101650000093FB693A6A796AB86AFFF7DBFD97F88D
:10166000483000937B69BA69F969386AFFF7D2FD9F
:101670000EE000BFAFF300806E861BF0F921094039
:101680002EF9643F0000F042008066400000704385
:1016900097F8483000937B6ABA6A7969B869FFF7AE
:1016A000B9FDFB6C002B0ED07B68002B0BDD7B683B
:1016B0005A1EFB6C019397F8483000933B68B96859
:1016C000F868FFF731FE00BF3037BD46BDE8B08394
:1016D00080B485B000AF786039600023FB817B68FF
:1016E0001B88FB817B68284A934213D07B68274A7A
:1016F00093420FD07B68B3F1804F0BD07B68244AB4
:10170000934207D07B68234A934203D07B68224AE6
:10171000934208D1FB8923F07003FB813B685A8810
:10172000FB891343FB817B681C4A93420CD07B6886
:101730001B4A934208D0FB8923F44073FB813B682A
:101740001A89FB891343FB817B68FA891A803B68FD
:101750005A687B68DA623B681A887B681A857B68FE
:10176000094A934203D07B68084A934204D13B68FC
:101770009B7A9AB27B681A867B6801229A8200BFA4
:101780001437BD4680BC7047000001400004014092
:101790000004004000080040000C00400010004021
:1017A0000014004080B483B000AF78600B46FB703B
:1017B000FB78002B08D07B681B889BB243F080032A
:1017C0009AB27B681A8007E07B681B889BB223F083
:1017D00080039AB27B681A8000BF0C37BD4680BC7C
:1017E000704700BF80B483B000AF78600B46FB70D9
:1017F000FB78002B08D07B681B889BB243F0010369
:101800009AB27B681A8007E07B681B889BB223F042
:1018100001039AB27B681A8000BF0C37BD4680BCBA
:10182000704700BF80B485B000AF78603960002396
:101830007B810023FB810023BB817B681B8C9BB2D7
:1018400023F480739AB27B681A847B681B8CFB81BB
:101850007B689B88BB817B689B8B7B817B8923F02A
:1018600070037B817B8923F003037B813B681A88AB
:101870007B8913437B81FB8923F40073FB813B68E5
:101880009B891B029AB2FB891343FB813B685B88EF
:101890001B029AB2FB891343FB817B68224A934265
:1018A00003D07B68214A93422BD1FB8923F4006348
:1018B000FB813B68DB891B029AB2FB891343FB81E6
:1018C000FB8923F48063FB813B689B881B029AB2EF
:1018D000FB891343FB81BB8923F48053BB81BB8904
:1018E00023F40053BB813B681B8A1B019AB2BB895E
:1018F0001343BB813B685B8A1B019AB2BB891343CC
:10190000BB817B68BA899A807B687A899A833B68B5
:101910009A687B68DA637B68FA891A8400BF143797
:10192000BD4680BC704700BF00000140000401407C
:1019300080B485B000AF786039600023BB8100239C
:101940007B810023FB817B681B8C9BB223F480533B
:101950009AB27B681A847B681B8C7B817B689B882E
:10196000FB817B689B8BBB81BB8923F4E043BB81FC
:10197000BB8923F44073BB813B681B881B029AB26E
:10198000BB891343BB817B8923F400537B813B6874
:101990009B891B039AB27B8913437B813B685B88DD
:1019A0001B039AB27B8913437B817B68114A934264
:1019B00003D07B68104A93420AD1FB8923F4804309
:1019C000FB813B681B8A9B019AB2FB891343FB8115
:1019D0007B68FA899A807B68BA899A833B689A689F
:1019E0007B681A647B687A891A8400BF1437BD4605
:1019F00080BC7047000001400004014080B485B005
:101A000000AF78600B467B800023FB817B689B8B5B
:101A1000FB81FB8923F00803FB81FA897B88134350
:101A2000FB817B68FA899A8300BF1437BD4680BC6E
:101A3000704700BF80B485B000AF78600B467B80F4
:101A40000023FB817B689B8BFB81FB8923F4006374
:101A5000FB817B881B029AB2FB891343FB817B6865
:101A6000FA899A8300BF1437BD4680BC704700BF17
:101A700080B483B000AF78600B467B8013467B70E8
:101A80007B78002B08D07B689B899AB27B881343B4
:101A90009AB27B689A8109E07B689B899AB27B88BD
:101AA000DB439BB213409AB27B689A8100BF0C372C
:101AB000BD4680BC704700BF80B483B000AF786083
:101AC0000B467B807B88DB439AB27B681A8200BF1F
:101AD0000C37BD4680BC704780B483B000AF7860DF
:101AE0000B467B8013467B707B78002B08D07B688D
:101AF0009B899AB27B8813439AB27B689A8109E0EA
:101B00007B689B899AB27B88DB439BB213409AB275
:101B10007B689A8100BF0C37BD4680BC704700BF10
:101B2000C1F30A522DE9F843A2F2FF36132E0B46F9
:101B30000D4604468846074621DC002E4EDB3A4A15
:101B400042FA06F901EA0902024386461CD034A390
:101B5000D3E9002301F030FB0022002301F06EFFE7
:101B600048B1002D04DD4FF4801343FA06F6B0446B
:101B700028EA0905002738462946BDE8F883332EB0
:101B800006DDB6F5806F3CD020461946BDE8F883E7
:101B9000A2F213424FF0FF3929FA02F910EA090FB5
:101BA000F2D01FA3D3E9002301F006FB002200239B
:101BB00001F044FF0028DED0002D09DD142E2BD0CB
:101BC0000123C6F1340603FA06F6371928BF9844F4
:101BD000454627EA090738462946CEE710A3D3E948
:101BE000002301F0E9FA0022002301F027FF00287A
:101BF000C1D0002D0CDB55EA040707D000270B4DA0
:101C0000B9E702460B4601F0D7FABFE73D46B2E717
:101C100000274FF00045AEE705F10108D8E700BF07
:101C20009C7500883CE4377EFFFF0F000000F03F0A
:101C300030B5224A21F00043934287B01BDD204A91
:101C4000934205DD02460B4601F0B4FA07B030BD01
:101C500002AA00F0D9F800F00303012B1AD0022BDE
:101C60000FD01BB30124DDE90423DDE90201009458
:101C700001F0CEF8EAE70022002300F0A9FB07B04C
:101C800030BDDDE90423DDE9020100F0A1FB01F133
:101C90000041DBE7DDE904450093DDE9020122466E
:101CA0002B4601F0B5F801F10041CFE7DDE904234F
:101CB000DDE9020100F08CFBC8E700BFFB21E93F32
:101CC000FFFFEF7F30B51F4A21F00043934287B0FA
:101CD0001BDD1D4A934205DD02460B4601F06AFA00
:101CE00007B030BD02AA00F08FF800F00300012811
:101CF000DDE904231AD002280FD0E0B1DDE90201AA
:101D000000F066FB01F10041EAE7002300930022A6
:101D1000002301F07DF807B030BD0124DDE90201A8
:101D2000009401F075F801F10041D9E7DDE9020105
:101D300000F04EFBD4E70124DDE90201009401F03C
:101D400067F8CDE7FB21E93FFFFFEF7F2DE9F04F7B
:101D50008BB004460D4600F079FA284B93F900A0A9
:101D6000BAF1FF3F06460F4612D022462B462046C8
:101D7000294601F06DFE834650B94FF000084FF040
:101D8000000942464B462046294601F039FE20B95B
:101D9000304639460BB0BDE8F08F194BCDF820B076
:101DA0000122CDE90445CDE902458DE80C00BAF1E8
:101DB000000F15D042464B464046494601F0D8FC3C
:101DC000BAF1020FCDE906010CD102F0C9F92123C5
:101DD0000360089B63B9DDE906010BB0BDE8F08F35
:101DE000CDE90689684601F057F90028F1D1ECE702
:101DF00002F0B6F9089B0360EDE700BF0000002089
:101E00006C410008000000002DE9F04F944E21F0D5
:101E10000047B74291B040F382809246914A974280
:101E20000C4626DC002984A3D3E9002340F3A881D3
:101E300001F0C0F98C4B9F4204460D4600F08480AF
:101E40007FA3D3E9002301F0B5F902460B46CAE9A6
:101E500000232046294601F0ADF979A3D3E90023F8
:101E600001F0A8F90125CAE90201284611B0BDE830
:101E7000F08F7E4A974240F384807D4A974259DC36
:101E80003D15A5F21645A7EB055319461F46064614
:101E900001F0F4FD01F0DCFA8046894602460B466B
:101EA00030463946CDE90A8901F084F90022714BA8
:101EB00001F034FB8946804601F0E0FD01F0C8FAEC
:101EC00002460B4606460F4640464946CDE90C679A
:101ED00001F070F90022674B01F020FB0022002383
:101EE000CDE90E0101F082FD002800F0758100238C
:101EF00030463946002201F079FD002814BF012345
:101F000002235D4A0192022100912A4651460AA805
:101F100000F082FB002CC0F25181054606E0C2E9C8
:101F2000000100250024C2E902450025284611B021
:101F3000BDE8F08F02460B4601F03CF90025CAE9E6
:101F40000201CAE90001F1E73FA3D3E9002301F050
:101F500031F93FA3D3E900230D46044601F02AF9E5
:101F600002460B46CAE900232946204601F022F921
:101F700037A3D3E9002301F01DF90125CAE90201C5
:101F8000D4E700F0FBFF34A3D3E900238046894661
:101F900001F0C4FA0022394B01F00EF901F06EFD98
:101FA000054601F055FA24A3D3E90023CDE9040145
:101FB00001F0B4FA02460B464046494601F0FAF8F1
:101FC0001FA3D3E9002380468946DDE9040101F01F
:101FD000A5FA1F2DCDE9020154DC294B6A1E53F8E6
:101FE00022309F424ED002460B464046494601F001
:101FF000E1F802460B46CAE9002383460E465A46DC
:1020000033464046494601F0D5F8DDE9022301F0A8
:10201000D1F8002C02460B46CAE9022386DA5B4659
:1020200006F1004601F100418AE84800CAF80C10A8
:10203000CAF808006D4279E700004054FB21F93FDF
:102040003163621A61B4D03D0000601A61B4D03DC2
:102050007370032E8A19A33B83C8C96D305FE43FB8
:10206000FB21E93F7BD90240FB21F93FFB213941AC
:10207000FFFFEF7F00007041F44100080000E03FE7
:1020800074410008DDE902234046494601F092F818
:102090003A15C1F30A53D31A102B83460E46099200
:1020A000CAE90001ABDD5EA3D3E90023DDE9040149
:1020B00001F034FA06460F4602460B4640464946B2
:1020C00001F078F8CDE9060102460B464046494644
:1020D00001F070F832463B4601F06CF852A3D3E9A8
:1020E000002306460F46DDE9040101F017FA3246E7
:1020F0003B4601F05FF8DDE90689CDE902010246C1
:102100000B464046494601F055F80B46C1F30A57C5
:102110000E460999CF1B0246312F8346CAE9002398
:102120007ADD43A3D3E90023DDE9040101F0F6F9E8
:1021300006460F4602460B4640464946CDE906890B
:1021400001F038F802460B4680468946DDE9060173
:1021500001F030F832463B4601F02CF836A3D3E9C3
:10216000002306460F46DDE9040101F0D7F93246A7
:102170003B4601F01FF802460B46CDE9022334E747
:1021800001F01AF8304B9F4204460D4626D02CA38E
:10219000D3E9002301F010F802460B46CAE90023F8
:1021A0002946204601F006F825A3D3E9002301F0D3
:1021B00003F84FF0FF35CAE90201B7E6DAF8042068
:1021C000DAF80C3002F1004203F100434542CAF84C
:1021D0000420CAF80C30A9E6032392E610A3D3E941
:1021E000002300F0E9FF10A3D3E900230D460446C5
:1021F00000F0E2FF02460B46CAE9002329462046CA
:1022000000F0D8FF08A3D3E9002300F0D5FF4FF07A
:10221000FF35CAE9020189E6DDE90689EFE600BF7C
:102220000000601A61B4D03D7370032E8A19A33B7D
:102230000000002E8A19A33BC14920259A837B39CF
:102240003163621A61B4D03DFB21F93F2DE9F843B7
:102250005D4EB6460E4076450C46054600F095802C
:1022600000290B46024673DD0F157ED0A7F2FF371B
:10227000C3F31303F80743F4801364D403EBD27160
:1022800000260B447F105200B64616204FF4001172
:102290000EEB01049C424FEAD2754FEA420203DC86
:1022A0001B1B04EB010E0E44013805EB43034FEA00
:1022B0005101EDD1844620244FF0004109E020D0A7
:1022C00003EBD275013C4FEA51012B444FEA420225
:1022D00020D09E4501EB0C05F1DA002D05EB010C39
:1022E00009DBF0469542CEEB030300D9013B521BBC
:1022F0000844C646E4E7BCF1000FF2DB0EF101082A
:10230000F0E7954217D8002D05EB010C47DB984606
:102310000023ECE7134310D14008731003F17F53FF
:1023200003F50013F20703EB075948BF40F00040E4
:102330004946BDE8F8837346C2E7411C33D000F03C
:1023400001031844E8E75B0003EBD273520095E702
:1023500021F000460643ECD069BB0F46D30A153F77
:102360005205002BFAD0DD0220D4002100E0014606
:102370005B00DC0201F10100F9D5C0F1200422FA72
:1023800004F423437F1A824070E702460B4601F0B3
:10239000C5F82A46234600F00FFFBDE8F883BCF1DC
:1023A000000FABDAB3E701362046B6E720244FF042
:1023B000FF310020E3E702460B4600F0FBFE024639
:1023C0000B4601F0D5F9B4E70000F07F00000000F3
:1023D0002DE9F04F21F00046B6F1795F85B00C464B
:1023E00092469B4605466BDA01F048FB002800F058
:1023F000E8802A4623462846214601F08FF874A338
:10240000D3E900238046894601F088F872A3D3E916
:10241000002300F0D1FE42464B4601F07FF870A346
:10242000D3E9002300F0C6FE42464B4601F076F8A1
:102430006DA3D3E9002300F0BFFE42464B4601F0F6
:102440006DF86BA3D3E9002300F0B4FE42464B467F
:1024500001F064F868A3D3E9002300F0ADFE424622
:102460004B4601F05BF8CDE900010022644B404689
:10247000494601F053F8DDE9002306460F46404681
:10248000494601F04BF85246804689465B4628464D
:10249000214601F043F802460B464046494600F00B
:1024A00089FE02460B463046394600F083FE02465E
:1024B0000B460020534900F07DFE05B0BDE8F08FCB
:1024C00002460B4601F02AF841A3D3E900238046D7
:1024D000894601F023F840A3D3E9002300F06CFE05
:1024E00042464B4601F01AF83DA3D3E9002300F021
:1024F00061FE42464B4601F011F83BA3D3E90023AD
:1025000000F05AFE42464B4601F008F838A3D3E9E2
:10251000002300F04FFE42464B4600F0FFFF36A37B
:10252000D3E9002300F048FE4B46424600F0F6FF98
:10253000354B9E42CDE9000197DD344B9E424FF072
:10254000000238DCA6F5001300202E4916461F466F
:1025500000F030FECDE902010022294B40464946F9
:1025600000F0DCFF32463B4600F024FEDDE90023AC
:1025700006460F464046494600F0D0FF5246804688
:1025800089465B462846214600F0C8FF02460B46B6
:102590004046494600F00EFE02460B46304639469C
:1025A00000F008FE02460B46DDE9020100F002FEE3
:1025B00005B0BDE8F08F164B164FCDE9022300267B
:1025C000CAE71049002005B0BDE8F08FAFF30080E6
:1025D000D43888BEE9FAA8BDC4B1B4BD9EEE213E90
:1025E000AD529C804F7E923E9015CB19A001FA3ED1
:1025F0007751C1166CC1563F4C5555555555A53FA1
:102600000000E03F0000F03F3233D33F0000E93FDD
:102610000000E73F0000D23F2DE9F04FADF51D7DF2
:10262000794CA69E794D54F8264009942646D41E2E
:1026300085FB0475E417C4EBA50424EAE4741D4685
:102640000C93631CA3EB8303013D02EBC3030893CC
:102650002B460D940295651BF41804900A9116D42C
:102660002C44013422AEA79F08E057F8250000F063
:10267000EFFE0135A542E6E9020108D0002DF4DAAB
:10268000013500200021A542E6E90201F6D1099BAF
:10269000002B31DB099A0C9B74A901EBC20BC3EB35
:1026A0004373029A24A9DB0001EBC20901930DF5E3
:1026B000E47A029B002BC0F29081049BA3F10805F1
:1026C000019B4C4609EB030800260027F5E902238D
:1026D00074E8020100F022FF02460B4630463946FC
:1026E00000F06AFD444506460F46EFD1EAE902676D
:1026F000DA4509F10809DCD1099D05F18043023B67
:102700009B001A1D10A90A440B440F920E939CAB18
:1027100003EBC503002D53E928672BDD9CAB03EBCE
:10272000C504A83C0DF13C0A0DF5E47B0022384BB2
:102730003046394600F0F2FE01F0A0F900F088FEC4
:102740000022344B8046894600F0E8FE02460B46E4
:102750003046394600F02EFD01F090F974E802236E
:102760004AF8040F4946404600F026FD5C450646FF
:102770000F46DBD1089C30463946224600F090FCDB
:1027800000224FF07F5306460F4600F0C7FE00F0D0
:10279000FBFB0022204B00F0C1FE02460B463046F8
:1027A000394600F007FD0F46064601F067F98146FD
:1027B00000F04EFE02460B463046394600F0FAFC69
:1027C000002C06460F4640F3EF80691E10AAC4F1A4
:1027D000180352F8212042FA03F000FA03F3D31A47
:1027E00010AAC4F1170842F82130814443FA08F8CE
:1027F000B8F1000F3DDD002D09F1010940F3D6824B
:10280000002214460FA911E0FC420008ABAAAA2A34
:102810000000703E0000704100002040C3F1807055
:102820000BB108600124013295420DDD51F8043FDF
:10283000002CF3D0C3F1FF13013203F57F4395421F
:102840000B604FF00104F1DC089B002B0DDD012B28
:1028500000F0B280022B08D16A1E10AB10A953F809
:102860002230C3F3150341F82230B8F1020F00F013
:102870008280002200233046394601F0B7F8002854
:1028800000F05E82099B05F1FF3B5B4510DC05F122
:10289000804310AA013B0F9802EB8303002253F8F8
:1028A0000419834242EA0102F9D1002A40F0B280C1
:1028B000099B10AA013B52F82330002B40F0748290
:1028C0000E9A012352F8041901330029FAD0E918AD
:1028D0006A1C8A420B9149DC0D990C985118DB0057
:1028E00001F180410593A79B05440139E80003EB02
:1028F000810A24ABD20003EB000B74AB13440193A9
:10290000A2F10803069007934FF000095AF8040F4C
:1029100000F09EFD029B002BEBE8020128DB069BEA
:1029200003EB0904079B09EB030824AB1C44984400
:10293000049B0026A3F108050027F5E9022374E8AB
:10294000020100F0EBFD02460B463046394600F02E
:1029500033FC444506460F46EFD1019BE3E802678E
:102960000193059B09F108099945CFD10B9DCEE64E
:1029700000260027F1E732463B460020B04900F030
:1029800019FC06460F46002C3FF473AF089AAC4979
:10299000002000F085FB02460B463046394600F029
:1029A00009FC06460F4664E710D16B1E10AA52F8C8
:1029B00023304FEAE3581BE76A1E10AB10A953F807
:1029C0002230C3F3160341F822304EE700229D4B1C
:1029D00001F02AF858B980464BE700260027EAE9BB
:1029E0000267DA4509F108097FF463AE84E6002D39
:1029F00009F10109C8BF4FF002083FF701AF3246A5
:102A00003B4600208E4900F0D5FB4FF002080646F9
:102A10000F462EE710AB089A53F82B30CDF81490E0
:102A2000183ACDF8048008926BB90BF18043013B52
:102A300010A901EB830353F804190BF1FF3B183A7B
:102A40000029F8D00892089A7D49002000F028FB60
:102A5000BBF1000F04460D46C0F2B8814FEACB032C
:102A60000DF5E87810AA02EB8B0608EB0309049336
:102A7000043609F1080756F8040D00F0E9FC224677
:102A80002B4600F04BFD002267E902016E4B204609
:102A9000294600F043FDB84504460D46EBD10DF53F
:102AA000987A4B46CDF808A0DDF824A0CDF818B0F0
:102AB0004FF000099B46BAF1000FC0F22A81DFF8FF
:102AC0008C815D465CA3D3E9002300260027002407
:102AD00003E0A14510DBF8E90223F5E8020100F06C
:102AE0001DFD02460B463046394600F065FB0134B9
:102AF000A24506460F46ECDA029B03EBC903ABF195
:102B0000080BC3E9006772AB5B4509F10109D2D13B
:102B1000A69BDDF818B0DDF808A0032B00F2838037
:102B2000DFE813F0D500960096000400BBF1000F1B
:102B300040F35681049BCDF808B00AEB0308D8E9AE
:102B40000067D34658E9029A32463B46484651460A
:102B500000F032FB04460D4602460B4648465146FD
:102B600000F028FB32463B4600F026FBC8E9000196
:102B700068E90245C34526462F46E3D1DA46DDF82B
:102B800008B0BBF1010F40F32B81049B5344D3E900
:102B90000067984699460DF59C7B59E9023430460A
:102BA000CDE902341A463946234600F005FB0446B7
:102BB0000D4602460B46DDE9020100F0FBFA324603
:102BC0003B4600F0F9FAC9E9000169E90245CB4545
:102BD00026462F46E1D1002308F108081D4650ACD7
:102BE0001846294678E9022300F0E6FA44450346F0
:102BF0000D46F5D1019A002A00F0DA800A9FDAF832
:102C00000440DAF80C20DAF80010DAF808003B612A
:102C100005F1004504F1004402F100437D617C6050
:102C2000FB603960B860059B03F007000DF51D7D62
:102C3000BDE8F08FAFF3008000000040FB21F93FBA
:102C40000000F03F0000E03F0000703E104300082D
:102C5000049C00260834544433463046194674E92F
:102C6000022300F0A9FA544506460B46F5D1019A15
:102C700030461946002A4FD00A9803F100443246E4
:102C800044600660DAE9000100F094FABBF1000F3D
:102C900002460B460DDD012410461946FAE90223CF
:102CA00000F08AFA0134A34502460B46F4DA019992
:102CB00009B103F1004319460A9B1046C3E902011A
:102CC000059B03F007000DF51D7DBDE8F08F049B0B
:102CD000002208339A441346104619467AE9022323
:102CE00000F06AFA0BF1FF3BBBF1FF3F02460B46D7
:102CF000F2D1019909B103F1004319460A9B10462C
:102D0000C3E90001059B03F007000DF51D7DBDE83B
:102D1000F08F00260027EFE60A9B3246C3E9000148
:102D20000B46DAE9000100F045FABBF1000F02465C
:102D30000B46B0DC19460A9B1046C3E90201BFE707
:102D4000089BCDF814905A4230463946CDF804809D
:102D500000F0A6F900222C4B06460F4600F064FE58
:102D6000002840D00022294B3046394600F0D6FBDF
:102D700000F084FE044600F06BFB0022224B00F0C2
:102D8000CDFB0B4602463946304600F013FA00F000
:102D900075FE089B183305F1010B089310AB43F83F
:102DA000250043F82B404EE6012390E500244BE537
:102DB00018462946DAE90023DAE902450A9FC7E9FD
:102DC0000401C7E90023C7E902452CE7A69B032BB2
:102DD0003FF629AFDFE803F0151010020DF5987AE1
:102DE00000231D4606E73046394600F047FE10AB8B
:102DF000AB4643F8250026E6002633460DF5987AC3
:102E000035E70022134674E7000070410000703E71
:102E10002DE9F04F21F00046B6F1795F85B00C4600
:102E200090469946054604DA00F028FE002800F096
:102E300085802A4623462846214600F06FFB064639
:102E40000F4602460B462846214600F067FB3EA38C
:102E5000D3E9002382468B463046394600F05EFBBC
:102E60003BA3D3E9002300F0A5F932463B4600F02E
:102E700055FB39A3D3E9002300F09EF932463B46C7
:102E800000F04CFB36A3D3E9002300F093F932465F
:102E90003B4600F043FB34A3D3E9002300F08CF958
:102EA0000E9BCDE900019BB30022334B40464946BF
:102EB00000F034FBDDE90023CDE90201504659461C
:102EC00000F02CFB02460B46DDE9020100F072F92E
:102ED00032463B4600F022FB42464B4600F06AF980
:102EE00023A3D3E9002306460F465046594600F077
:102EF00015FB02460B463046394600F05DF90246A6
:102F00000B462846214600F055F905B0BDE8F08F84
:102F100002460B463046394600F000FB14A3D3E9C5
:102F2000002300F047F952465B4600F0F7FA2A46C4
:102F3000234600F041F905B0BDE8F08F2846214650
:102F400005B0BDE8F08F00BF7CD5CF5A3AD9E53D3A
:102F5000EB9C2B8AE6E55A3E7DFEB157E31DC73E4A
:102F6000D561C119A0012A3FA6F810111111813FA6
:102F7000495555555555C53F0000E03F21F00041EA
:102F8000704700BF00000000C1F30A522DE9F8436A
:102F9000A2F2FF36132E0B460D460446884607461E
:102FA0001CDC002E3FDB3A4A42FA06F901EA09022C
:102FB0000243864617D034A3D3E9002300F0FCF87F
:102FC0000022002300F03AFD20B1002D40DB28EA6A
:102FD0000905002738462946BDE8F883332E06DD6B
:102FE000B6F5806F2FD020461946BDE8F883A2F2CF
:102FF00013424FF0FF3929FA02F910EA090FF2D013
:1030000021A3D3E9002300F0D7F80022002300F029
:1030100015FD0028DED0002D20DB454627EA0907F4
:1030200038462946D8E718A3D3E9002300F0C4F8AE
:103030000022002300F002FD0028CBD0002D18DB79
:1030400000273D46C6E702460B4600F0B5F8CCE740
:103050004FF4801343FA06F6B044B8E7142E10D0AC
:103060000123C6F1340603FA06F6371928BF98443F
:10307000D3E725F00042074B224318BF1D46002727
:10308000A8E705F10108C8E79C7500883CE4377E95
:10309000FFFF0F000000F0BF00207047000000009D
:1030A000F8B5C1F30A5604460D460B46174606BB53
:1030B00021F00043034325D00022354B00F02EFAC7
:1030C000344A974204460D460B462ADBC1F30A56A2
:1030D000363E3E4440F2FE72964228DC002E12DD5F
:1030E00023F0FF4323F4E00343EA06552046294634
:1030F000F8BD40F2FF729642EBD102460B4600F05B
:103100005BF8F8BDF8BD16F1350F1DDA4CF25033FF
:103110009F4222462B4625DC19A1D1E9000100F08F
:103120003DF817A3D3E9002300F0F8F9F8BD2246D3
:103130002B4615A1D1E9000100F030F812A3D3E924
:10314000002300F0EBF9F8BD23F0FF4323F4E00384
:10315000363643EA06552046294600220E4B00F03B
:10316000DDF9F8BD08A1D1E9000100F017F806A3C8
:10317000D3E9002300F0D2F9F8BD00BFAFF300801F
:1031800059F3F8C21F6EA5019C7500883CE4377E98
:1031900000005043B03CFFFF0000903C03F00043B0
:1031A00021F0004242EA0301704700BF81F0004174
:1031B00002E000BF83F0004330B54FEA41044FEA1C
:1031C000430594EA050F08BF90EA020F1FBF54EAB7
:1031D000000C55EA020C7FEA645C7FEA655C00F053
:1031E000E2804FEA5454D4EB5555B8BF6D420CDD24
:1031F0002C4480EA020281EA030382EA000083EAA7
:10320000010180EA020281EA0303362D88BF30BD46
:1032100011F0004F4FEA01314FF4801C4CEA11319C
:1032200002D0404261EB410113F0004F4FEA0333FB
:103230004CEA133302D0524263EB430394EA050F86
:1032400000F0A780A4F10104D5F1200E0DDB02FAF5
:103250000EFC22FA05F2801841F1000103FA0EF289
:10326000801843FA05F359410EE0A5F120050EF14F
:10327000200E012A03FA0EFC28BF4CF0020C43FA80
:1032800005F3C01851EBE37101F0004507D54FF08D
:10329000000EDCF1000C7EEB00006EEB0101B1F5DD
:1032A000801F1BD3B1F5001F0CD349085FEA300023
:1032B0004FEA3C0C04F101044FEA445212F5800F2E
:1032C00080F09A80BCF1004F08BF5FEA500C50F1CB
:1032D000000041EB045141EA050130BD5FEA4C0CAE
:1032E000404141EB010111F4801FA4F10104E9D137
:1032F00091F0000F04BF01460020B1FA81F308BF2E
:103300002033A3F10B03B3F120020CDA0C3208DDF9
:1033100002F1140CC2F10C0201FA0CF021FA02F1D4
:103320000CE002F11402D8BFC2F1200C01FA02F144
:1033300020FA0CFCDCBF41EA0C019040E41AA2BF69
:1033400001EB0451294330BD6FEA04041F3C1CDA31
:103350000C340EDC04F11404C4F1200220FA04F051
:1033600001FA02F340EA030021FA04F345EA0301FB
:1033700030BDC4F10C04C4F1200220FA02F001FABD
:1033800004F340EA0300294630BD21FA04F029463F
:1033900030BD94F0000F83F4801306BF81F48011D8
:1033A0000134013D4EE77FEA645C18BF7FEA655C4B
:1033B00029D094EA050F08BF90EA020F05D054EA1D
:1033C000000C04BF1946104630BD91EA030F1EBF22
:1033D0000021002030BD5FEA545C05D14000494126
:1033E00028BF41F0004130BD14F580043CBF01F519
:1033F000801130BD01F0004545F0FE4141F47001FF
:103400004FF0000030BD7FEA645C1ABF19461046D9
:103410007FEA655C1CBF0B46024650EA013406BFDA
:1034200052EA033591EA030F41F4002130BD00BF99
:1034300090F0000F04BF0021704730B54FF4806456
:1034400004F132044FF000054FF0000150E700BFD7
:1034500090F0000F04BF0021704730B54FF4806436
:1034600004F1320410F0004548BF40424FF0000123
:103470003EE700BF42004FEAE2014FEA31014FEA66
:1034800002701FBF12F07F4393F07F4F81F06051B5
:10349000704792F0000F14BF93F07F4F704730B524
:1034A0004FF4607401F0004521F0004120E700BFB7
:1034B00050EA010208BF704730B54FF000050AE03E
:1034C00050EA010208BF704730B511F0004502D53F
:1034D000404261EB41014FF4806404F132045FEA41
:1034E000915C3FF4DCAE4FF003025FEADC0C18BFE6
:1034F00003325FEADC0C18BF033202EBDC02C2F1DC
:10350000200300FA03FC20FA02F001FA03FE40EA6D
:103510000E0021FA02F11444C1E600BF70B54FF06D
:10352000FF0C4CF4E06C1CEA11541DBF1CEA13554F
:1035300094EA0C0F95EA0C0F00F0DEF82C4481EAB7
:10354000030621EA4C5123EA4C5350EA013518BFD7
:1035500052EA033541F4801143F4801338D0A0FBC4
:1035600002CE4FF00005E1FB02E506F00042E0FB71
:1035700003E54FF00006E1FB03569CF0000F18BF77
:103580004EF0010EA4F1FF04B6F5007F64F540741F
:1035900004D25FEA4E0E6D4146EB060642EAC621B2
:1035A00041EA55514FEAC52040EA5E504FEACE2E1F
:1035B000B4F1FD0C88BFBCF5E06F1ED8BEF1004F22
:1035C00008BF5FEA500E50F1000041EB045170BD9E
:1035D00006F0004646EA010140EA020081EA0301E2
:1035E000B4EB5C04C2BFD4EB0C0541EA045170BDDE
:1035F00041F480114FF0000E013C00F3AB8014F158
:10360000360FDEBF002001F0004170BDC4F10004A0
:10361000203C35DA0C341BDC04F11404C4F1200521
:1036200000FA05F320FA04F001FA05F240EA02007C
:1036300001F0004221F0004110EBD37021FA04F6B2
:1036400042EB06015EEA430E08BF20EAD37070BD6C
:10365000C4F10C04C4F1200500FA04F320FA05F0CB
:1036600001FA04F240EA020001F0004110EBD370CD
:1036700041F100015EEA430E08BF20EAD37070BD3D
:10368000C4F1200500FA05F24EEA020E20FA04F316
:1036900001FA05F243EA020321FA04F001F00041C5
:1036A00021FA04F220EA020000EBD3705EEA430E36
:1036B00008BF20EAD37070BD94F0000F0FD101F065
:1036C0000046400041EB010111F4801F08BF013C9E
:1036D000F7D041EA060195F0000F18BF704703F0DC
:1036E0000046520043EB030313F4801F08BF013D63
:1036F000F7D043EA0603704794EA0C0F0CEA13551F
:1037000018BF95EA0C0F0CD050EA410618BF52EAD8
:103710004306D1D181EA030101F000414FF00000DE
:1037200070BD50EA410606BF1046194652EA4306EC
:1037300019D094EA0C0F02D150EA013613D195EA60
:103740000C0F05D152EA03361CBF104619460AD1A8
:1037500081EA030101F0004141F0FE4141F47001B2
:103760004FF0000070BD41F0FE4141F4780170BDA2
:1037700070B54FF0FF0C4CF4E06C1CEA11541DBF07
:103780001CEA135594EA0C0F95EA0C0F00F0A7F809
:10379000A4EB050481EA030E52EA03354FEA013136
:1037A00000F088804FEA03334FF0805545EA131349
:1037B00043EA12634FEA022245EA111545EA106511
:1037C0004FEA00260EF000419D4208BF964244F1A8
:1037D000FD0404F5407402D25B084FEA3202B61AC7
:1037E00065EB03055B084FEA32024FF480104FF49B
:1037F000002CB6EB020E75EB030E22BFB61A75460F
:1038000040EA0C005B084FEA3202B6EB020E75EBA1
:10381000030E22BFB61A754640EA5C005B084FEA09
:103820003202B6EB020E75EB030E22BFB61A7546D6
:1038300040EA9C005B084FEA3202B6EB020E75EBE1
:10384000030E22BFB61A754640EADC0055EA060EA2
:1038500018D04FEA051545EA16754FEA06164FEAE5
:10386000C30343EA52734FEAC2025FEA1C1CC0D191
:1038700011F4801F0BD141EA00014FF000004FF01E
:10388000004CB6E711F4801F04BF01430020B4F1DF
:10389000FD0C88BFBCF5E06F3FF6AFAEB5EB030C97
:1038A00004BFB6EB020C5FEA500C50F1000041EB94
:1038B000045170BD0EF0004E4EEA113114EB5C0461
:1038C000C2BFD4EB0C0541EA045170BD41F4801134
:1038D0004FF0000E013C90E645EA060E8DE60CEA3C
:1038E000135594EA0C0F08BF95EA0C0F3FF43BAF59
:1038F00094EA0C0F0AD150EA01347FF434AF95EA10
:103900000C0F7FF425AF104619462CE795EA0C0FF3
:1039100006D152EA03353FF4FDAE1046194622E7C0
:1039200050EA410618BF52EA43067FF4C5AE50EA9A
:1039300041047FF40DAF52EA43057FF4EBAE12E78A
:103940004FF0FF3C06E000BF4FF0010C02E000BF6B
:103950004FF0010C4DF804CD4FEA410C7FEA6C5C4E
:103960004FEA430C18BF7FEA6C5C1BD001B050EAF1
:10397000410C0CBF52EA430C91EA030F02BF90EADC
:10398000020F0020704710F1000F91EA030F58BF9B
:10399000994208BF90422CBFD8176FEAE37040F0FD
:1039A000010070474FEA410C7FEA6C5C02D150EA9B
:1039B000013C07D14FEA430C7FEA6C5CD6D152EA56
:1039C000033CD3D05DF8040B704700BF844610461B
:1039D00062468C461946634600E000BF01B5FFF71A
:1039E000B7FF002848BF10F1000F01BD4DF808EDEA
:1039F000FFF7F4FF0CBF012000205DF808FB00BFBB
:103A00004DF808EDFFF7EAFF34BF012000205DF814
:103A100008FB00BF4DF808EDFFF7E0FF94BF012061
:103A200000205DF808FB00BF4DF808EDFFF7CEFF62
:103A300094BF012000205DF808FB00BF4DF808EDA1
:103A4000FFF7C4FF34BF012000205DF808FB00BF72
:103A50004FEA410C7FEA6C5C02D150EA013C0AD18A
:103A60004FEA430C7FEA6C5C02D152EA033C02D17C
:103A70004FF0000070474FF0010070474FEA4102DD
:103A800012F5001215D211D56FF47873B3EB6252B0
:103A900012D94FEAC12343F0004343EA505311F0D7
:103AA000004F23FA02F018BF404270474FF0000069
:103AB000704750EA013005D111F0004008BF6FF0A7
:103AC000004070474FF00000704700BF4FEA4102CE
:103AD000B2F1E04324BFB3F5001CDCF1FE5C0DD96C
:103AE00001F0004C4FEAC0024CEA5070B2F1004FB6
:103AF00040EB830008BF20F00100704711F0804FB9
:103B000021D113F13872BCBF01F00040704741F47D
:103B100080114FEA5252C2F11802C2F1200C10FA81
:103B20000CF320FA02F018BF40F001004FEAC12365
:103B30004FEAD32303FA0CFC40EA0C0023FA02F309
:103B40004FEA4303CCE77FEA625307D150EA0133DF
:103B50001EBF4FF0FE4040F44000704701F00040AF
:103B600040F0FE4040F40000704700BF80F000408D
:103B700002E000BF81F0004142001FBF5FEA410345
:103B800092EA030F7FEA226C7FEA236C6AD04FEA45
:103B90001262D2EB1363C1BFD2184140484041408A
:103BA000B8BF5B42192B88BF704710F0004F40F43C
:103BB000000020F07F4018BF404211F0004F41F458
:103BC000000121F07F4118BF494292EA030F3FD024
:103BD000A2F1010241FA03FC10EB0C00C3F1200337
:103BE00001FA03F100F0004302D5494260EB4000C6
:103BF000B0F5000F13D3B0F1807F06D340084FEA31
:103C0000310102F10102FE2A51D2B1F1004F40EB25
:103C1000C25008BF20F0010040EA0300704749008D
:103C200040EB000010F4000FA2F10102EDD1B0FA58
:103C300080FCACF1080CB2EB0C0200FA0CF0AABF4D
:103C400000EBC25052421843BCBFD04018437047EB
:103C500092F0000F81F4000106BF80F400000132F1
:103C6000013BB5E74FEA41037FEA226C18BF7FEAC8
:103C7000236C21D092EA030F04D092F0000F08BF0A
:103C80000846704790EA010F1CBF0020704712F0F1
:103C90007F4F04D1400028BF40F00040704712F130
:103CA00000723CBF00F50000704700F0004343F095
:103CB000FE4040F4000070477FEA226216BF0846CB
:103CC0007FEA23630146420206BF5FEA412390EA8E
:103CD000010F40F4800070474FF0000304E000BF84
:103CE00010F0004348BF40425FEA000C08BF704735
:103CF00043F0964301464FF000001CE050EA0102F9
:103D000008BF70474FF000030AE000BF50EA01020D
:103D100008BF704711F0004302D5404261EB4101FA
:103D20005FEA010C02BF84460146002043F0B6431F
:103D300008BFA3F18053A3F50003BCFA8CF2083A44
:103D4000A3EBC25310DB01FA02FC634400FA02FC4D
:103D5000C2F12002BCF1004F20FA02F243EB020054
:103D600008BF20F00100704702F1200201FA02FCB6
:103D7000C2F1200250EA4C0021FA02F243EB0200A9
:103D800008BF20EADC7070474FF0FF0C1CEAD052ED
:103D90001EBF1CEAD15392EA0C0F93EA0C0F6FD0AE
:103DA0001A4480EA010C400218BF5FEA41211ED08C
:103DB0004FF0006343EA501043EA5111A0FB013178
:103DC0000CF00040B1F5000F3EBF490041EAD3714D
:103DD0005B0040EA010062F17F02FD2A1DD8B3F1C9
:103DE000004F40EBC25008BF20F00100704790F038
:103DF000000F0CF0004C08BF49024CEA502040EA8A
:103E000051207F3AC2BFD2F1FF0340EAC25070474F
:103E100040F400004FF00003013A5DDC12F1190F8D
:103E2000DCBF00F000407047C2F10002410021FAFF
:103E300002F1C2F1200200FA02FC5FEA310040F117
:103E4000000053EA4C0308BF20EADC70704792F090
:103E5000000F00F0004C02BF400010F4000F013AC8
:103E6000F9D040EA0C0093F0000F01F0004C02BFC3
:103E7000490011F4000F013BF9D041EA0C018FE732
:103E80000CEAD15392EA0C0F18BF93EA0C0F0AD038
:103E900030F0004C18BF31F0004CD8D180EA01005E
:103EA00000F00040704790F0000F17BF90F0004FF7
:103EB000084691F0000F91F0004F14D092EA0C0FD9
:103EC00001D142020FD193EA0C0F03D14B0218BF6C
:103ED000084608D180EA010000F0004040F0FE40B2
:103EE00040F40000704740F0FE4040F4400070474E
:103EF0004FF0FF0C1CEAD0521EBF1CEAD15392EACD
:103F00000C0F93EA0C0F69D0A2EB030280EA010CBC
:103F100049024FEA402037D04FF0805343EA111155
:103F200043EA10130CF000408B4238BF5B0042F1B3
:103F30007D024FF4000C8B4224BF5B1A40EA0C0058
:103F4000B3EB510F24BFA3EB510340EA5C00B3EB8A
:103F5000910F24BFA3EB910340EA9C00B3EBD10F78
:103F600024BFA3EBD10340EADC001B0118BF5FEACA
:103F70001C1CE0D1FD2A3FF650AF8B4240EBC250F3
:103F800008BF20F0010070470CF0004C4CEA5020B4
:103F90007F32C2BFD2F1FF0340EAC250704740F403
:103FA00000004FF00003013A37E792F0000F00F0F5
:103FB000004C02BF400010F4000F013AF9D040EA73
:103FC0000C0093F0000F01F0004C02BF490011F407
:103FD000000F013BF9D041EA0C0195E70CEAD153FF
:103FE00092EA0C0F08D142027FF47DAF93EA0C0FE6
:103FF0007FF470AF084676E793EA0C0F04D14B02CA
:104000003FF44CAF08466EE730F0004C18BF31F07B
:10401000004CCAD130F000427FF45CAF31F0004375
:104020007FF43CAF5FE700BF4FF0FF3C06E000BF0E
:104030004FF0010C02E000BF4FF0010C4DF804CD31
:104040004FEA40024FEA41037FEA226C18BF7FEA41
:10405000236C11D001B052EA530C18BF90EA010F43
:1040600058BFB2EB030088BFC81738BF6FEAE170D2
:1040700018BF40F0010070477FEA226C02D15FEA6E
:10408000402C05D17FEA236CE4D15FEA412CE1D0DA
:104090005DF8040B704700BF844608466146FFE7A1
:1040A0000FB5FFF7C9FF002848BF10F1000F0FBD83
:1040B0004DF808EDFFF7F4FF0CBF012000205DF87C
:1040C00008FB00BF4DF808EDFFF7EAFF34BF012001
:1040D00000205DF808FB00BF4DF808EDFFF7E0FF9A
:1040E00094BF012000205DF808FB00BF4DF808EDEB
:1040F000FFF7D2FF94BF012000205DF808FB00BF4E
:104100004DF808EDFFF7C8FF34BF012000205DF82F
:1041100008FB00BF4FEA4002B2F1FE4F0FD34FF051
:104120009E03B3EB12620DD94FEA002343F0004324
:1041300010F0004F23FA02F018BF404270474FF0D2
:104140000000704712F1610F01D1420205D110F059
:10415000004008BF6FF0004070474FF0000070470C
:10416000014B1868704700BF3004002073717274EF
:1041700000000000FB21F93FFB2109407CD91240DF
:10418000FB2119407A6A1F407CD92240BBFD2540A3
:10419000FB2129403A462C407A6A2F405C47314047
:1041A0007CD932409C6B3440BBFD3540DB8F3740BF
:1041B000FB2139401BB43A403A463C405AD83D4076
:1041C0007A6A3F404C7E40405C4741406C10424020
:1041D0007CD942408CA243409C6B4440AC34454067
:1041E000BBFD4540CBC64640DB8F4740EB584840BF
:1041F000FB21494083F9A200444E6E00FC291500C2
:10420000D1572700DD34F50062DBC0003C999500F2
:10421000419043006351FE00BBDEAB00B761C500B7
:104220003A6E2400D24D42004906E00009EA2E0011
:104230001C92D100EB1DFE0029B11C00E83EA70036
:10424000F535820044BB2E009CE98400B426700042
:10425000417E5F00D6913900538339009CF43900C8
:104260008B5F840028F9BD00F81F3B00DEFF97003C
:104270000F980500112FEF000A5A8B006D1F6D007B
:10428000CF7E360009CB2700464FB7009E663F0021
:104290002DEA5F00BA277500E5EBC7003D7BF10012
:1042A000F739070092528A00FB6BEA001FB15F00EA
:1042B000085D8D00300356007BFC4600F0AB6B00C0
:1042C00020BCCF0036F49A00E3A91D005E61910086
:1042D000081BE60085996500A0145F008D4068000A
:1042E00080D8FF0027734D0006063100CA5615001E
:1042F000C9A873007BE260006B8CC0000200000064
:1043000003000000040000000600000000000000A0
:1043100000000040FB21F93F000000002D44743EE6
:10432000000000809846F83C0000006051CC783BCB
:1043300000000080831BF0390000004020257A38FF
:10434000000000802282E336000000001DF3693582
:044350004300000026
:10435400010000000000000000000000F402002042
:104364005C030020C40300200000000000000000E3
:104374000000000000000000000000000000000039
:10438400000000000000000000000000504300088E
:104394000000000000000000000000000000000019
:1043A4000000000000000000000000000000000009
:1043B40000000000000000000000000000000000F9
:1043C40000000000000000000000000000000000E9
:1043D40000000000000000000000000000000000D9
:1043E40000000000000000000000000000000000C9
:1043F40000000000000000000000000000000000B9
:1044040001000000000000000E33CDAB34126DE655
:10441400ECDE05000B0000000000000000000000BE
:104424000000000000000000000000000000000088
:104434000000000000000000000000000000000078
:104444000000000000000000000000000000000068
:104454000000000000000000000000000000000058
:044784000800002009
:0400000508000000EF
:00000001FF
