:020000040800F2
:100000003439012089010008E5010008E5010008F4
:10001000E5010008E5010008E50100080000000016
:10002000000000000000000000000000E5010008E2
:10003000E501000800000000E5010008E5010008F6
:10004000E5010008E5010008E5010008E5010008F8
:10005000E5010008E5010008E5010008E5010008E8
:10006000E5010008E5010008E5010008E5010008D8
:10007000E5010008E5010008E5010008E5010008C8
:10008000E5010008E5010008E5010008E5010008B8
:10009000E5010008E5010008E5010008E5010008A8
:1000A000E5010008E5010008E5010008E501000898
:1000B000C90D0008E5010008E5010008E501000898
:1000C000E5010008E5010008E5010008E501000878
:1000D000E5010008E5010008E5010008E501000868
:1000E000E5010008E5010008E5010008E501000858
:1000F000E5010008E5010008E5010008E501000848
:10010000E5010008E5010008E5010008E501000837
:10011000E5010008E5010008E5010008E501000827
:10012000E5010008E5010008E5010008E501000817
:10013000E5010008E5010008E5010008E501000807
:10014000E5010008E5010008E5010008E5010008F7
:10015000850E0008E5010008E5010008E50100083A
:10016000E5010008E5010008E5010008E5010008D7
:10017000E5010008E5010008E5010008E5010008C7
:10018000E5010008E501000880B582B000AF104B22
:100190007B60104B3B6007E03B681A1D3A607A6851
:1001A000111D796012681A603B680B4A9342F3D3C1
:1001B0000A480B494FF000028842B8BF40F8042BB0
:1001C000FADB00F013F800BF0837BD4680BD00BF62
:1001D00044320008000000203404002034040020D1
:1001E0003831012080B400AFFEE700BF80B582B097
:1001F00002AF00F073F900F01BFC002000F058FC87
:100200000A220A210A2000F075FC00F0C1FE03203A
:1002100000F0CEFEE02000F0DBFE002000F048FC05
:1002200001231E226421322000F0F6FE1C2000F083
:10023000CFFEFC2000F0CCFE0123009364231422A7
:100240009621962001F0CEF9E32000F0C1FE0123B3
:10025000094A6421642001F0F1F81C2000F0A8FE96
:100260001F2000F0B5FE0123009364236422322195
:10027000C82000F0D3FFFEE70000204280B483B026
:1002800000AF78600B46FB70FB78002B06D0094965
:10029000084B1A6B7B6813430B6306E00549054B5B
:1002A0001A6B7B68DB4313400B6300BF0C37BD4602
:1002B00080BC70470038024080B483B000AF7860E3
:1002C0000B46FB70FB78002B06D00949084B1A6CD3
:1002D0007B6813430B6406E00549054B1A6C7B6889
:1002E000DB4313400B6400BF0C37BD4680BC704736
:1002F0000038024080B483B000AF78600B46FB70DA
:10030000FB78002B06D00949084B5A6C7B681343D5
:100310004B6406E00549054B5A6C7B68DB43134090
:100320004B6400BF0C37BD4680BC704700380240AC
:1003300080B487B000AF7860396000237B61002310
:100340003B610023FB6000237B6176E001227B6937
:1003500002FA03F33B613B681A683B691340FB6098
:10036000FA683B699A4265D17B681A687B695B00D1
:10037000032101FA03F3DB431A407B681A607B68B0
:100380001A683B681B7919467B695B0001FA03F325
:100390001A437B681A603B681B79012B03D03B68CA
:1003A0001B79022B2ED17B689A687B695B00032145
:1003B00001FA03F3DB431A407B689A607B689A6812
:1003C0003B685B7919467B695B0001FA03F31A43CA
:1003D0007B689A607B685A687B699BB2012101FA4D
:1003E00003F3DB431A407B685A607B685A683B68BA
:1003F0009B7919467B699BB201FA03F39BB21A43BE
:100400007B685A607B68DA687B699BB25B0003217A
:1004100001FA03F3DB431A407B68DA607B68DA6831
:100420003B68DB7919467B695B0001FA03F31A43E9
:100430007B68DA607B6901337B617B690F2B85D92F
:1004400000BF1C37BD4680BC704700BF80B485B07C
:1004500000AF78600B467B8013467B700023FB6007
:100460000023BB607A787B8803F007039B0002FAC5
:1004700003F3FB607B88DB089BB218467B88DB08B4
:100480009BB21A467B68083253F822207B8803F01F
:1004900007039B000F2101FA03F3DB4302EA030188
:1004A0007B6800F1080243F822107B88DB089BB2CE
:1004B0001A467B68083253F82220FB681343BB605E
:1004C0007B88DB089BB21A467B680832B96843F820
:1004D000221000BF1437BD4680BC704780B500AF06
:1004E000124A124B1B6843F0010313600F4B0022AA
:1004F0009A600E4A0D4B1B6823F0847323F48033FB
:1005000013600A4B0A4A5A60084A084B1B6823F4D6
:1005100080231360054B0022DA6000F00DF8054BD4
:100520004FF000629A6000BF80BD00BF00380240FB
:100530001030002400ED00E080B483B000AF002351
:100540007B6000233B60354A344B1B6843F48033A7
:100550001360324B1B6803F400333B607B6801334C
:100560007B603B68002B03D17B68B3F5A06FF0D1B3
:100570002A4B1B6803F40033002B02D001233B609D
:1005800001E000233B603B68012B42D1234A234B0F
:100590001B6C43F080531364214A214B1B6843F4C6
:1005A000804313601D4A1D4B9B6893601B4A1B4B85
:1005B0009B6843F400439360184A184B9B6843F4CC
:1005C000A0539360154B174A5A60144A134B1B688B
:1005D00043F08073136000BF104B1B6803F000737F
:1005E000002BF9D0104B40F205621A600B4A0B4BFE
:1005F0009B6823F003039360084A084B9B6843F011
:100600000203936000BF054B9B6803F00C03082BAB
:10061000F9D100BF0C37BD4680BC7047003802409E
:100620000070004008544007003C024080B483B092
:1006300000AF78607B681B6823F001027B681A605A
:100640007B6800221A607B6800225A607B68002267
:100650009A607B680022DA607B6800221A617B68FE
:1006600021225A617B68454A934203D1444B3D2283
:100670009A607EE07B68434A934204D1404B4FF43A
:1006800074629A6075E07B683F4A934204D13C4BA8
:100690004FF474129A606CE07B683C4A934204D138
:1006A000374B4FF074629A6063E07B68384A93423C
:1006B00003D1334B374ADA605BE07B68364A9342BA
:1006C00003D12F4B354ADA6053E07B68344A9342BA
:1006D00003D12B4B334ADA604BE07B68324A9342BA
:1006E00004D1274B4FF03D52DA6042E07B682F4A3D
:1006F000934203D12E4B3D229A603AE07B682D4A0B
:10070000934204D12A4B4FF474629A6031E07B68C3
:10071000294A934204D1264B4FF474129A6028E080
:100720007B68264A934204D1214B4FF074629A6051
:100730001FE07B68224A934203D11D4B154ADA60C1
:1007400017E07B681F4A934203D1194B134ADA60C2
:100750000FE07B681C4A934203D1154B114ADA60C3
:1007600007E07B68194A934203D1114B4FF03D5289
:10077000DA6000BF0C37BD4680BC70471060024095
:100780000060024028600240406002405860024021
:10079000706002403D00002088600240400F002051
:1007A000A060024000003D20B8600240106402409A
:1007B00000640240286402404064024058640240E1
:1007C0007064024088640240A0640240B864024041
:1007D00080B485B000AF786039600023FB607B682F
:1007E0001B68FB60FA68244B1340FB603B681A6887
:1007F0003B68DB681A433B685B691A433B689B694B
:100800001A433B68DB691A433B681B6A1A433B681F
:100810005B6A1A433B689B6A1A433B685B6B1A43EB
:100820003B689B6B1343FA681343FB607B68FA6871
:100830001A607B685B69FB60FB6823F00703FB6061
:100840003B68DA6A3B681B6B1343FA681343FB602F
:100850007B68FA685A613B681A697B685A603B6832
:100860005A687B689A603B689A687B68DA6000BF68
:100870001437BD4680BC70473F801CF080B483B005
:1008800000AF78600B46FB70FB78002B06D07B68CE
:100890001B6843F001027B681A6005E07B681B68F7
:1008A00023F001027B681A6000BF0C37BD4680BC94
:1008B000704700BF80B485B000AFF860B9601346E0
:1008C000FB71BB6803F08003002B0FD0FB79002B7A
:1008D00006D0FB685B6943F08002FB685A6105E063
:1008E000FB685B6923F08002FB685A61BB68802B60
:1008F00014D0FB79002B08D0FB681A68BB6803F0A2
:100900001E031A43FB681A6008E0FB681A68BB689C
:1009100003F01E03DB431A40FB681A6000BF143764
:10092000BD4680BC704700BF80B487B000AF786020
:1009300039600023FB750023FB600023BB607B68EC
:10094000214A934202D8214B3B6101E0204B3B619D
:100950003B6823F0F02323F0C313002B0AD03B683D
:10096000DB0A03F01E03FB607B681A68FB68134018
:10097000BB6004E07B685B6903F08003BB603B689D
:1009800003F00053002B03D03B695B68FB6002E07F
:100990003B691B68FB60FB6823F0F02323F08213A4
:1009A000FB60FA683B681340002B05D0BB68002B46
:1009B00002D00123FB7501E00023FB75FB7D184687
:1009C0001C37BD4680BC70470F6402400060024087
:1009D0000064024080B485B000AF786039607B6805
:1009E000104A934202D8104BFB6001E00F4BFB60B2
:1009F0003B6803F00053002B07D03B6823F0F02343
:100A000023F08213FA68D36006E03B6823F0F023FA
:100A100023F08213FA68936000BF1437BD4680BC90
:100A2000704700BF0F640240006002400064024053
:100A300080B582B000AF1B4B00221A80194B0022F8
:100A40005A60184B00229A600023BB8017E00023F5
:100A5000FB800DE0BA8813469B0013449B011A44A7
:100A6000FB881344104A0021D154FB880133FB80DA
:100A7000FB88B3F5A07FEDD9BB880133BB80BB8871
:100A8000EF2BE4D900F072F800F0C4F800F054F94C
:100A900000F026F9054B1B68024A936000BF083737
:100AA000BD4680BD38040020440400208864024014
:100AB00080B584B000AF0346FB710023BB8112E018
:100AC0000023FB8108E0FA79B989FB89184600F018
:100AD00011F8FB890133FB81FB89B3F5A07FF2D3C9
:100AE000BB890133BB81BB89EF2BE9D900BF10372C
:100AF000BD4680BD80B483B000AF0346FB800B468B
:100B0000BB801346FB70FB88B3F5A07F0AD3FA883D
:100B1000134BA3FB0213190A0B469B000B449B01CA
:100B2000D31AFB80BB88EF2B0AD9BA880D4BA3FBE5
:100B30000213D9090B461B015B1A1B01D31ABB8098
:100B4000BA8813469B0013449B011A44FB88134444
:100B50000549FA78CA5400BF0C37BD4680BC7047BF
:100B6000CDCCCCCC898888884404002080B582B064
:100B700000AF01211020FFF781FB4FF47F433B6062
:100B800001233B710023BB710123FB7103237B71A4
:100B90003B4619461D48FFF7CBFB1C4B4FF47F42E9
:100BA0005A8301210220FFF769FB4FF400633B6089
:100BB00002233B7103237B710023BB710123FB7173
:100BC0003B4619461248FFF7B3FB01220B211048A0
:100BD000FFF73CFC01210220FFF750FB4FF480534C
:100BE0003B6001233B710023BB710123FB71032395
:100BF0007B713B4619460648FFF79AFB044B4FF4BE
:100C000080521A8300BF0837BD4680BD00100240E5
:100C10000004024080B588B000AF01210120FFF739
:100C200069FB0B23BB610023BB820023BB83002332
:100C3000FB8207F114031946284800F0D7FF012171
:100C40000120FFF739FB40F66B23BB610023BB8219
:100C50000023BB830023FB8207F1140319464FF0E6
:100C6000804000F0C3FF60233B8001237B804FF472
:100C7000D273BB600223BB813B4619464FF08040D4
:100C800001F05EF808214FF0804001F045F9602343
:100C90003B8001237B804FF4A073BB600223BB81A8
:100CA0003B4619464FF0804001F0D0F808214FF044
:100CB000804001F04DF90121084801F001F80121BF
:100CC0004FF0804000F0FCFF01214FF0804001F028
:100CD00017F800BF2037BD4680BD00BF00000140AF
:100CE00080B582B000AF012210211248FFF7E2FD6B
:100CF00044233B7100237B710023BB710123FB71F3
:100D00003B1D184600F0E4F8012208214FF0804016
:100D100001F03CF91C233B7100237B710023BB7164
:100D20000123FB713B1D184600F0D2F800BF0837C5
:100D3000BD4680BD8864024080B590B000AF0121FF
:100D40004FF48000FFF79AFA00211B48FFF796FD49
:100D50001948FFF76BFC4FF040637B60174BBB609B
:100D6000174BFB6040233B6140F241137B61002342
:100D7000BB614FF48063FB6100233B6200237B6215
:100D80000023BB624FF44033FB6200233B6301232B
:100D90007B630023BB630023FB633B1D19460648AE
:100DA000FFF716FD01224FF48071064801F022F989
:100DB00000BF4037BD4680BD886402401510024028
:100DC000440400200000014080B500AF08214FF02E
:100DD000804001F0FFF8264B1B8801339AB2244B68
:100DE0001A80234B1B88B3F5037F05D9204B0022C3
:100DF0001A80204A1E4B5A601D4B1B88012B04D8B9
:100E00001D4B4FF480525A8303E01B4B4FF480522A
:100E10001A83174B1B88232B27D9154B1B8840F2AD
:100E20000222934221D8154A114B9B681360134A42
:100E30000F4B5B68D360124A114B1B889BB243F087
:100E400001039BB213800D4A0C4B1B6843F0010356
:100E50001360074B1B8803F00103002B05D0044BE4
:100E60005B6803F24113024A536000BF80BD00BFBC
:100E7000380400204404002000040240886402403A
:100E80000000014080B500AF0D490E48FFF74CFD52
:100E90000346002B12D00A490A48FFF79BFD0A4A75
:100EA000094B1B889BB223F001039BB21380054BB7
:100EB00000221A60054B4FF47F425A8300BF80BD69
:100EC00000880020886402400000014000100240B9
:100ED00080B485B000AF78600023FB730023BB7340
:100EE0000F237B737B68DB78002B38D0264BDB68C5
:100EF000DB4303F4E0631B0AFB73FB7BC3F10403D6
:100F0000BB737A7BFB7B42FA03F37B737B685B7872
:100F10001A46BB7B02FA03F3FB737B689A787B7BF0
:100F20001340DAB2FB7B1343FB73FB7B1B01FB73A8
:100F3000164A7B681B781344FA7B83F80023134A14
:100F40007B681B785B09DBB218467B681B7803F073
:100F50001F03012101FA03F342F820300FE00B498F
:100F60007B681B785B09DBB218467B681B7803F053
:100F70001F0301229A4000F1200341F8232000BF03
:100F80001437BD4680BC704700ED00E000E100E092
:100F900080B400AF044B00221A70044B00221A7078
:100FA00000BFBD4680BC70473431012034040020AE
:100FB00080B483B000AF0346FB71044AFB79137021
:100FC00000BF0C37BD4680BC704700BF34310120E4
:100FD00080B483B000AF0346FB71044AFB79137001
:100FE00000BF0C37BD4680BC704700BF34040020F2
:100FF00080B584B000AFF860B9601346FB71FB6840
:101000009BB2BA6891B2FA791846FFF773FD00BF38
:101010001037BD4680BD00BF90B58BB002AFF86001
:10102000B9607A603B600023FB617B68BB617B68D1
:10103000C3F101037B617B69002B09DAFB69013392
:10104000FB61FB695A007B69134403337B610EE04B
:10105000FB690133FB61FB695A007B691A44BB6978
:10106000013BBB61BB695B00D31A05337B613B6805
:10107000002B4BD0FA68FB69D018BA68BB69D1184D
:10108000FA68FB69D41ABA68BB691A44614B1B78C9
:1010900000931346224600F031F9FA68FB69D01834
:1010A000BA68BB69D11AFA68FB69D41ABA68BB6915
:1010B000D21A584B1B7800931346224600F01EF9B3
:1010C000FA68BB69D018BA68FB69D118FA68BB69BD
:1010D000D41ABA68FB691A444E4B1B780093134626
:1010E000224600F00BF9FA68BB69D018BA68FB69B0
:1010F000D11AFA68BB69D41ABA68FB69D21A454B8F
:101100001B7800931346224600F0F8F8FA68FB6952
:10111000D018BA68BB69D1183F4B1B781A46FFF745
:1011200067FFFA68FB69D01ABA68BB69D1183A4BF5
:101130001B781A46FFF75CFFFA68FB69D018BA689B
:10114000BB69D11A344B1B781A46FFF751FFFA6876
:10115000FB69D01ABA68BB69D11A2F4B1B781A46A3
:10116000FFF746FFFA68BB69D018BA68FB69D11867
:10117000294B1B781A46FFF73BFFFA68BB69D01A68
:10118000BA68FB69D118244B1B781A46FFF730FF69
:10119000FA68BB69D018BA68FB69D11A1E4B1B7874
:1011A0001A46FFF725FFFA68BB69D01ABA68FB69CF
:1011B000D11A194B1B781A46FFF71AFFFA69BB6957
:1011C0009A42FFF638AF3B68002B0CD0FA687B6878
:1011D000D01AFA687B681A440E4B1B780093BB68E0
:1011E000B96800F08BF8FA687B68D01A0A4B1B7854
:1011F0001A46B968FFF7FCFEFA687B68D018064B00
:101200001B781A46B968FFF7F3FE00BF2437BD46C6
:1012100090BD00BF340400203431012080B586B079
:1012200000AFF860B9607A603B603B6A002B1ED06B
:1012300000237B6117E000233B610DE0FA687B69C6
:10124000D018BA683B69D1182A4B1B781A46FFF7A9
:10125000CFFE3B6901333B613A693B689A42EDDB63
:101260007B6901337B617A697B689A42E3DB002307
:101270007B6116E0FA687B69D0181F4B1B781A4611
:10128000B968FFF7B5FEFA687B69D018BA683B68A1
:10129000D118194B1B781A46FFF7AAFE7B69013358
:1012A0007B617B685A1C7B699A42E3DC00233B61CB
:1012B00016E0BA683B69D1180F4B1B781A46F868DC
:1012C000FFF796FEFA687B68D018BA683B69D118B8
:1012D000094B1B781A46FFF78BFE3B6901333B61D4
:1012E0003B685A1C3B699A42E3DC00BF1837BD4695
:1012F00080BD00BF3404002034310120B0B588B077
:1013000000AFF860B9607A603B607A68FB68D31A16
:10131000184601F04BFD0346BB613A68BB68D31A1F
:10132000184601F043FD03467B61B969B86901F0D5
:1013300091FD03461C467969786901F08BFD0346EF
:101340001946204601F07EFC0346184601F0F8F8E5
:1013500003460C461846214600F070FE03460C4634
:101360001846214601F018FC03463B610023FB614F
:101370003EE0F86801F01AFD0446F86901F016FD38
:101380000346B969184601F065FD034639691846F8
:1013900001F014FE03461946204601F053FC0346B3
:1013A000184601F01DFF0446B86801F0FFFC054631
:1013B000F86901F0FBFC03467969184601F04AFD23
:1013C00003463969184601F0F9FD034619462846D7
:1013D00001F038FC0346184601F002FF014697F879
:1013E00030301A462046FFF703FEFB690133FB61EC
:1013F000F86901F0DBFC03463969184601F0C8FEC4
:101400000346002BB5D100BF2037BD46B0BD00BF9D
:1014100080B586B002AFF860B9607A603B60064B79
:101420001B7800933B687A68B968F868FFF766FF35
:1014300000BF1037BD4680BD34310120B0B58CB03F
:1014400000AFF860B9607A603B60FB68BB62B86867
:1014500001F064F804460D46786801F071F84FF029
:1014600000025D4B01F0C0F802460B4620462946BB
:1014700000F006FF03460C461846214601F064FBC7
:1014800003467B62F86801F049F804460D46786827
:1014900001F056F84FF000024F4B01F0A5F802465C
:1014A0000B462046294600F0EDFE03460C46184642
:1014B000214601F049FB03463B62B86801F02EF873
:1014C00004460D46786801F03BF84FF00002424BAD
:1014D00001F08AF802460B462046294600F0D2FE6B
:1014E00003460C461846214601F02EFB0346FB61DD
:1014F000F86801F013F804460D46786801F020F80A
:101500004FF00002344B01F06FF802460B462046C4
:10151000294600F0B5FE03460C461846214601F068
:1015200013FB0346BB61B86800F0F8FF04460D46A4
:10153000786801F005F84FF00002274B01F054F8ED
:1015400002460B462046294600F09CFE03460C4608
:101550001846214601F0F8FA03467B613B68002BF0
:1015600024D01E4B1B78FB741D4B1B781846FFF7CD
:101570001FFD0023FB620AE0BA69FB6AD0187B6A90
:10158000BA6A7969FFF744FFFB6A0133FB62F86AC4
:1015900001F00CFC03467968184601F0F9FD03469A
:1015A000002BE9D1FB7C1846FFF702FDFB693A6A84
:1015B000796AB86AFFF72CFF7B69BA69F969386AFA
:1015C000FFF726FF7B6ABA6A7969B869FFF720FFDF
:1015D00000BF3037BD46B0BD0000E03F34310120D0
:1015E00034040020F0B591B002AFF860B9607A60C1
:1015F0003B607A683B689A421ADD7B68DA0F1344D5
:101600005B10184601F0D2FB0346FB624FF07E539D
:101610007B63386801F0CAFB0446786801F0C6FBBA
:1016200003461946204601F0C9FC03463B6319E016
:101630003B68DA0F13445B10184601F0B7FB034612
:10164000FB62786801F0B2FB0446386801F0AEFB3B
:1016500003461946204601F0B1FC03467B634FF078
:101660007E533B634FF00003BB62FB6A7B62F96A07
:101670004FF07E5001F0E4FA0346184601F0B0FD49
:1016800003463B623B6A002B22DA386A01F08EFB8C
:1016900004464FF07E51B86A01F0D4FA0346BB62AB
:1016A000BB6A1946184601F0CDFA03461946204692
:1016B00001F0C8FA03460549184601F0C3FA03468B
:1016C000184601F08DFD03463B6234E000004040C7
:1016D000386A01F06BFB04464FF07E51B86A01F0A6
:1016E000B1FA0346BB62BB6A1946184601F0AAFA72
:1016F00003461946204601F0A5FA03461C464FF062
:101700007E51786A01F09CFA03467B627B6A194637
:10171000184601F097FA03461946204601F090FA60
:101720000346AF49184601F08DFA0346184601F00A
:1017300057FD03463B62B96A786B01F08BFB0346A9
:10174000FB61796A786B01F085FB0346BB61B96A7E
:10175000386B01F07FFB03467B61796A386B01F0DF
:1017600079FB03463B613B6D002B00F0F480F86889
:1017700001F01CFB0346F969184601F063FA0346C1
:10178000184601F02DFD0446B86801F00FFB034632
:101790003969184601F056FA0346184601F020FD53
:1017A0000546F86801F002FB0346F969184601F0A6
:1017B00047FA0346184601F013FD0646B86801F0E3
:1017C000F5FA03463969184601F03CFA0346184613
:1017D00001F006FD0246834B1B7800931346324608
:1017E00029462046FFF78AFDF86801F0DFFA034634
:1017F000F969184601F026FA0346184601F0F0FC94
:101800000446B86801F0D2FA03463969184601F077
:1018100017FA0346184601F0E3FC0546F86801F0A4
:10182000C5FA0346F969184601F00AFA0346184654
:1018300001F0D6FC0646B86801F0B8FA03463969EB
:10184000184601F0FDF90346184601F0C9FC0246AE
:10185000644B1B7800931346324629462046FFF717
:101860004DFDF86801F0A2FA0346B969184601F087
:10187000E9F90346184601F0B3FC0446B86801F0E4
:1018800095FA03467969184601F0DCF903461846D3
:1018900001F0A6FC0546F86801F088FA0346B9692C
:1018A000184601F0CDF90346184601F099FC0646AA
:1018B000B86801F07BFA03467969184601F0C2F96D
:1018C0000346184601F08CFC0246464B1B780093F9
:1018D0001346324629462046FFF710FDF86801F00E
:1018E00065FA0346B969184601F0ACF90346184693
:1018F00001F076FC0446B86801F058FA03467969AD
:10190000184601F09DF90346184601F069FC0546AA
:10191000F86801F04BFA0346B969184601F090F9EE
:101920000346184601F05CFC0646B86801F03EFA32
:1019300003467969184601F083F90346184601F019
:101940004FFC0246274B1B7800931346324629462C
:101950002046FFF7D3FCF86801F028FA0346F9693E
:10196000184601F06FF90346184601F039FC0446A9
:10197000B86801F01BFA03463969184601F062F9AC
:101980000346184601F02CFC0146174B1B781A46FB
:101990002046FFF72DFBF86801F008FA0346F969C5
:1019A000184601F04DF90346184601F019FC0446AB
:1019B000B86801F0FBF903463969184601F042F9AD
:1019C0000346184601F00CFC0146074B1B781A46EB
:1019D0002046FFF70DFBF86801F0E8F906E000BFCC
:1019E0000000A04034040020343101200346F9698E
:1019F000184601F027F90346184601F0F1FB0446AA
:101A0000B86801F0D3F903463969184601F018F9AE
:101A10000346184601F0E4FB0146724B1B781A4658
:101A20002046FFF7E5FAF86801F0C0F90346F969C6
:101A3000184601F005F90346184601F0D1FB0446AB
:101A4000B86801F0B3F903463969184601F0F8F8AF
:101A50000346184601F0C4FB0146624B1B781A4648
:101A60002046FFF7C5FAF86801F0A0F90346B96906
:101A7000184601F0E7F80346184601F0B1FB0446AA
:101A8000B86801F093F903467969184601F0DAF86D
:101A90000346184601F0A4FB0146524B1B781A4638
:101AA0002046FFF7A5FAF86801F080F90346B96906
:101AB000184601F0C5F80346184601F091FB0446AC
:101AC000B86801F073F903467969184601F0BAF86D
:101AD0000346184601F084FB0146424B1B781A4628
:101AE0002046FFF785FAF86801F060F90346B96906
:101AF000184601F0A7F80346184601F071FB0446AA
:101B0000B86801F053F903467969184601F098F86E
:101B10000346184601F064FB0146324B1B781A4617
:101B20002046FFF765FAF86801F040F90346B96905
:101B3000184601F085F80346184601F051FB0446AB
:101B4000B86801F033F903467969184601F078F86E
:101B50000346184601F044FB0146224B1B781A4607
:101B60002046FFF745FA796AB86A01F011FB03468F
:101B7000002B7FF487AD3B6D002B14D07B68DA0F10
:101B800013445B101A46FB68981A7B68DA0F1344FB
:101B90005B101A46FB681A44134B1B780093BB6812
:101BA000B968FFF7ABFB7B68DA0F13445B101A468A
:101BB000FB68981A0B4B1B781A46B968FFF718FA9E
:101BC0007B68DA0F13445B101A46FB68D018054B8C
:101BD0001B781A46B968FFF70BFA00BF3C37BD46C1
:101BE000F0BD00BF343101203404002080B485B042
:101BF00000AF786039600023FB817B681B88FB8124
:101C00007B68284A934213D07B68274A93420FD0BF
:101C10007B68B3F1804F0BD07B68244A934207D096
:101C20007B68234A934203D07B68224A934208D1BF
:101C3000FB8923F07003FB813B685A88FB891343BF
:101C4000FB817B681C4A93420CD07B681B4A934201
:101C500008D0FB8923F44073FB813B681A89FB8918
:101C60001343FB817B68FA891A803B685A687B685A
:101C7000DA623B681A887B681A857B68094A934256
:101C800003D07B68084A934204D13B689B7A9AB29E
:101C90007B681A867B6801229A8200BF1437BD4692
:101CA00080BC704700000140000401400004004077
:101CB00000080040000C00400010004000140040EC
:101CC00080B483B000AF78600B46FB70FB78002BCC
:101CD00008D07B681B889BB243F080039AB27B6874
:101CE0001A8007E07B681B889BB223F080039AB2BE
:101CF0007B681A8000BF0C37BD4680BC704700BFB0
:101D000080B483B000AF78600B46FB70FB78002B8B
:101D100008D07B681B889BB243F001039AB27B68B2
:101D20001A8007E07B681B889BB223F001039AB2FC
:101D30007B681A8000BF0C37BD4680BC704700BF6F
:101D400080B485B000AF7860396000237B810023C8
:101D5000FB810023BB817B681B8C9BB223F48073C7
:101D60009AB27B681A847B681B8CFB817B689B889A
:101D7000BB817B689B8B7B817B8923F070037B819C
:101D80007B8923F003037B813B681A887B8913439B
:101D90007B81FB8923F40073FB813B689B891B02D9
:101DA0009AB2FB891343FB813B685B881B029AB2A2
:101DB000FB891343FB817B68224A934203D07B68F3
:101DC000214A93422BD1FB8923F40063FB813B68BA
:101DD000DB891B029AB2FB891343FB81FB8923F445
:101DE0008063FB813B689B881B029AB2FB8913438B
:101DF000FB81BB8923F48053BB81BB8923F400534F
:101E0000BB813B681B8A1B019AB2BB891343BB8110
:101E10003B685B8A1B019AB2BB891343BB817B6819
:101E2000BA899A807B687A899A833B689A687B68CA
:101E3000DA637B68FA891A8400BF1437BD4680BC18
:101E4000704700BF000001400004014080B485B02D
:101E500000AF786039600023BB8100237B810023C1
:101E6000FB817B681B8C9BB223F480539AB27B6806
:101E70001A847B681B8C7B817B689B88FB817B68D9
:101E80009B8BBB81BB8923F4E043BB81BB8923F4DB
:101E90004073BB813B681B881B029AB2BB8913430A
:101EA000BB817B8923F400537B813B689B891B03A7
:101EB0009AB27B8913437B813B685B881B039AB290
:101EC0007B8913437B817B68114A934203D07B68F3
:101ED000104A93420AD1FB8923F48043FB813B687B
:101EE0001B8A9B019AB2FB891343FB817B68FA89A9
:101EF0009A807B68BA899A833B689A687B681A647F
:101F00007B687A891A8400BF1437BD4680BC70474D
:101F1000000001400004014080B485B000AF78604B
:101F20000B467B800023FB817B689B8BFB81FB89BD
:101F300023F00803FB81FA897B881343FB817B68CC
:101F4000FA899A8300BF1437BD4680BC704700BF32
:101F500080B485B000AF78600B467B800023FB81A6
:101F60007B689B8BFB81FB8923F40063FB817B886F
:101F70001B029AB2FB891343FB817B68FA899A831F
:101F800000BF1437BD4680BC704700BF80B483B02B
:101F900000AF78600B467B8013467B707B78002B0C
:101FA00008D07B689B899AB27B8813439AB27B687E
:101FB0009A8109E07B689B899AB27B88DB439BB25C
:101FC00013409AB27B689A8100BF0C37BD4680BC33
:101FD000704700BF80B483B000AF78600B467B8051
:101FE0007B88DB439AB27B681A8200BF0C37BD4600
:101FF00080BC704780B483B000AF78600B467B80B4
:1020000013467B707B78002B08D07B689B899AB243
:102010007B8813439AB27B689A8109E07B689B892D
:102020009AB27B88DB439BB213409AB27B689A8159
:1020300000BF0C37BD4680BC704700BF2DE9F04F94
:102040008BB004460D4600F055F8284B93F900A0DC
:10205000BAF1FF3F06460F4612D022462B462046D5
:10206000294600F05BFD834650B94FF000084FF061
:10207000000942464B462046294600F027FD20B97C
:10208000304639460BB0BDE8F08F194BCDF820B083
:102090000122CDE90445CDE902458DE80C00BAF1F5
:1020A000000F15D042464B464046494600F0C6FB5D
:1020B000BAF1020FCDE906010CD101F0B7F82123E6
:1020C0000360089B63B9DDE906010BB0BDE8F08F42
:1020D000CDE90689684600F0CDF80028F1D1ECE79B
:1020E00001F0A4F8089B0360EDE700BF00000020AA
:1020F000383200082DE9F8435D4EB6460E4076456D
:102100000C46054600F0958000290B46024673DD1B
:102110000F157ED0A7F2FF37C3F31303F80743F47C
:10212000801364D403EBD27100260B447F1052005D
:10213000B64616204FF400110EEB01049C424FEA04
:10214000D2754FEA420203DC1B1B04EB010E0E4466
:10215000013805EB43034FEA5101EDD184462024B9
:102160004FF0004109E020D003EBD275013C4FEA6B
:1021700051012B444FEA420220D09E4501EB0C0551
:10218000F1DA002D05EB010C09DBF0469542CEEBB0
:10219000030300D9013B521B0844C646E4E7BCF1E7
:1021A000000FF2DB0EF10108F0E7954217D8002D81
:1021B00005EB010C47DB98460023ECE7134310D1F5
:1021C0004008731003F17F5303F50013F20703EB8C
:1021D000075948BF40F000404946BDE8F8837346C0
:1021E000C2E7411C33D000F001031844E8E75B006C
:1021F00003EBD273520095E721F000460643ECD082
:1022000069BB0F46D30A153F5205002BFAD0DD02F9
:1022100020D4002100E001465B00DC0201F1010056
:10222000F9D5C0F1200422FA04F423437F1A824036
:1022300070E702460B4600F0D7F92A46234600F025
:1022400021F8BDE8F883BCF1000FABDAB3E7013643
:102250002046B6E720244FF0FF310020E3E7024696
:102260000B4600F00DF802460B4600F0E7FAB4E723
:102270000000F07F0020704781F0004102E000BFC5
:1022800083F0004330B54FEA41044FEA430594EA36
:10229000050F08BF90EA020F1FBF54EA000C55EA71
:1022A000020C7FEA645C7FEA655C00F0E2804FEA42
:1022B0005454D4EB5555B8BF6D420CDD2C4480EA24
:1022C000020281EA030382EA000083EA010180EA54
:1022D000020281EA0303362D88BF30BD11F0004FA2
:1022E0004FEA01314FF4801C4CEA113102D04042D8
:1022F00061EB410113F0004F4FEA03334CEA133313
:1023000002D0524263EB430394EA050F00F0A7802A
:10231000A4F10104D5F1200E0DDB02FA0EFC22FA25
:1023200005F2801841F1000103FA0EF2801843FA19
:1023300005F359410EE0A5F120050EF1200E012A0A
:1023400003FA0EFC28BF4CF0020C43FA05F3C01848
:1023500051EBE37101F0004507D54FF0000EDCF1C1
:10236000000C7EEB00006EEB0101B1F5801F1BD36A
:10237000B1F5001F0CD349085FEA30004FEA3C0C6E
:1023800004F101044FEA445212F5800F80F09A8064
:10239000BCF1004F08BF5FEA500C50F1000041EB68
:1023A000045141EA050130BD5FEA4C0C404141EB6C
:1023B000010111F4801FA4F10104E9D191F0000F93
:1023C00004BF01460020B1FA81F308BF2033A3F116
:1023D0000B03B3F120020CDA0C3208DD02F1140C0D
:1023E000C2F10C0201FA0CF021FA02F10CE002F148
:1023F0001402D8BFC2F1200C01FA02F120FA0CFC41
:10240000DCBF41EA0C019040E41AA2BF01EB045189
:10241000294330BD6FEA04041F3C1CDA0C340EDC87
:1024200004F11404C4F1200220FA04F001FA02F3CA
:1024300040EA030021FA04F345EA030130BDC4F188
:102440000C04C4F1200220FA02F001FA04F340EA7D
:102450000300294630BD21FA04F0294630BD94F02E
:10246000000F83F4801306BF81F480110134013D15
:102470004EE77FEA645C18BF7FEA655C29D094EA86
:10248000050F08BF90EA020F05D054EA000C04BF04
:102490001946104630BD91EA030F1EBF00210020EF
:1024A00030BD5FEA545C05D14000494128BF41F08E
:1024B000004130BD14F580043CBF01F5801130BDF2
:1024C00001F0004545F0FE4141F470014FF000007D
:1024D00030BD7FEA645C1ABF194610467FEA655C2E
:1024E0001CBF0B46024650EA013406BF52EA0335D0
:1024F00091EA030F41F4002130BD00BF90F0000FBE
:1025000004BF0021704730B54FF4806404F13204F9
:102510004FF000054FF0000150E700BF90F0000FB2
:1025200004BF0021704730B54FF4806404F13204D9
:1025300010F0004548BF40424FF000013EE700BFA9
:1025400042004FEAE2014FEA31014FEA02701FBF39
:1025500012F07F4393F07F4F81F06051704792F00B
:10256000000F14BF93F07F4F704730B54FF4607485
:1025700001F0004521F0004120E700BF50EA0102D0
:1025800008BF704730B54FF000050AE050EA01027D
:1025900008BF704730B511F0004502D5404261EBED
:1025A00041014FF4806404F132045FEA915C3FF42E
:1025B000DCAE4FF003025FEADC0C18BF03325FEAC7
:1025C000DC0C18BF033202EBDC02C2F1200300FA7C
:1025D00003FC20FA02F001FA03FE40EA0E0021FAA1
:1025E00002F11444C1E600BF70B54FF0FF0C4CF48B
:1025F000E06C1CEA11541DBF1CEA135594EA0C0F41
:1026000095EA0C0F00F0DEF82C4481EA030621EA7B
:102610004C5123EA4C5350EA013518BF52EA0335B6
:1026200041F4801143F4801338D0A0FB02CE4FF068
:102630000005E1FB02E506F00042E0FB03E54FF098
:102640000006E1FB03569CF0000F18BF4EF0010E90
:10265000A4F1FF04B6F5007F64F5407404D25FEA8C
:102660004E0E6D4146EB060642EAC62141EA55513F
:102670004FEAC52040EA5E504FEACE2EB4F1FD0C81
:1026800088BFBCF5E06F1ED8BEF1004F08BF5FEAFF
:10269000500E50F1000041EB045170BD06F00046B1
:1026A00046EA010140EA020081EA0301B4EB5C045E
:1026B000C2BFD4EB0C0541EA045170BD41F4801156
:1026C0004FF0000E013C00F3AB8014F1360FDEBF7B
:1026D000002001F0004170BDC4F10004203C35DA57
:1026E0000C341BDC04F11404C4F1200500FA05F3DA
:1026F00020FA04F001FA05F240EA020001F000427B
:1027000021F0004110EBD37021FA04F642EB0601F0
:102710005EEA430E08BF20EAD37070BDC4F10C041A
:10272000C4F1200500FA04F320FA05F001FA04F2DE
:1027300040EA020001F0004110EBD37041F10001CA
:102740005EEA430E08BF20EAD37070BDC4F12005D5
:1027500000FA05F24EEA020E20FA04F301FA05F23D
:1027600043EA020321FA04F001F0004121FA04F2E5
:1027700020EA020000EBD3705EEA430E08BF20EAB5
:10278000D37070BD94F0000F0FD101F000464000EF
:1027900041EB010111F4801F08BF013CF7D041EA71
:1027A000060195F0000F18BF704703F00046520075
:1027B00043EB030313F4801F08BF013DF7D043EA46
:1027C0000603704794EA0C0F0CEA135518BF95EAFC
:1027D0000C0F0CD050EA410618BF52EA4306D1D183
:1027E00081EA030101F000414FF0000070BD50EAA2
:1027F000410606BF1046194652EA430619D094EA2C
:102800000C0F02D150EA013613D195EA0C0F05D115
:1028100052EA03361CBF104619460AD181EA030169
:1028200001F0004141F0FE4141F470014FF0000021
:1028300070BD41F0FE4141F4780170BD70B54FF0BC
:10284000FF0C4CF4E06C1CEA11541DBF1CEA13553C
:1028500094EA0C0F95EA0C0F00F0A7F8A4EB05041E
:1028600081EA030E52EA03354FEA013100F0888015
:102870004FEA03334FF0805545EA131343EA1263DE
:102880004FEA022245EA111545EA10654FEA002693
:102890000EF000419D4208BF964244F1FD0404F54C
:1028A000407402D25B084FEA3202B61A65EB0305A8
:1028B0005B084FEA32024FF480104FF4002CB6EB65
:1028C000020E75EB030E22BFB61A754640EA0C00E5
:1028D0005B084FEA3202B6EB020E75EB030E22BF25
:1028E000B61A754640EA5C005B084FEA3202B6EB66
:1028F000020E75EB030E22BFB61A754640EA9C0025
:102900005B084FEA3202B6EB020E75EB030E22BFF4
:10291000B61A754640EADC0055EA060E18D04FEAB2
:10292000051545EA16754FEA06164FEAC30343EA52
:1029300052734FEAC2025FEA1C1CC0D111F4801F1F
:102940000BD141EA00014FF000004FF0004CB6E718
:1029500011F4801F04BF01430020B4F1FD0C88BFB7
:10296000BCF5E06F3FF6AFAEB5EB030C04BFB6EBC2
:10297000020C5FEA500C50F1000041EB045170BDB5
:102980000EF0004E4EEA113114EB5C04C2BFD4EBE2
:102990000C0541EA045170BD41F480114FF0000E66
:1029A000013C90E645EA060E8DE60CEA135594EAE2
:1029B0000C0F08BF95EA0C0F3FF43BAF94EA0C0FE5
:1029C0000AD150EA01347FF434AF95EA0C0F7FF45A
:1029D00025AF104619462CE795EA0C0F06D152EAAE
:1029E00003353FF4FDAE1046194622E750EA410692
:1029F00018BF52EA43067FF4C5AE50EA41047FF4A3
:102A00000DAF52EA43057FF4EBAE12E74FF0FF3C07
:102A100006E000BF4FF0010C02E000BF4FF0010CD8
:102A20004DF804CD4FEA410C7FEA6C5C4FEA430C51
:102A300018BF7FEA6C5C1BD001B050EA410C0CBFA0
:102A400052EA430C91EA030F02BF90EA020F002002
:102A5000704710F1000F91EA030F58BF994208BF69
:102A600090422CBFD8176FEAE37040F00100704726
:102A70004FEA410C7FEA6C5C02D150EA013C07D17D
:102A80004FEA430C7FEA6C5CD6D152EA033CD3D0C8
:102A90005DF8040B704700BF8446104662468C46C2
:102AA0001946634600E000BF01B5FFF7B7FF0028F5
:102AB00048BF10F1000F01BD4DF808EDFFF7F4FF1E
:102AC0000CBF012000205DF808FB00BF4DF808EDA9
:102AD000FFF7EAFF34BF012000205DF808FB00BFCC
:102AE0004DF808EDFFF7E0FF94BF012000205DF8EE
:102AF00008FB00BF4DF808EDFFF7CEFF94BF0120A3
:102B000000205DF808FB00BF4DF808EDFFF7C4FF9B
:102B100034BF012000205DF808FB00BF4FEA410CE4
:102B20007FEA6C5C02D150EA013C0AD14FEA430CC7
:102B30007FEA6C5C02D152EA033C02D14FF0000004
:102B400070474FF0010070474FEA410212F5001242
:102B500015D211D56FF47873B3EB625212D94FEAE4
:102B6000C12343F0004343EA505311F0004F23FACE
:102B700002F018BF404270474FF00000704750EA23
:102B8000013005D111F0004008BF6FF000407047E0
:102B90004FF00000704700BF4FEA4102B2F1E0433E
:102BA00024BFB3F5001CDCF1FE5C0DD901F0004C34
:102BB0004FEAC0024CEA5070B2F1004F40EB830084
:102BC00008BF20F00100704711F0804F21D113F1B0
:102BD0003872BCBF01F00040704741F480114FEAE9
:102BE0005252C2F11802C2F1200C10FA0CF320FA72
:102BF00002F018BF40F001004FEAC1234FEAD3238F
:102C000003FA0CFC40EA0C0023FA02F34FEA4303F8
:102C1000CCE77FEA625307D150EA01331EBF4FF081
:102C2000FE4040F44000704701F0004040F0FE409C
:102C300040F40000704700BF80F0004002E000BF99
:102C400081F0004142001FBF5FEA410392EA030F97
:102C50007FEA226C7FEA236C6AD04FEA1262D2EBE1
:102C60001363C1BFD218414048404140B8BF5B42E6
:102C7000192B88BF704710F0004F40F4000020F07F
:102C80007F4018BF404211F0004F41F4000121F095
:102C90007F4118BF494292EA030F3FD0A2F10102DF
:102CA00041FA03FC10EB0C00C3F1200301FA03F11D
:102CB00000F0004302D5494260EB4000B0F5000F40
:102CC00013D3B0F1807F06D340084FEA310102F1FF
:102CD0000102FE2A51D2B1F1004F40EBC25008BFB1
:102CE00020F0010040EA03007047490040EB00007B
:102CF00010F4000FA2F10102EDD1B0FA80FCACF1AA
:102D0000080CB2EB0C0200FA0CF0AABF00EBC250A8
:102D100052421843BCBFD0401843704792F0000F96
:102D200081F4000106BF80F400000132013BB5E7E9
:102D30004FEA41037FEA226C18BF7FEA236C21D05F
:102D400092EA030F04D092F0000F08BF08467047C4
:102D500090EA010F1CBF0020704712F07F4F04D192
:102D6000400028BF40F00040704712F100723CBFA5
:102D700000F50000704700F0004343F0FE4040F4CF
:102D8000000070477FEA226216BF08467FEA23638D
:102D90000146420206BF5FEA412390EA010F40F478
:102DA000800070474FF0000304E000BF10F00043C4
:102DB00048BF40425FEA000C08BF704743F09643AB
:102DC00001464FF000001CE050EA010208BF7047C6
:102DD0004FF000030AE000BF50EA010208BF70474D
:102DE00011F0004302D5404261EB41015FEA010C62
:102DF00002BF84460146002043F0B64308BFA3F15A
:102E00008053A3F50003BCFA8CF2083AA3EBC2533B
:102E100010DB01FA02FC634400FA02FCC2F120025A
:102E2000BCF1004F20FA02F243EB020008BF20F091
:102E30000100704702F1200201FA02FCC2F12002F7
:102E400050EA4C0021FA02F243EB020008BF20EAEC
:102E5000DC7070474FF0FF0C1CEAD0521EBF1CEA1A
:102E6000D15392EA0C0F93EA0C0F6FD01A4480EA08
:102E7000010C400218BF5FEA41211ED04FF00063F1
:102E800043EA501043EA5111A0FB01310CF000401D
:102E9000B1F5000F3EBF490041EAD3715B0040EA43
:102EA000010062F17F02FD2A1DD8B3F1004F40EB13
:102EB000C25008BF20F00100704790F0000F0CF0E6
:102EC000004C08BF49024CEA502040EA51207F3AAA
:102ED000C2BFD2F1FF0340EAC250704740F4000085
:102EE0004FF00003013A5DDC12F1190FDCBF00F076
:102EF00000407047C2F10002410021FA02F1C2F124
:102F0000200200FA02FC5FEA310040F1000053EABF
:102F10004C0308BF20EADC70704792F0000F00F00D
:102F2000004C02BF400010F4000F013AF9D040EA13
:102F30000C0093F0000F01F0004C02BF490011F4A7
:102F4000000F013BF9D041EA0C018FE70CEAD153A5
:102F500092EA0C0F18BF93EA0C0F0AD030F0004C25
:102F600018BF31F0004CD8D180EA010000F00040D9
:102F7000704790F0000F17BF90F0004F084691F097
:102F8000000F91F0004F14D092EA0C0F01D14202D1
:102F90000FD193EA0C0F03D14B0218BF084608D19A
:102FA00080EA010000F0004040F0FE4040F40000E4
:102FB000704740F0FE4040F4400070474FF0FF0C77
:102FC0001CEAD0521EBF1CEAD15392EA0C0F93EABE
:102FD0000C0F69D0A2EB030280EA010C49024FEA10
:102FE000402037D04FF0805343EA111143EA1013C9
:102FF0000CF000408B4238BF5B0042F17D024FF481
:10300000000C8B4224BF5B1A40EA0C00B3EB510F5B
:1030100024BFA3EB510340EA5C00B3EB910F24BF44
:10302000A3EB910340EA9C00B3EBD10F24BFA3EBC9
:10303000D10340EADC001B0118BF5FEA1C1CE0D191
:10304000FD2A3FF650AF8B4240EBC25008BF20F044
:10305000010070470CF0004C4CEA50207F32C2BF98
:10306000D2F1FF0340EAC250704740F400004FF035
:103070000003013A37E792F0000F00F0004C02BF66
:10308000400010F4000F013AF9D040EA0C0093F030
:10309000000F01F0004C02BF490011F4000F013B8A
:1030A000F9D041EA0C0195E70CEAD15392EA0C0FF2
:1030B00008D142027FF47DAF93EA0C0F7FF470AF2A
:1030C000084676E793EA0C0F04D14B023FF44CAF6D
:1030D00008466EE730F0004C18BF31F0004CCAD102
:1030E00030F000427FF45CAF31F000437FF43CAF3E
:1030F0005FE700BF4FF0FF3C06E000BF4FF0010C60
:1031000002E000BF4FF0010C4DF804CD4FEA400241
:103110004FEA41037FEA226C18BF7FEA236C11D08B
:1031200001B052EA530C18BF90EA010F58BFB2EB3E
:10313000030088BFC81738BF6FEAE17018BF40F0BE
:10314000010070477FEA226C02D15FEA402C05D172
:103150007FEA236CE4D15FEA412CE1D05DF8040BF7
:10316000704700BF844608466146FFE70FB5FFF78A
:10317000C9FF002848BF10F1000F0FBD4DF808ED42
:10318000FFF7F4FF0CBF012000205DF808FB00BF33
:103190004DF808EDFFF7EAFF34BF012000205DF88D
:1031A00008FB00BF4DF808EDFFF7E0FF94BF0120DA
:1031B00000205DF808FB00BF4DF808EDFFF7D2FFD7
:1031C00094BF012000205DF808FB00BF4DF808ED1A
:1031D000FFF7C8FF34BF012000205DF808FB00BFE7
:1031E0004FEA4002B2F1FE4F0FD34FF09E03B3EB14
:1031F00012620DD94FEA002343F0004310F0004F54
:1032000023FA02F018BF404270474FF000007047A9
:1032100012F1610F01D1420205D110F0004008BF48
:103220006FF0004070474FF000007047014B186886
:10323000704700BF300400207371727400000000FA
:043240004300000047
:10324400010000000000000000000000F402002063
:103254005C030020C4030020000000000000000004
:10326400000000000000000000000000000000005A
:1032740000000000000000000000000040320008D0
:10328400000000000000000000000000000000003A
:10329400000000000000000000000000000000002A
:1032A400000000000000000000000000000000001A
:1032B400000000000000000000000000000000000A
:1032C40000000000000000000000000000000000FA
:1032D40000000000000000000000000000000000EA
:1032E40000000000000000000000000000000000DA
:1032F40001000000000000000E33CDAB34126DE677
:10330400ECDE05000B0000000000000000000000DF
:1033140000000000000000000000000000000000A9
:103324000000000000000000000000000000000099
:103334000000000000000000000000000000000089
:103344000000000000000000000000000000000079
:04367400080000202A
:0400000508000000EF
:00000001FF
