:020000040800F2
:1000000024350120F10200084D0300084D030008CB
:100010004D0300084D0300084D03000800000000D8
:100020000000000000000000000000004D03000878
:100030004D030008000000004D0300084D030008B8
:100040004D0300084D0300084D0300084D03000850
:100050004D0300084D0300084D0300084D03000840
:100060004D0300084D0300084D0300084D03000830
:100070004D0300084D0300084D0300084D03000820
:100080004D0300084D0300084D0300084D03000810
:100090004D0300084D0300084D0300084D03000800
:1000A0004D0300084D0300084D0300084D030008F0
:1000B000A51100084D0300084D0300084D0300087A
:1000C0004D0300084D0300084D0300084D030008D0
:1000D0004D0300084D0300084D0300084D030008C0
:1000E0004D0300084D0300084D0300084D030008B0
:1000F0004D0300084D0300084D0300084D030008A0
:100100004D0300084D0300084D0300084D0300088F
:100110004D0300084D0300084D0300084D0300087F
:100120004D0300084D0300084D0300084D0300086F
:100130004D0300084D0300084D0300084D0300085F
:100140004D0300084D0300084D0300084D0300084F
:100150005D1200084D0300084D0300084D03000820
:100160004D0300084D0300084D0300084D0300082F
:100170004D0300084D0300084D0300084D0300081F
:100180004D0300084D03000880B582B000AF082081
:10019000012100F037F90023BB710023FB7102231A
:1001A0007B7140F60E033B6001233B713B460C48DC
:1001B000194600F077FA4FF470733B6000233B71EF
:1001C0000223FB713B460648194600F06BFA0448CF
:1001D00040F60E0100F01CFB0837BD4680BD00BF95
:1001E000000C024080B582B000AF00233B600023CA
:1001F0007B6025484FF4006100F00AFB224808218B
:1002000000F0F8FA00F042F838603B68002B02D0AA
:100210003B680C337B601C48082100F0F9FA1A484F
:10022000042100F0E7FA00F031F838603B68002B59
:1002300002D03B6808337B601348042100F0E8FAE1
:100240001148022100F0D6FA00F020F838603B682F
:10025000002B02D03B6804337B600B48022100F086
:10026000D7FA09484FF4006100F0C4FA00F00EF824
:1002700038603B68002B01D03B687B607B68184688
:100280000837BD4680BD00BF000C024080B582B07B
:1002900000AF00237B601548402100F091FA03462F
:1002A000012B01D101237B601048802100F088FAE6
:1002B0000346012B01D102237B600C484FF480716F
:1002C00000F07EFA0346012B01D103237B6007482F
:1002D0004FF4007100F074FA0346012B01D104239E
:1002E0007B607B6818460837BD4680BD000C024025
:1002F00080B582B000AF104B7B60104B3B6007E0D5
:100300003B681A1D3A607A68111D796012681A609C
:100310003A680B4B9A42F3D30A480B494FF000025C
:100320008842B8BF40F8042BFFF6FAAF00F012F88D
:100330000837BD4680BD00BF9C5901080000002061
:100340002000002020000020282D012080B400AFD4
:10035000FEE700BF80B582B000AF00F0ADFAFFF756
:1003600013FF00F053FD002000F090FD00BFFFF7E9
:1003700039FF03463B603B68002BF8D03A687B6846
:100380009A4232D0002000F081FD3B68012B02D060
:10039000022B13D025E00020012100F09DF803205E
:1003A00000F08AF813483221642200F043F96420F7
:1003B0008221114AD02300F0E9FF16E0002002213B
:1003C00000F08AF81C2000F077F80A4832216422F5
:1003D00000F030F964208221084AD02300F0D6FFD3
:1003E00003E00748012101F00FF83B687B6000BF84
:1003F000BCE700BF984F0008246F00084CBD000800
:10040000740B010880B483B000AF78600B46FB70BA
:10041000FB78002B06D0094B084A116B7A680A4317
:100420001A6306E0054B054A116B7A68D2430A400D
:100430001A630C37BD465DF8047B704700380240F4
:1004400080B483B000AF78600B46FB70FB78002B64
:1004500006D0094B084A116C7A680A431A6406E010
:10046000054B054A116C7A68D2430A401A640C376E
:10047000BD465DF8047B70470038024080B483B00D
:1004800000AF78600B46FB70FB78002B06D0094B61
:10049000084A516C7A680A435A6406E0054B054ADB
:1004A000516C7A68D2430A405A640C37BD465DF8F5
:1004B000047B70470038024080B483B000AF03462D
:1004C000FB71044BFA791A700C37BD465DF8047B5A
:1004D000704700BF2000002080B483B000AF024608
:1004E0000B46FA71BB71FB79002B02D0012B07D0B0
:1004F0000DE0BA79084B53F82220084B1A6006E049
:10050000BA79074B53F82220044B1A6000BF0C370E
:10051000BD465DF8047B704700000020242D0120BB
:100520001000002080B590B000AF0346B9607A603B
:10053000FB733D4B1B681B69FB623B4B1B68DB6815
:10054000BB62FA7B384B1B681B79D31A7B627B6AD0
:10055000DB00BA6A13445B683B627B6ADB00BA6A01
:1005600013441B68FB61FB69002B00DA0733DB10C7
:10057000FB63FA692D4B1340002B03DA013B63F058
:1005800007030133002B02DDFB6B0133FB63264BBA
:100590001B681B68BB610023BB633BE000237B63DC
:1005A00031E0BB6BFA6B02FB03F23B6A1A447B6BD4
:1005B0001344FA6A13441B78FB7500233B631CE069
:1005C000FA7D3B6B42FA03F303F00103002B11D0D9
:1005D000BB6803F108023B6BD21A7B6BDB00D118BE
:1005E0007A68BB6B1A44124B1B78084611461A46B0
:1005F00000F0B8FE3B6B01333B633B6B072BDFDD49
:100600007B6B01337B637A6BFB6B9A42C9DBBB6B01
:100610000133BB63BA6BBB699A42BFDBFB69184607
:100620004037BD4680BD00BF242D0120070000805B
:100630002000002080B588B000AFF860B9607A6013
:10064000FB681B78FB770023BB6100237B6120E004
:10065000FB7F202B0ED0BA687B691344FA7F1046CB
:1006600019467A68FFF75EFF034601337A6913443F
:100670007B6106E00A4B1B689B685B007A69134448
:100680007B61BB690133BB61BB69FA6813441B78AA
:10069000FB77FB7F002BDBD12037BD4680BD00BF41
:1006A000242D012080B487B000AF7860396000232A
:1006B0007B6100233B610023FB6000237B6176E0CC
:1006C0007B69012202FA03F33B613B681A683B69CC
:1006D0001340FB60FA683B699A4265D17B681A68EF
:1006E0007B695B00032101FA03F3DB431A407B685B
:1006F0001A607B681A683B681B7919467B695B0046
:1007000001FA03F31A437B681A603B681B79012BDB
:1007100003D03B681B79022B2ED17B689A687B69DA
:100720005B00032101FA03F3DB431A407B689A6004
:100730007B689A683B685B7919467B695B0001FAC4
:1007400003F31A437B689A607B685A687B699BB2A3
:10075000012101FA03F3DB431A407B685A607B688E
:100760005A683B689B7919467B699BB201FA03F38F
:100770009BB21A437B685A607B68DA687B699BB2DC
:100780005B00032101FA03F3DB431A407B68DA6064
:100790007B68DA683B68DB7919467B695B0001FAA4
:1007A00003F31A437B68DA607B6901337B617B6901
:1007B0000F2B85D91C37BD465DF8047B704700BF01
:1007C00080B485B000AF78600B467B800023FB735C
:1007D0007B681A697B881340002B02D00123FB73CE
:1007E00001E00023FB73FB7B18461437BD465DF820
:1007F000047B704780B483B000AF78600B467B8089
:100800007B687A881A830C37BD465DF8047B704795
:1008100080B483B000AF78600B467B807B687A88B9
:100820005A830C37BD465DF8047B704780B485B0B1
:1008300000AF786013460A467A807B700023FB6025
:100840000023BB607A787B8803F007039B0002FAE1
:1008500003F3FB607B88DB089BB21A467B88DB08CE
:100860009BB219467B68083153F821107B8803F04E
:1008700007039B000F2000FA03F3DB4319407B685A
:10088000083243F822107B88DB089BB21A467B684B
:10089000083253F82220FB681343BB607B88DB08D7
:1008A0009BB21A467B680832B96843F822101437A5
:1008B000BD465DF8047B704780B500AF114B114A0F
:1008C000126842F001021A600E4B00229A600D4A33
:1008D0000C4B1B6823F0847323F480331360094BA3
:1008E000094A5A60074B074A126822F480221A60AC
:1008F000044B0022DA6000F00BF8044B4FF000626A
:100900009A6080BD003802401030002400ED00E005
:1009100080B483B000AF00237B6000233B60354B85
:10092000344A126842F480321A60324B1B6803F476
:1009300000333B607B6801337B603B68002B03D155
:100940007B68B3F5A06FF0D12A4B1B6803F400332A
:10095000002B02D001233B6001E000233B603B6899
:10096000012B42D1234B234A126C42F080521A646D
:10097000214B214A126842F480421A601D4B1D4AE5
:1009800092689A601B4B1B4A926842F400429A603C
:10099000184B184A926842F4A0529A60154B174AB5
:1009A0005A60144B134A126842F080721A6000BFFA
:1009B000104B1B6803F00073002BF9D0104B40F272
:1009C00005621A600B4B0B4A926822F003029A6090
:1009D000084B084A926842F002029A6000BF054B39
:1009E0009B6803F00C03082BF9D10C37BD465DF86A
:1009F000047B7047003802400070004008544007F4
:100A0000003C024080B483B000AF78607B681B6814
:100A100023F001027B681A607B6800221A607B6801
:100A200000225A607B6800229A607B680022DA60AC
:100A30007B6800221A617B6821225A617A68454BE3
:100A40009A4203D1444B3D229A607EE07A68434B40
:100A50009A4204D1404B4FF474629A6075E07A6810
:100A60003F4B9A4204D13C4B4FF474129A606CE0B5
:100A70007A683C4B9A4204D1374B4FF074629A60CB
:100A800063E07A68384B9A4203D1334B374ADA60D5
:100A90005BE07A68364B9A4203D12F4B354ADA60D5
:100AA00053E07A68344B9A4203D12B4B334ADA60D5
:100AB0004BE07A68324B9A4204D1274B4FF03D52BB
:100AC000DA6042E07A682F4B9A4203D12E4B3D22E6
:100AD0009A603AE07A682D4B9A4204D12A4B4FF43F
:100AE00074629A6031E07A68294B9A4204D1264BAD
:100AF0004FF474129A6028E07A68264B9A4204D127
:100B0000214B4FF074629A601FE07A68224B9A4240
:100B100003D11D4B154ADA6017E07A681F4B9A42E1
:100B200003D1194B134ADA600FE07A681C4B9A42E2
:100B300003D1154B114ADA6007E07A68194B9A42E3
:100B400003D1114B4FF03D52DA600C37BD465DF8D2
:100B5000047B704710600240006002402860024041
:100B60004060024058600240706002403D0000203A
:100B700088600240400F0020A060024000003D203D
:100B8000B8600240106402400064024028640240E1
:100B9000406402405864024070640240886402402D
:100BA000A0640240B864024080B485B000AF7860B1
:100BB00039600023FB607B681B68FB60FA68244B8C
:100BC0001340FB603B681A683B68DB681A433B686C
:100BD0005B691A433B689B691A433B68DB691A43AC
:100BE0003B681B6A1A433B685B6A1A433B689B6A13
:100BF0001A433B685B6B1A433B689B6B1343FA6871
:100C00001343FB607B68FA681A607B685B69FB6072
:100C1000FB6823F00703FB603B68DA6A3B681B6BE9
:100C20001343FA681343FB607B68FA685A613B68B8
:100C30001A697B685A603B685A687B689A603B68AF
:100C40009A687B68DA601437BD465DF8047B7047AC
:100C50003F801CF080B483B000AF78600B46FB701F
:100C6000FB78002B06D07B681B6843F001027B6891
:100C70001A6005E07B681B6823F001027B681A603C
:100C80000C37BD465DF8047B704700BF80B485B06B
:100C900000AFF860B9601346FB71BB6803F08003D6
:100CA000002B0FD0FB79002B06D0FB685B6943F06B
:100CB0008002FB685A6105E0FB685B6923F08002F3
:100CC000FB685A61BB68802B14D0FB79002B08D0DD
:100CD000FB681A68BB6803F01E031A43FB681A60BE
:100CE00008E0FB681A68BB6803F01E03DB431A4088
:100CF000FB681A601437BD465DF8047B704700BF7F
:100D000080B487B000AF786039600023FB750023A2
:100D1000FB600023BB607A68224B9A4202D8224BC8
:100D20003B6101E0214B3B613B6823F0F02323F062
:100D3000C313002B0AD03B68DB0A03F01E03FB60E1
:100D40007B681A68FB681340BB6004E07B685B69E2
:100D500003F08003BB603B6803F00053002B03D01B
:100D60003B695B68FB6002E03B691B68FB60FB68FA
:100D700023F0F02323F08213FB60FA683B681340F2
:100D8000002B05D0BB68002B02D00123FB7501E0CE
:100D90000023FB75FB7D18461C37BD465DF8047BC0
:100DA000704700BF0F6402400060024000640240D0
:100DB00080B485B000AF786039607A68104B9A4291
:100DC00002D8104BFB6001E00F4BFB603B6803F067
:100DD0000053002B07D03B6823F0F02323F082134D
:100DE000FA68D36006E03B6823F0F02323F0821317
:100DF000FA6893601437BD465DF8047B704700BF06
:100E00000F640240006002400064024080B582B07E
:100E100000AF1B4B00221A80194B00225A60184B5E
:100E200000229A600023BB8017E00023FB800DE0C6
:100E3000BA8813469B0013449B011A44FB88134451
:100E4000104A0021D154FB880133FB80FB88B3F5A5
:100E5000A07FEDD9BB880133BB80BB88EF2BE4D9E1
:100E600000F074F800F0C6F800F054F900F026F92C
:100E7000054B1A68024B9A600837BD4680BD00BF1B
:100E800024000020300000208864024080B584B037
:100E900000AF0346FB710023BB8114E00023FB81FC
:100EA0000AE0F989BA89FB79084611461A4600F02A
:100EB00011F8FB890133FB81FB89B3F5A07FF0D3E7
:100EC000BB890133BB81BB89EF2BE7D91037BD4606
:100ED00080BD00BF80B483B000AF13460246FA80E5
:100EE0000A46BA80FB70FB88B3F5A07F0AD3FA8864
:100EF000134BA3FB0213190A0B469B000B449B01E7
:100F0000D31AFB80BB88EF2B0AD9BA880D4BA3FB01
:100F10000213D9090B461B015B1A1B01D31ABB80B4
:100F2000BA8813469B0013449B011A44FB88134460
:100F3000054AF978D1540C37BD465DF8047B7047FB
:100F4000CDCCCCCC898888883000002080B582B098
:100F500000AF10200121FFF755FA4FF47F433B60AB
:100F600001233B710023BB710123FB7103237B71C0
:100F70003B461E481946FFF795FB1C4B4FF47F423A
:100F80005A8302200121FFF73DFA4FF400633B60D2
:100F900002233B7103237B710023BB710123FB718F
:100FA0003B4613481946FFF77DFB11480B210122F0
:100FB000FFF73CFC02200121FFF724FA4FF4805395
:100FC0003B6001233B710023BB710123FB710323B1
:100FD0007B713B4606481946FFF764FB044B4FF410
:100FE00080521A830837BD4680BD00BF0010024002
:100FF0000004024080B588B000AF01200121FFF756
:101000003DFA0B23BB610023BB820023BB8300237B
:10101000FB8207F114032848194600F0A7FA0120C3
:101020000121FFF70DFA40F66B23BB610023BB8261
:101030000023BB830023FB8207F114034FF08040A1
:10104000194600F093FA60233B8001237B804FF424
:10105000D273BB600223BB813B464FF080401946F0
:1010600000F02EFB4FF08040082100F015FC6023BB
:101070003B8001237B804FF4A073BB600223BB81C4
:101080003B464FF08040194600F0A0FB4FF08040F7
:10109000082100F01DFC0848012100F0D1FA4FF0B2
:1010A0008040012100F0CCFA4FF08040012100F097
:1010B000E7FA2037BD4680BD0000014080B582B010
:1010C00000AF134810210122FFF7E0FD44233B71DC
:1010D00000237B710023BB710123FB713B1D18466C
:1010E00000F0E2F84FF080400821012200F00EFCF1
:1010F0001C233B7100237B710023BB710123FB7117
:101100003B1D184600F0D0F80837BD4680BD00BF33
:101110008864024080B590B000AF4FF48000012198
:10112000FFF770F91B480021FFF794FD1948FFF7FE
:1011300069FC4FF040637B60174BBB60174BFB6053
:1011400040233B6140F241137B610023BB614FF4BC
:101150008063FB6100233B6200237B620023BB6250
:101160004FF44033FB6200233B6301237B63002386
:10117000BB630023FB633B1D06481946FFF714FDC4
:1011800007484FF48071012200F0F4FB4037BD4660
:1011900080BD00BF8864024015100240300000206E
:1011A0000000014080B500AF4FF08040082100F002
:1011B000D1FB254B1B8801339AB2234B1A80224B5B
:1011C0001B88B3F5037F05D91F4B00221A801F4AE5
:1011D0001D4B5A601C4B1B88012B04D81C4B4FF431
:1011E00080525A8303E01A4B4FF480521A83164BF5
:1011F0001B88232B27D9144B1A8840F202239A42CA
:1012000021D8144B104A92681A60124B0E4A526849
:10121000DA60114B104A128892B242F0010292B287
:101220001A800C4B0B4A126842F001021A60064BFE
:101230001B8803F00103002B05D0034B5B6803F20E
:101240004112014B5A6080BD240000203000002074
:1012500000040240886402400000014080B500AFF5
:101260000D480E49FFF74CFD0346002B12D00A48EB
:101270000A49FFF79DFD0A4B094A128892B222F0F3
:10128000010292B21A80044B00221A60054B4FF4FF
:101290007F425A8380BD00BF8864024000880020DE
:1012A000000001400010024080B485B000AF7860BB
:1012B0000023FB730023BB730F237B737B68DB78F6
:1012C000002B37D0254BDB68DB4303F4E0631B0ABC
:1012D000FB73FB7BC3F10403BB737A7BFB7B42FA9A
:1012E00003F37B737B685B781A46BB7B02FA03F3DC
:1012F000FB737B689A787B7B1340DAB2FB7B1343EA
:10130000FB73FB7B1B01FB73154A7B681B78134443
:10131000FA7B83F80023124B7A6812785209D2B212
:101320007968097801F01F01012000FA01F143F802
:1013300022100EE00A4B7A6812785209D2B279680C
:10134000097801F01F01012000FA01F1203243F871
:1013500022101437BD465DF8047B704700ED00E0B5
:1013600000E100E080B584B000AFF860B9601346DA
:10137000FB71FB6899B2BB689AB2FB7908461146CB
:101380001A46FFF7A7FD1037BD4680BD80B58AB06D
:1013900000AFF860B9607A60FB707B681B68FB6126
:1013A0007B685B68BB6100237B6226E000233B62B5
:1013B0001CE03B6AFA6902FB03F27B6A13447A6819
:1013C00013441B7AFB75FA7DFB789A420BD0FA68BE
:1013D0007B6AD118BA683B6A1A44FB7D08461146FD
:1013E0001A46FFF7BFFF3B6A01333B623A6ABB69AB
:1013F0009A42DEDB7B6A01337B627A6AFB699A423E
:10140000D4DB2837BD4680BD80B58CB000AF786096
:101410000B46FB707B681B687B627B685B683B628A
:10142000FB78002B65D1786A00F01AFC02460B4667
:10143000104619464FF000024A4B00F0A1FD02464B
:101440000B461046194600F083FE0346FB61386ADE
:1014500000F006FC02460B46104619464FF000020B
:10146000414B00F08DFD02460B461046194600F038
:101470006FFE0346BB610023FB6235E00023BB62C5
:101480002CE0F86A00F06EFF03461846F96900F098
:10149000BDFF0346184601F009F903467B61B86AAF
:1014A00000F060FF03461846B96900F0AFFF03463D
:1014B000184601F0FBF803463B613B697A6A02FB80
:1014C00003F27B6913447A6813441B7AF86AB96A99
:1014D0001A46FFF747FFBB6A0133BB62BB6AEF2BBB
:1014E000CFDDFB6A0133FB62FB6AB3F5A07FC5DB8E
:1014F00035E0FB78012B32D10023FB622BE0002387
:10150000BB6222E0FB6A7A6A93FBF2F2796A01FB22
:1015100002F29B1AFB60BB6A3A6A93FBF2F2396AE9
:1015200001FB02F29B1ABB60BB687A6A02FB03F202
:10153000FB6813447A6813441B7AF86AB96A1A463E
:10154000FFF710FFBB6A0133BB62BB6AEF2BD9DD2B
:10155000FB6A0133FB62FB6AB3F5A07FCFDB303758
:10156000BD4680BD0000744000006E4080B485B070
:1015700000AF786039600023FB817B681B88FB81AA
:101580007A68284B9A4213D07A68274B9A420FD038
:101590007B68B3F1804F0BD07A68244B9A4207D016
:1015A0007A68234B9A4203D07A68224B9A4208D138
:1015B000FB8923F07003FB813B685A88FB89134346
:1015C000FB817A681C4B9A420CD07A681B4B9A427A
:1015D00008D0FB8923F44073FB813B681A89FB899F
:1015E0001343FB817B68FA891A803B685A687B68E1
:1015F000DA623B681A887B681A857A68094B9A42D6
:1016000003D07A68084B9A4204D13B689B7A1A4609
:101610007B681A867B6801229A821437BD465DF882
:10162000047B7047000001400004014000040040BA
:1016300000080040000C0040001000400014004072
:1016400080B483B000AF78600B46FB70FB78002B52
:1016500008D07B681B889BB243F080039AB27B68FA
:101660001A8007E07B681B889BB223F080039AB244
:101670007B681A800C37BD465DF8047B704700BF5D
:1016800080B483B000AF78600B46FB70FB78002B12
:1016900008D07B681B889BB243F001039AB27B6839
:1016A0001A8007E07B681B889BB223F001039AB283
:1016B0007B681A800C37BD465DF8047B704700BF1D
:1016C00080B485B000AF7860396000237B8100234F
:1016D000FB810023BB817B681B8C9BB223F480734E
:1016E0009AB27B681A847B681B8CFB817B689B8821
:1016F000BB817B689B8B7B817B8923F070037B8123
:101700007B8923F003037B813B681A887B89134321
:101710007B81FB8923F40073FB813B689B891B025F
:101720009AB2FB891343FB813B685B881B029AB228
:10173000FB891343FB817A68224B9A4203D07A6873
:10174000214B9A422BD1FB8923F40063FB813B6838
:10175000DB891B029AB2FB891343FB81FB8923F4CB
:101760008063FB813B689B881B029AB2FB89134311
:10177000FB81BB8923F48053BB81BB8923F40053D5
:10178000BB813B681B8A1B019AB2BB891343BB8197
:101790003B685B8A1B019AB2BB891343BB817B68A0
:1017A000BA899A807B687A899A833B689A687B6851
:1017B000DA637B68FA891A841437BD465DF8047BC6
:1017C000704700BF000001400004014080B485B0B4
:1017D00000AF786039600023BB8100237B81002348
:1017E000FB817B681B8C9BB223F480539AB27B688D
:1017F0001A847B681B8C7B817B689B88FB817B6860
:101800009B8BBB81BB8923F4E043BB81BB8923F461
:101810004073BB813B681B881B029AB2BB89134390
:10182000BB817B8923F400537B813B689B891B032D
:101830009AB27B8913437B813B685B881B039AB216
:101840007B8913437B817A68114B9A4203D07A6873
:10185000104B9A420AD1FB8923F48043FB813B68F9
:101860001B8A9B019AB2FB891343FB817B68FA892F
:101870009A807B68BA899A833B689A687B681A6405
:101880007B687A891A841437BD465DF8047B7047FB
:10189000000001400004014080B485B000AF7860D2
:1018A0000B467B800023FB817B689B8BFB81FB8944
:1018B00023F00803FB81FA897B881343FB817B6853
:1018C000FA899A831437BD465DF8047B704700BFE0
:1018D00080B485B000AF78600B467B800023FB812D
:1018E0007B689B8BFB81FB8923F40063FB817B88F6
:1018F0001B029AB2FB891343FB817B68FA899A83A6
:101900001437BD465DF8047B704700BF80B483B0D8
:1019100000AF786013460A467A807B707B78002B94
:1019200008D07B689B899AB27B8813439AB27B6804
:101930009A8109E07B689B899AB27B88DB439BB2E2
:1019400013409AB27B689A810C37BD465DF8047BE0
:10195000704700BF80B483B000AF78600B467B80D7
:101960007B88DB439AB27B681A820C37BD465DF8F0
:10197000047B704780B483B000AF786013460A469A
:101980007A807B707B78002B08D07B689B899AB229
:101990007B8813439AB27B689A8109E07B689B89B4
:1019A0009AB27B88DB439BB213409AB27B689A81E0
:1019B0000C37BD465DF8047B704700BF81F00041E5
:1019C00002E000BF83F0004330B54FEA41044FEA24
:1019D000430594EA050F08BF90EA020F1FBF54EABF
:1019E000000C55EA020C7FEA645C7FEA655C00F05B
:1019F000E2804FEA5454D4EB5555B8BF6D420CDD2C
:101A00002C4480EA020281EA030382EA000083EAAE
:101A1000010180EA020281EA0303362D88BF30BD4E
:101A200011F0004F4FEA01314FF4801C4CEA1131A4
:101A300002D0404261EB410113F0004F4FEA033303
:101A40004CEA133302D0524263EB430394EA050F8E
:101A500000F0A780A4F10104D5F1200E0DDB02FAFD
:101A60000EFC22FA05F2801841F1000103FA0EF291
:101A7000801843FA05F359410EE0A5F120050EF157
:101A8000200E012A03FA0EFC28BF4CF0020C43FA88
:101A900005F3C01851EBE37101F0004507D54FF095
:101AA000000EDCF1000C7EEB00006EEB0101B1F5E5
:101AB000801F1BD3B1F5001F0CD349085FEA30002B
:101AC0004FEA3C0C04F101044FEA445212F5800F36
:101AD00080F09A80BCF1004F08BF5FEA500C50F1D3
:101AE000000041EB045141EA050130BD5FEA4C0CB6
:101AF000404141EB010111F4801FA4F10104E9D13F
:101B000091F0000F04BF01460020B1FA81F308BF35
:101B10002033A3F10B03B3F120020CDA0C3208DD01
:101B200002F1140CC2F10C0201FA0CF021FA02F1DC
:101B30000CE002F11402D8BFC2F1200C01FA02F14C
:101B400020FA0CFCDCBF41EA0C019040E41AA2BF71
:101B500001EB0451294330BD6FEA04041F3C1CDA39
:101B60000C340EDC04F11404C4F1200220FA04F059
:101B700001FA02F340EA030021FA04F345EA030103
:101B800030BDC4F10C04C4F1200220FA02F001FAC5
:101B900004F340EA0300294630BD21FA04F0294647
:101BA00030BD94F0000F83F4801306BF81F48011E0
:101BB0000134013D4EE77FEA645C18BF7FEA655C53
:101BC00029D094EA050F08BF90EA020F05D054EA25
:101BD000000C04BF1946104630BD91EA030F1EBF2A
:101BE0000021002030BD5FEA545C05D1400049412E
:101BF00028BF41F0004130BD14F580043CBF01F521
:101C0000801130BD01F0004545F0FE4141F4700106
:101C10004FF0000030BD7FEA645C1ABF19461046E1
:101C20007FEA655C1CBF0B46024650EA013406BFE2
:101C300052EA033591EA030F41F4002130BD00BFA1
:101C400090F0000F04BF0021704730B54FF480645E
:101C500004F132044FF000054FF0000150E700BFDF
:101C600090F0000F04BF0021704730B54FF480643E
:101C700004F1320410F0004548BF40424FF000012B
:101C80003EE700BF42004FEAE2014FEA31014FEA6E
:101C900002701FBF12F07F4393F07F4F81F06051BD
:101CA000704792F0000F14BF93F07F4F704730B52C
:101CB0004FF4607401F0004521F0004120E700BFBF
:101CC00050EA010208BF704730B54FF000050AE046
:101CD00050EA010208BF704730B511F0004502D547
:101CE000404261EB41014FF4806404F132045FEA49
:101CF000915C3FF4DCAE4FF003025FEADC0C18BFEE
:101D000003325FEADC0C18BF033202EBDC02C2F1E3
:101D1000200300FA03FC20FA02F001FA03FE40EA75
:101D20000E0021FA02F11444C1E600BF70B54FF075
:101D3000FF0C4CF4E06C1CEA11541DBF1CEA135557
:101D400094EA0C0F95EA0C0F00F0DEF82C4481EABF
:101D5000030621EA4C5123EA4C5350EA013518BFDF
:101D600052EA033541F4801143F4801338D0A0FBCC
:101D700002CE4FF00005E1FB02E506F00042E0FB79
:101D800003E54FF00006E1FB03569CF0000F18BF7F
:101D90004EF0010EA4F1FF04B6F5007F64F5407427
:101DA00004D25FEA4E0E6D4146EB060642EAC621BA
:101DB00041EA55514FEAC52040EA5E504FEACE2E27
:101DC000B4F1FD0C88BFBCF5E06F1ED8BEF1004F2A
:101DD00008BF5FEA500E50F1000041EB045170BDA6
:101DE00006F0004646EA010140EA020081EA0301EA
:101DF000B4EB5C04C2BFD4EB0C0541EA045170BDE6
:101E000041F480114FF0000E013C00F3AB8014F15F
:101E1000360FDEBF002001F0004170BDC4F10004A8
:101E2000203C35DA0C341BDC04F11404C4F1200529
:101E300000FA05F320FA04F001FA05F240EA020084
:101E400001F0004221F0004110EBD37021FA04F6BA
:101E500042EB06015EEA430E08BF20EAD37070BD74
:101E6000C4F10C04C4F1200500FA04F320FA05F0D3
:101E700001FA04F240EA020001F0004110EBD370D5
:101E800041F100015EEA430E08BF20EAD37070BD45
:101E9000C4F1200500FA05F24EEA020E20FA04F31E
:101EA00001FA05F243EA020321FA04F001F00041CD
:101EB00021FA04F220EA020000EBD3705EEA430E3E
:101EC00008BF20EAD37070BD94F0000F0FD101F06D
:101ED0000046400041EB010111F4801F08BF013CA6
:101EE000F7D041EA060195F0000F18BF704703F0E4
:101EF0000046520043EB030313F4801F08BF013D6B
:101F0000F7D043EA0603704794EA0C0F0CEA135526
:101F100018BF95EA0C0F0CD050EA410618BF52EAE0
:101F20004306D1D181EA030101F000414FF00000E6
:101F300070BD50EA410606BF1046194652EA4306F4
:101F400019D094EA0C0F02D150EA013613D195EA68
:101F50000C0F05D152EA03361CBF104619460AD1B0
:101F600081EA030101F0004141F0FE4141F47001BA
:101F70004FF0000070BD41F0FE4141F4780170BDAA
:101F800070B54FF0FF0C4CF4E06C1CEA11541DBF0F
:101F90001CEA135594EA0C0F95EA0C0F00F0A7F811
:101FA000A4EB050481EA030E52EA03354FEA01313E
:101FB00000F088804FEA03334FF0805545EA131351
:101FC00043EA12634FEA022245EA111545EA106519
:101FD0004FEA00260EF000419D4208BF964244F1B0
:101FE000FD0404F5407402D25B084FEA3202B61ACF
:101FF00065EB03055B084FEA32024FF480104FF4A3
:10200000002CB6EB020E75EB030E22BFB61A754616
:1020100040EA0C005B084FEA3202B6EB020E75EBA9
:10202000030E22BFB61A754640EA5C005B084FEA11
:102030003202B6EB020E75EB030E22BFB61A7546DE
:1020400040EA9C005B084FEA3202B6EB020E75EBE9
:10205000030E22BFB61A754640EADC0055EA060EAA
:1020600018D04FEA051545EA16754FEA06164FEAED
:10207000C30343EA52734FEAC2025FEA1C1CC0D199
:1020800011F4801F0BD141EA00014FF000004FF026
:10209000004CB6E711F4801F04BF01430020B4F1E7
:1020A000FD0C88BFBCF5E06F3FF6AFAEB5EB030C9F
:1020B00004BFB6EB020C5FEA500C50F1000041EB9C
:1020C000045170BD0EF0004E4EEA113114EB5C0469
:1020D000C2BFD4EB0C0541EA045170BD41F480113C
:1020E0004FF0000E013C90E645EA060E8DE60CEA44
:1020F000135594EA0C0F08BF95EA0C0F3FF43BAF61
:1021000094EA0C0F0AD150EA01347FF434AF95EA17
:102110000C0F7FF425AF104619462CE795EA0C0FFB
:1021200006D152EA03353FF4FDAE1046194622E7C8
:1021300050EA410618BF52EA43067FF4C5AE50EAA2
:1021400041047FF40DAF52EA43057FF4EBAE12E792
:102150004FEA4102B2F1E04324BFB3F5001CDCF1C9
:10216000FE5C0DD901F0004C4FEAC0024CEA507001
:10217000B2F1004F40EB830008BF20F00100704730
:1021800011F0804F21D113F13872BCBF01F0004033
:10219000704741F480114FEA5252C2F11802C2F165
:1021A000200C10FA0CF320FA02F018BF40F00100E6
:1021B0004FEAC1234FEAD32303FA0CFC40EA0C0098
:1021C00023FA02F34FEA4303CCE77FEA625307D1D5
:1021D00050EA01331EBF4FF0FE4040F4400070470C
:1021E00001F0004040F0FE4040F40000704700BFA6
:1021F00080F0004002E000BF81F0004142001FBFBC
:102200005FEA410392EA030F7FEA226C7FEA236CC4
:102210006AD04FEA1262D2EB1363C1BFD2184140B9
:1022200048404140B8BF5B42192B88BF704710F04F
:10223000004F40F4000020F07F4018BF404211F0F2
:10224000004F41F4000121F07F4118BF494292EA5A
:10225000030F3FD0A2F1010241FA03FC10EB0C0086
:10226000C3F1200301FA03F100F0004302D5494213
:1022700060EB4000B0F5000F13D3B0F1807F06D3C0
:1022800040084FEA310102F10102FE2A51D2B1F1B8
:10229000004F40EBC25008BF20F0010040EA0300AD
:1022A0007047490040EB000010F4000FA2F101025A
:1022B000EDD1B0FA80FCACF1080CB2EB0C0200FAE4
:1022C0000CF0AABF00EBC25052421843BCBFD04032
:1022D0001843704792F0000F81F4000106BF80F4AC
:1022E00000000132013BB5E74FEA41037FEA226C6F
:1022F00018BF7FEA236C21D092EA030F04D092F03A
:10230000000F08BF0846704790EA010F1CBF00206D
:10231000704712F07F4F04D1400028BF40F00040CA
:10232000704712F100723CBF00F50000704700F0EA
:10233000004343F0FE4040F4000070477FEA226211
:1023400016BF08467FEA23630146420206BF5FEAE2
:10235000412390EA010F40F4800070474FF00003E2
:1023600004E000BF10F0004348BF40425FEA000CA9
:1023700008BF704743F0964301464FF000001CE051
:1023800050EA010208BF70474FF000030AE000BFA7
:1023900050EA010208BF704711F0004302D54042E5
:1023A00061EB41015FEA010C02BF84460146002057
:1023B00043F0B64308BFA3F18053A3F50003BCFA72
:1023C0008CF2083AA3EBC25310DB01FA02FC63441F
:1023D00000FA02FCC2F12002BCF1004F20FA02F226
:1023E00043EB020008BF20F00100704702F1200219
:1023F00001FA02FCC2F1200250EA4C0021FA02F27A
:1024000043EB020008BF20EADC7070474FF0FF0C7E
:102410001CEAD0521EBF1CEAD15392EA0C0F93EA79
:102420000C0F6FD01A4480EA010C400218BF5FEA1B
:1024300041211ED04FF0006343EA501043EA51118E
:10244000A0FB01310CF00040B1F5000F3EBF490088
:1024500041EAD3715B0040EA010062F17F02FD2A8C
:102460001DD8B3F1004F40EBC25008BF20F001006F
:10247000704790F0000F0CF0004C08BF49024CEA86
:10248000502040EA51207F3AC2BFD2F1FF0340EA18
:10249000C250704740F400004FF00003013A5DDC89
:1024A00012F1190FDCBF00F000407047C2F10002CA
:1024B000410021FA02F1C2F1200200FA02FC5FEAB7
:1024C000310040F1000053EA4C0308BF20EADC7001
:1024D000704792F0000F00F0004C02BF400010F473
:1024E000000F013AF9D040EA0C0093F0000F01F020
:1024F000004C02BF490011F4000F013BF9D041EA42
:102500000C018FE70CEAD15392EA0C0F18BF93EA43
:102510000C0F0AD030F0004C18BF31F0004CD8D16D
:1025200080EA010000F00040704790F0000F17BFF4
:1025300090F0004F084691F0000F91F0004F14D03A
:1025400092EA0C0F01D142020FD193EA0C0F03D192
:102550004B0218BF084608D180EA010000F0004095
:1025600040F0FE4040F40000704740F0FE4040F470
:10257000400070474FF0FF0C1CEAD0521EBF1CEA0F
:10258000D15392EA0C0F93EA0C0F69D0A2EB03022D
:1025900080EA010C49024FEA402037D04FF08053C7
:1025A00043EA111143EA10130CF000408B4238BF8C
:1025B0005B0042F17D024FF4000C8B4224BF5B1A9A
:1025C00040EA0C00B3EB510F24BFA3EB510340EAE8
:1025D0005C00B3EB910F24BFA3EB910340EA9C0096
:1025E000B3EBD10F24BFA3EBD10340EADC001B0106
:1025F00018BF5FEA1C1CE0D1FD2A3FF650AF8B42AA
:1026000040EBC25008BF20F0010070470CF0004CB6
:102610004CEA50207F32C2BFD2F1FF0340EAC250E1
:10262000704740F400004FF00003013A37E792F0A2
:10263000000F00F0004C02BF400010F4000F013A00
:10264000F9D040EA0C0093F0000F01F0004C02BFFB
:10265000490011F4000F013BF9D041EA0C0195E764
:102660000CEAD15392EA0C0F08D142027FF47DAFFD
:1026700093EA0C0F7FF470AF084676E793EA0C0FED
:1026800004D14B023FF44CAF08466EE730F0004CEB
:1026900018BF31F0004CCAD130F000427FF45CAF7B
:1026A00031F000437FF43CAF5FE700BF4FEA4002E8
:1026B000B2F1FE4F0FD34FF09E03B3EB12620DD970
:1026C0004FEA002343F0004310F0004F23FA02F0DA
:1026D00018BF404270474FF00000704712F1610F81
:1026E00001D1420205D110F0004008BF6FF0004058
:1026F00070474FF00000704700202020404040000D
:1027000080000000005050A0000000000000000009
:1027100000242448FC48FC909000000008385450E5
:102720003018A8A87040000000007080910092004E
:10273000E40009C012402240438000000000000075
:10274000000E121438D794887700000000404080B3
:102750000000000000000000001020404080808049
:1027600080804000002010101010102020408000B9
:102770000020A870A8200000000000000010101029
:10278000FE1010100000000000000000000000001B
:1027900040800000000000000000E0000000000099
:1027A0000000000000000000800000000008101081
:1027B00020204040800000000030484888889090E9
:1027C000600000000030102020202040E0000000C9
:1027D0000030480810102050F00000000038481069
:1027E00060101010E0000000000C18284850F8108D
:1027F00020000000001C203008080810E000000045
:102800000018207088888890600000000078901080
:102810002020404080000000001824241868888888
:10282000700000000018244444483810E000000004
:1028300000000000400000008000000000000000D8
:102840002000000040800000000000087080700838
:1028500000000000000000F800F800000000000088
:102860000000008070087080000000000060909000
:10287000204040008000000000001E0021004E802B
:102880009280A280A480A500BE00408061001E004E
:1028900000040C14143C2444EE000000003C1222FE
:1028A0003C242444F8000000003A464480808084A0
:1028B00078000000003E112121212246F80000008E
:1028C000003E12243C282044F8000000003F112460
:1028D0003C282040E0000000003A46C4808E8484FA
:1028E0007800000000003B80110022003E00220022
:1028F00022004400EE00000000000000003810201C
:1029000020202040E0000000001C0810101020A033
:10291000C0000000003B162830302848EE000000C0
:102920000038102020202048F8000000000030600F
:10293000108029802A802A802C804900EB800000AA
:1029400000000000000031C0108028802900250010
:1029500025004200E200000000000000001C2242AE
:102960008282848C70000000003C1222223C2040B5
:10297000E0000000001C224282828488F044F800BB
:10298000003C12223C282844E6000000001A2420C3
:1029900010084848B0000000007C5420202020404F
:1029A000E000000000E74284848484887000000016
:1029B000E6444850A0A0C080000000000000DD8078
:1029C00049005A009200B400D400D80090000000E2
:1029D0000000000000001BC009000A000C000C00F1
:1029E00014002400EE0000000000000000EC484845
:1029F00050204040E0000000003E440810102044F9
:102A0000FC000000382020204040404080E00000D2
:102A1000008080808080808080000000001C04088E
:102A2000080810101020E00000002050880000006E
:102A30000000000000000000000000000000FC009A
:102A400000804000000000000000000000000000C6
:102A500038488890F800000000602040784888904E
:102A6000600000000000000030508090E000000096
:102A7000000C040838489090F800000000000000A6
:102A80003050E090E0000000060A103810102020BE
:102A9000A0C00000000000003C4870407088F000BA
:102AA0000060204058684890980000000000200016
:102AB000C0404080C000000000000800301010201E
:102AC00020A0C00000602040586060A89000000076
:102AD0000060204040404080C00000000000000036
:102AE000DB6D49929300000000000000D868489018
:102AF000980000000000000038488890E0000000C6
:102B0000000000006C3424487040C0000000000049
:102B100038488890F010300000000000D0604080FD
:102B20008000000000000000604020A0C000000005
:102B300000000040E0404080C000000000000000B5
:102B4000C8484890F800000000000000D0505060D5
:102B50004000000000000000D454547850000000F1
:102B600000000000502020509000000000000000F5
:102B70003414141810A0C000000000007850205039
:102B8000F00000000018202040804040808040007D
:102B90000080808080808080808080000010080815
:102BA000101008102020C0000000000000E49C006D
:102BB000000000000300000000000000040000000E
:102BC0000C000000060000001800000006000000D5
:102BD000240000000A00000030000000080000008F
:102BE0004800000002000000540000000400000043
:102BF00060000000040000006C0000000500000000
:102C000078000000070000008400000002000000BF
:102C100090000000030000009C0000000100000084
:102C2000A800000005000000B4000000050000003E
:102C3000C000000004000000CC00000005000000FF
:102C4000D800000005000000E400000006000000BD
:102C5000F000000006000000FC000000050000007D
:102C6000080100000500000014010000060000003B
:102C700020010000060000002C01000002000000FE
:102C800038010000030000004401000005000000BE
:102C900050010000050000005C010000050000007C
:102CA0006801000004000000740100000900000039
:102CB00080010000070000009801000007000000EC
:102CC000A401000007000000B0010000080000009F
:102CD000BC01000007000000C8010000080000005F
:102CE000D401000007000000E0010000090000001E
:102CF000EC010000050000000402000006000000D6
:102D000010020000080000001C0200000500000086
:102D1000280200000B000000340200000A0000003E
:102D20004C020000070000006402000007000000E1
:102D300070020000070000007C0200000700000095
:102D40008802000007000000940200000600000056
:102D5000A002000008000000AC0200000700000014
:102D6000B802000009000000C40200000A000000D0
:102D7000DC02000006000000F40200000700000072
:102D800000030000050000000C030000010000002B
:102D900018030000060000002403000005000000E6
:102DA00030030000060000003C03000002000000A9
:102DB0004803000005000000540300000500000067
:102DC00060030000040000006C0300000600000027
:102DD00078030000040000008403000007000000E6
:102DE00090030000060000009C03000005000000A6
:102DF000A803000003000000B40300000500000069
:102E0000C003000005000000CC0300000300000028
:102E1000D803000008000000E403000005000000E3
:102E2000F003000005000000FC03000006000000A5
:102E30000804000005000000140400000400000065
:102E400020040000030000002C0400000300000028
:102E500038040000050000004404000004000000E5
:102E600050040000060000005C04000004000000A4
:102E70006804000006000000740400000500000063
:102E800080040000050000008C0400000100000028
:102E90009804000005000000A404000006000000E3
:102EA000B00400000C000000217E000002000000C1
:102EB000B42B0008F82600080018183030303020F5
:102EC000206040400000C0C0000000000000D8D8D2
:102ED000D8909000000000000000000000000000FA
:102EE000000000000CC00CC018C01980FFE0FFE01B
:102EF000198031803300FFE0FFE03300630066009B
:102F000066000000000000000000000001000F80CB
:102F10001AC032603200320034001C000700058005
:102F200004C008C0C8C0C9806B803E00100000000B
:102F300000000000000000003E067F0C6318C33054
:102F4000C330C660FEC07D8001BE037F06630CC334
:102F50000CC318C630FE607C0000000000000000BA
:102F6000000007800FC01CC018C018801B000E0096
:102F70003C006600C310C1B0C0E0E1E07F703E20BD
:102F80000000000000000000000000C0C0C0808001
:102F90000000000000000000000000000000000031
:102FA0000408103030606060C0C0C0C0C0C0C0C085
:102FB00040602000001018080C0C0C0C0C0C0C0CC1
:102FC000181818303020408000001818FF183C6690
:102FD00000000000000000000000000000000000F1
:102FE0000000000000000C000C000C000C00FFC0F2
:102FF000FFC00C000C000C000C00000000000000E2
:1030000000000000000000000000000000000000C0
:1030100000000000000060602040C00000000000D0
:10302000000000000000FCFC0000000000000000A8
:103030000000000000000000000000000000000090
:10304000C0C00000000000000000C001800180033B
:10305000000300060006000C0018001800300030C5
:103060000060006000C000000000000000000000E0
:1030700000000007801FC038E03060606060606062
:1030800060C060C0E0C0C0C0C0C180E3807F003CC1
:10309000000000000000000000000000060C1C7C86
:1030A000EC8C0C1818181818303030000000000094
:1030B00000000F803FC030E070606060006000C0C2
:1030C000018007000E00180030006000FFC0FFC044
:1030D00000000000000000000000000007801FC08A
:1030E00018E03060006000C00780078001C000C0A9
:1030F00000C0C0C0E1807F003E0000000000000072
:1031000000000000000000E001E0036006C00CC009
:1031100018C030C061C0C180FFE0FFE001800380C3
:103120000300030000000000000000000000000099
:103130000FE01FE018001000300037803FC070E043
:10314000006000600060C0C0E1C07F803E00000001
:103150000000000000000000000007801FC0386071
:10316000306070006F00FF80F1C0E0C0C0C0C0C020
:10317000C1C063807F003E0000000000000000002E
:1031800000000000FFC0FFC00180030006000C002B
:103190000C00180030003000600060006000C000CB
:1031A000C0000000000000000000000000000F80D0
:1031B0001FC038E03060306038C01F803F8061C081
:1031C000C0C0C0C0C0C0E1807F003E000000000061
:1031D00000000000000000000F001F8031C070C020
:1031E00060C060C061C071C03FC01D800180C380ED
:1031F000C7007E003C00000000000000000000004E
:103200000000000000303000000000000000C0C0DE
:10321000000000000000000000001818000000007E
:1032200000000060602040C00000000000000000BE
:10323000008003800F001C007000C00070001C00A4
:103240000F0003800080000000000000000000006C
:10325000000000000000000000000000000000006E
:10326000FF80FF8000000000FF80FF800000000062
:10327000000000000000000000000000000000004E
:10328000000000008000E00078001C0007000180C2
:1032900007001C007800E000800000000000000033
:1032A000000000000000000000003E007F0063807E
:1032B000C180018003000E001C0038007000600017
:1032C00000000000C000C00000000000000000007E
:1032D000000000000003F8000FFE001E0F0038037E
:1032E0008031E78063F6C0671CC0C60CC0CC0CC040
:1032F000CC0CC0CC1CC0CC1980CE3B80C7FF006377
:103300009E007000E03801C01E07800FFF0003FC24
:1033100000000000E001B001B00330033006300EC1
:10332000300C301C301FF03FF8301860186018C0A7
:10333000180000000000000000000000001FE01F57
:10334000F030303030303030603FC07FE06070604F
:103350003060306030C060FFE0FF8000000000009F
:103360000000000000000007C01FE0383070186047
:1033700018E000C000C000C000C000C030E06070B5
:10338000E03FC01F0000000000000000000000003F
:10339000001FE01FF01838301C300C300C300C309F
:1033A0000C600C6018601860306070FFE0FF8000F7
:1033B00000000000000000000000001FF81FF838A7
:1033C000003000300030003FF07FF06000600060AF
:1033D000006000E000FFF0FFE000000000000000DF
:1033E00000000000001FF81FF81800300030003007
:1033F000003FF03FF060006000600060006000C0CF
:1034000000C00000000000000000000000000007F5
:10341000E01FF03C383018600C6000C000C1F8C1FB
:10342000F8C018C018E03070703FE01F8000000046
:1034300000000000000000000018061806380630E2
:103440000C300C300C3FFC7FFC601860186018607A
:1034500018E038C030C0300000000000000000005C
:103460000000181838303030307060606060E0C0A4
:10347000C00000000000000000C000C000C00180CB
:10348000018001800180018003000300C300C300AC
:10349000C600FE007C0000000000000000000000EC
:1034A0000000180C1818183030E031C03300370015
:1034B0003F007980718060C060C06060C030C03003
:1034C00000000000000000000000000018001800CC
:1034D00038003000300030003000700060006000C4
:1034E00060006000E000FFC0FFC0000000000000BE
:1034F000000000000000001C07801E0780360D0041
:10350000360F00361B00361B003633006636006669
:10351000660063660063460063C600C38C00C38C0C
:1035200000C30C00000000000000000000000000CC
:1035300000000000001C061C063E06360C370C334B
:103540000C330C718C6198619860D860D8E0D8C059
:1035500070C07000000000000000000000000007C4
:10356000C01FF03C387018600CE00CC00CC00CC0E0
:103570000CC01CC018603870F03FE00F80000000E5
:103580000000000000000000001FF01FF8181C30B1
:103590000C300C301C30383FF07FE0600060006081
:1035A000006000C000C0000000000000000000003B
:1035B00000000007C01FF03C387018600CE00CC021
:1035C0000CC00CC00CC018C11863B070E03FE00F15
:1035D000F00030001000000000000000001FF01F8D
:1035E000FC380C300C300C301C3FF87FE060C060C1
:1035F000C060606060E030C030C0180000000000B3
:10360000000000000000000FC01FF03838301830F4
:103610000038001F0007C001E00070C030C030E07B
:10362000707FE01F8000000000000000000000002C
:1036300000FFF0FFF0060006000C000C000C000C70
:1036400000180018001800180018003000300000A2
:103650000000000000000000000000300C300C30C2
:103660001860186018601860306030C030C030C01A
:1036700060C060E0E07FC01F0000000000000000AC
:103680000000000000C030C030C060C060C0C0C0DA
:10369000C0E18063006300660066006C006C003867
:1036A00000380000000000000000000000000000E2
:1036B000C07018C07018C0F030C0F030C1B060C128
:1036C000B060E338C0E338C06639806C19806C1B89
:1036D00000781E00781E00701C00701C00000000A6
:1036E00000000000000000000000000000001803BF
:1036F0001C060C0C06180630036003C00180038012
:1037000006C00C60186030306030C0180000000047
:103710000000000000000000C030C030606060C0E9
:1037200030C031801B001B000E000C000C000C0090
:103730001C0018001800000000000000000000003D
:1037400000003FF03FF00030006000C00180030047
:10375000060006000C00180030006000FFE0FFE0EB
:1037600000000000000000000000000F0F1C1818EF
:10377000181830303030306060606060F0F0000069
:10378000C0C0C0C0606060606060603030303000D9
:1037900000000000000F0F0303060606060C0C0CC9
:1037A000181818183030F0F00000000C001E001E31
:1037B000003300330061806180C0C0000000000061
:1037C00000000000000000000000000000000000F9
:1037D00000000000000000000000000000000000E9
:1037E00000000000000000000000000000000000D9
:1037F00000000000000000FFF8FFF8000000E0609B
:103800003000000000000000000000000000000088
:103810000000000000000000000000001F003FC08A
:1038200070C000C01FC07FC0E180C180C380FF8026
:103830007D80000000000000000000000000180073
:1038400018003800300037803FC038E0706060609A
:103850006060606060C0F1C0DF80CF0000000000E9
:103860000000000000000000000000000000000058
:103870000F003F8071C060C0C000C000C000C180A8
:10388000E3007F003C00000000000000000000009A
:10389000000000300030007000601E603F6070E08B
:1038A00060E0C0C0C0C0C0C0C1C0E3C07F803D8078
:1038B0000000000000000000000000000000000008
:1038C000000000000F803FC070E06060FFE0FFE09C
:1038D000C000C0C0E1807F803E000000000000000A
:1038E00000000000000F1E1830FCFC3030606060EB
:1038F0006060C0C000000000000000000000000088
:103900000000000F603FE070E060E0C0C0C0C0C0D9
:10391000C0C1C0E3807F803D800180C300FF007C88
:103920000000000000180018003800300033C03FCD
:10393000E038607060706060C060C060C0E0C0C1AE
:1039400080C1800000000000000000000000181886
:1039500000003030307060606060E0C0C000000087
:10396000000000030300000606060E0C0C0C0C0CF5
:1039700018181838F0E00000001800180010003087
:103980000030C0318037002E007C007E007600635E
:10399000006300C180C18000000000000000000042
:1039A000000018181830303030306060606060C03F
:1039B000C000000000000000000000000000000047
:1039C000379E3FFF38E370C36186618661866186FA
:1039D000E186C30CC30C00000000000000000000E2
:1039E0000000000000000000000033C03FE038602D
:1039F000706070C060C060C060C0E0C0C180C18045
:103A000000000000000000000000000000000000B6
:103A1000000000000F803FC070E06060C060C060C8
:103A2000C060C0C0E1C07F803E0000000000000018
:103A300000000000000000000000000000001BC0AB
:103A40001FE03C703830303030303030706070E023
:103A50006FC067006000E000C000C0000000000010
:103A600000000000000000001E603F6071E060C0C8
:103A7000C0C0C0C0C1C0C1C0E3807F803D800180A4
:103A800001800300030000000000000000373F3801
:103A90007060606060C0C0C00000000000000000F6
:103AA000000000000000000F003FC030C038001CC4
:103AB000000F000380C180E1807F003E0000000015
:103AC000000000000000000010306060F8F8606046
:103AD00060C0C0C0C0F0E0000000000000000000B6
:103AE00000000000000030603060306060E060C0C6
:103AF00060C060C061C0E3C07F80798000000000CA
:103B000000000000000000000000000000000000B5
:103B1000C0C0C180C1806300660066006C006C009C
:103B200078003800300000000000000000000000B5
:103B300000000000000000000000C30CC30CC70818
:103B4000679865986D906CB068A028A038E030C088
:103B50000000000000000000000000000000000065
:103B600000000000306018C019800F000E00060031
:103B70000F001B0031806180C0C000000000000009
:103B800000000000000000000000000000003030D5
:103B90003060306018C0198019801B001B001E00A7
:103BA0001C000C0018001800F000E00000000000ED
:103BB00000000000000000003FC03FC00180030083
:103BC00006000C00180030006000FF00FF0000003D
:103BD000000000000000000000070F0C0C0C18187B
:103BE00030E0E03030303070606070700000C0C095
:103BF000C0C0C0C0C0C0C0C0C0C0C0C0C0C0C0C0C5
:103C0000C000000707030303060606060307060CA9
:103C10001C181830F0E00000000000000000000058
:103C200000000000007840FFC08780000000000016
:103C30000000000000000000000000000000000084
:103C4000000000000500000000000000050000006A
:103C5000150000000B0000002A0000000B0000000F
:103C600054000000100000007E0000000C00000066
:103C7000A800000002000000D200000006000000C2
:103C8000E700000006000000FC0000000800000043
:103C9000110100000A0000002601000003000000DE
:103CA0005001000006000000650100000200000055
:103CB0007A0100000A0000008F0100000B000000E4
:103CC000B901000007000000E30100000B00000044
:103CD000F80100000B000000220200000B000000B1
:103CE0004C0200000B000000760200000B000000F8
:103CF000A00200000A000000CA0200000B00000041
:103D0000F40200000A0000001E030000040000008E
:103D100048030000050000005D03000009000000EA
:103D200072030000090000009C030000090000006D
:103D3000C603000009000000F003000013000000AB
:103D40001A0400000D000000590400000C000000DF
:103D5000830400000D000000AD0400000E00000010
:103D6000D70400000D000000010500000D00000058
:103D70002B0500000E000000550500000F0000009C
:103D80007F05000005000000A90500000A000000F2
:103D9000BE0500000E000000E80500000A0000005B
:103DA00012060000110000003C0600000F00000099
:103DB0007B0600000E000000A50600000E000000BB
:103DC000CF0600000E000000F90600000E00000003
:103DD000230700000D0000004D0700000C0000004C
:103DE000770700000E000000A10700000C00000093
:103DF000CB07000015000000F507000010000000D0
:103E0000340800000C0000005E0800000C000000F8
:103E10008808000008000000B2080000040000004C
:103E2000C708000008000000DC0800000A000000CD
:103E3000F10800000D0000001B0900000400000054
:103E4000450900000A0000005A0900000B000000AC
:103E5000840900000A000000AE0900000C00000008
:103E6000D80900000B000000020A00000800000052
:103E70002C0A00000B000000410A00000B000000AB
:103E80006B0A000005000000950A00000800000011
:103E9000AA0A00000A000000BF0A00000500000096
:103EA000E90A000010000000FE0A00000B000000FC
:103EB000280B00000B000000520B00000C0000005B
:103EC0007C0B00000B000000A60B000008000000A7
:103ED000D00B00000A000000E50B00000500000008
:103EE0000F0C00000B000000240C00000A00000072
:103EF0004E0C00000E000000780C00000B000000CB
:103F0000A20C00000C000000CC0C00000A00000015
:103F1000F60C000008000000200D00000200000068
:103F2000350D0000080000004A0D00000A000000E6
:103F30005F0D000015000000217E0000020000005F
:103F4000443C0008B82E000800C0C0C0C0C0C0C0BB
:103F5000C0C0C0C00000C0C0000000000000CCCC49
:103F6000CCCCCC00000000000000000000000000ED
:103F7000000000000C600C600CE018C0FFF0FFF0C7
:103F800018C031803180FFF0FFF031807300630092
:103F900063000000000000000000000008003E0078
:103FA0007F00EB80C980C800E8007C001F000B8008
:103FB00009800980C980EB807F003E00080008006E
:103FC000000000000000000000380C006C1800C663
:103FD0001800C63000C63000C660006CC00038CE85
:103FE00000019B0001B180033180033180063180E4
:103FF0000C1B000C0E000000000000000000000080
:10400000000000000000000F001F8030C030C031F1
:10401000801B001E003E006730C3B0C1E0C0C0E19D
:10402000E07FB03E10000000000000000000000033
:10403000C0C0C0C0C00000000000000000000000C0
:104040000000000000081030206060C0C0C0C0C088
:10405000C0C0606020301008000080406020303018
:1040600018181818181818303020604080000018F0
:1040700018FF183C6600000000000000000000006F
:1040800000000000000000000000000C000C000C0C
:10409000000C00FFC0FFC00C000C000C000C000066
:1040A0000000000000000000000000000000000010
:1040B0000000000000000000000000C0C040408080
:1040C0000000000000000000000000FCFC000000F8
:1040D00000000000000000000000000000000000E0
:1040E0000000000000C0C00000000000000C0C1820
:1040F00018181830303060606060C0C000000000E8
:104100000000003E007F806180C0C0C0C0C0C0C051
:10411000C0C0C0C0C0C0C0C0C0C0C061807F801F60
:104120000000000000000000000000000C0C3C7CBF
:10413000CC0C0C0C0C0C0C0C0C0C0C00000000003B
:1041400000003F007F80E1C0C0C000C000C001800F
:10415000018003000E001C0030006000FFC0FFC0A3
:104160000000000000000000000000003E007F0092
:10417000E380C180018003000E000F8001C000C0F9
:1041800000C0C0C0E1807F803E0000000000000051
:104190000000000000000100030007000F001B00EA
:1041A0001B0033006300C300FFC0FFC00300030017
:1041B00003000300000000000000000000000000F9
:1041C0003F803F806000600060006F00FF80C1C0E2
:1041D00000C000C000C0C0C0E1807F803E00000081
:1041E000000000000000000000001F003F8061C0D0
:1041F00060C0C000CF00FF80E1C0C0C0C0C0C0C070
:10420000C0C061803F801E00000000000000000070
:1042100000000000FFC0FFC0018003000300060093
:1042200006000C000C0018001800180030003000C8
:1042300030000000000000000000000000001E0030
:104240003F0061806180618061803F003F0061804C
:10425000C0C0C0C0C0C0E1C07F803F0000000000FF
:1042600000000000000000001E007F006180C0C050
:10427000C0C0C0C0C0C061C07FC03CC000C0C18061
:10428000E1807F003E000000000000000000000010
:104290000000000000C0C000000000000000C0C01E
:1042A00000000000000000000000C0C0000000008E
:1042B000000000C0C040408000000000000000007E
:1042C000004001C007801E007000C00070001E008A
:1042D000078001C000400000000000000000000056
:1042E0000000000000000000000000000000FFC00F
:1042F000FFC0000000000000FFC0FFC00000000081
:1043000000000000000000000000000000000000AD
:10431000000000008000E00078001E00038000C064
:1043200003801E007800E000800000000000000014
:10433000000000000000000000003F007F80E1C09E
:10434000C0C000C00180038007000E000C000C00FC
:10435000000000000C000C00000000000000000045
:10436000000000000001FC000FFF001E0780380164
:10437000C030E6C063F6E0671C60C60C60CC0C6021
:10438000CC0C60CC08E0CC18C0CE398067FF00733D
:10439000DE603800C01E03800FFF0003FC00000039
:1043A000000000070007000D800D800D8018C01868
:1043B000C018C03FE03FE0603060306030C018C0DF
:1043C00018000000000000000000000000FF00FFD7
:1043D00080C1C0C0C0C0C0C1C0FF80FF80C0C0C01D
:1043E00060C060C060C0E0FFC0FF8000000000004F
:1043F000000000000000000FC03FE038706038E0AF
:1044000018C000C000C000C000C000E018603078D4
:10441000703FE00FC000000000000000000000003E
:1044200000FF00FFC0C0E0C060C030C030C030C07E
:1044300030C030C030C030C060C0E0FFC0FF0000FE
:104440000000000000000000000000FFE0FFE0C0EE
:1044500000C000C000C000FFC0FFC0C000C000C05E
:1044600000C000C000FFE0FFE0000000000000000E
:104470000000000000FFC0FFC0C000C000C000C0BE
:1044800000FF80FF80C000C000C000C000C000C0AE
:1044900000C0000000000000000000000000000F4D
:1044A000E01FF03838601C6008C000C000C1FCC1CB
:1044B000FCC00C600C600C383C1FF807E0000000EA
:1044C000000000000000000000C030C030C030C05C
:1044D00030C030C030FFF0FFF0C030C030C030C05E
:1044E00030C030C030C030000000000000000000CC
:1044F0000000C0C0C0C0C0C0C0C0C0C0C0C0C0C03C
:10450000C0000000000000030303030303030303D0
:1045100003C3C3E77E3C00000000000000C0E0C110
:10452000C0C380C700CE00DC00DC00FC00EE00C78A
:1045300000C380C180C1C0C0E0C0700000000000A6
:1045400000000000000000C000C000C000C000C0AB
:1045500000C000C000C000C000C000C000C000C05B
:1045600000FF80FF8000000000000000000000004D
:1045700000E00EF01EF01ED016D836D836C826CC75
:1045800066CC66C446C6C6C6C6C286C386C3860097
:104590000000000000000000000000C030E030F02B
:1045A00030F030D830CC30CC30C630C330C330C11E
:1045B000B0C0F0C0F0C070C03000000000000000CB
:1045C00000000000000FC01FE038706018E01CC041
:1045D0000CC00CC00CC00CC00CE01C601838701F64
:1045E000E00FC0000000000000000000000000FF1D
:1045F00080FFC0C0E0C060C060C060C0E0FFC0FF1E
:1046000080C000C000C000C000C000C000000000AA
:104610000000000000000000000FC01FF0387860AC
:1046200018E01CC00CC00CC00CC00CC00CE0186121
:10463000D838701FF80FDC000400000000000000F4
:10464000000000FF80FFC0C0E0C060C060C0E0FFAD
:10465000C0FF80C300C380C180C1C0C0E0C060C0D3
:10466000700000000000000000000000000F803F0C
:10467000E070706030600070003F000FC000E0002C
:1046800030C030E03070703FE01F8000000000005C
:1046900000000000000000FFF0FFF006000600062A
:1046A00000060006000600060006000600060006DA
:1046B00000060006000000000000000000000000EE
:1046C00000C030C030C030C030C030C030C030C09A
:1046D00030C030C030C030E07070E03FC01F80009C
:1046E0000000000000000000000000C018E038607A
:1046F00030603070703060306038E018C018C01D15
:10470000C00D800D800F8007000000000000000039
:10471000000000000000C07018C0701860D8306041
:10472000D83060D83070C870318C60318C60318C7A
:10473000601B06C01B06C01B06C01B06C00E038004
:104740000E038000000000000000000000000000D8
:10475000000000007038387018600CC00CC0078072
:104760000300078007800DC01CE0186030307038EF
:10477000E01C000000000000000000000000E01C41
:104780006018303038701CE00CC0078007800300D0
:104790000300030003000300030003000000000007
:1047A00000000000000000007FF07FF0006000C00B
:1047B00001800180030006000C0018001800300082
:1047C0006000FFF0FFF000000000000000000000AB
:1047D00000F0F0C0C0C0C0C0C0C0C0C0C0C0C0C039
:1047E000C0C0F0F00000C0C06060606030303018C1
:1047F0001818180C0C000000000000F0F0303030E9
:10480000303030303030303030303030F0F0000088
:10481000183C3C3C666666C30000000000000000D7
:104820000000000000000000000000000000000088
:104830000000000000000000000000000000000078
:104840000000000000000000FFF0FFF0000000C0CA
:1048500060200000000000000000000000000000D8
:10486000000000000000000000000000003F00FF0A
:1048700080C18001800F807F80F180C180C380FF74
:10488000807CC0000000000000000000000000C0AC
:1048900000C000C000C000DE00FF00E300C180C116
:1048A00080C180C180C180E300FF00DE0000000005
:1048B00000000000000000000000000000000000F8
:1048C000001E007F006380C180C000C000C000C126
:1048D0008063807F003E00000000000000000000B8
:1048E00000000001800180018001803D807F8063A5
:1048F00080C180C180C180C180C18063807F803DD4
:104900008000000000000000000000000000000027
:1049100000000000001E007F806180C0C0FFC0FF5B
:10492000C0C000C00061C07F801F00000000000008
:104930000000000000001E3E3030FCFC3030303003
:104940003030303030000000000000000000000077
:10495000000000003D807F806380C180C180C180F5
:10496000C180C18063807F803D800180C380FF0063
:104970003E0000000000C000C000C000C000DE001B
:10498000FF00E380C180C180C180C180C180C1803F
:10499000C180C1800000000000000000000000C0D5
:1049A000C00000C0C0C0C0C0C0C0C0C0C0C0000007
:1049B0000000000030300000303030303030303017
:1049C0003030303030F0E0000000C000C000C000E7
:1049D000C000C380C700CE00DC00F800FC00CC00A3
:1049E000C600C700C300C380000000000000000034
:1049F000000000C0C0C0C0C0C0C0C0C0C0C0C0C0F7
:104A0000C0C0000000000000000000000000000026
:104A100000DE78FEFCE38CC30CC30CC30CC30CC3D8
:104A20000CC30CC30CC30C0000000000000000000D
:104A30000000000000000000000000DE00FF00E3B6
:104A400080C180C180C180C180C180C180C180C15E
:104A500080000000000000000000000000000000D6
:104A600000000000001E007F806180C0C0C0C0C088
:104A7000C0C0C0C0C061807F801E00000000000078
:104A8000000000000000000000000000000000DE48
:104A900000FF00E300C180C180C180C180C180E30C
:104AA00000FF00DE00C000C000C000C00000000029
:104AB0000000000000000000003D807F806380C196
:104AC00080C180C180C180C18063807F803D8001C2
:104AD0008001800180018000000000000000DCFCFB
:104AE000E0C0C0C0C0C0C0C0C000000000000000E6
:104AF00000000000000000003E007F00C180C000F8
:104B0000F8007F0007800180C1807F003E00000028
:104B100000000000000000000020606060F8F86005
:104B20006060606060607838000000000000000095
:104B300000000000000000C180C180C180C180C1B0
:104B400080C180C180C180E3807F803D8000000003
:104B50000000000000000000000000000000000055
:104B600000C060C06060C060C0318031801B001B2D
:104B7000000E000E00040000000000000000000015
:104B80000000000000000000000000C106C38643D2
:104B900084628C66CC36D836D814501C701C700CCD
:104BA00060000000000000000000000000000000A5
:104BB0000000000000E1C06180330033001E000CE3
:104BC000001E00330033006180E1C00000000000DF
:104BD000000000000000000000000000000000C114
:104BE00080C180630063007300330036001E001E26
:104BF000000C000C000C001800F800F00000000091
:104C00000000000000000000007F807F800380071C
:104C1000000E001C0038007000E000FF80FF8000E4
:104C2000000000000000000000001C3C303030306C
:104C30003070E0E0603030303030303C1C0000C07C
:104C4000C0C0C0C0C0C0C0C0C0C0C0C0C0C0C0C064
:104C5000C0C0C000E0F03030303030381C1C38307C
:104C60003030303030F0E000000000000000000084
:104C70000000000000007000FC408FC003800000B6
:104C80000000000000000000000000000000000024
:104C9000000000000200000000000000060000000C
:104CA000150000000C0000002A00000009000000B0
:104CB00054000000110000007E0000000C00000005
:104CC000BD00000002000000E70000000500000039
:104CD000FC000000050000001101000008000000B9
:104CE000260100000A0000003B0100000200000055
:104CF00065010000060000007A01000002000000CB
:104D00008F01000006000000A40100000A0000005E
:104D1000B901000006000000E30100000A000000E5
:104D2000F80100000A000000220200000A00000052
:104D30004C0200000A000000760200000A00000099
:104D4000A00200000A000000CA0200000A000000E1
:104D5000F40200000A0000001E0300000200000030
:104D600048030000020000005D0300000A0000008C
:104D7000720300000A0000009C0300000A0000000B
:104D8000C60300000A000000F0030000130000004A
:104D90001A0400000D000000590400000B00000080
:104DA000830400000D000000AD0400000C000000B2
:104DB000D70400000B000000010500000A000000FD
:104DC0002B0500000E000000550500000C0000003F
:104DD0007F05000002000000A90500000800000097
:104DE000BE0500000C000000D30500000900000013
:104DF000FD0500000F000000270600000C00000069
:104E0000510600000E0000007B0600000B000000B1
:104E1000A50600000E000000CF0600000C000000F8
:104E2000F90600000C000000230700000C00000041
:104E30004D0700000C000000770700000D00000087
:104E4000A107000015000000CB0700000E000000C5
:104E50000A0800000E000000340800000C000000EA
:104E60005E08000004000000880800000600000042
:104E70009D08000004000000B208000008000000C7
:104E8000C70800000C000000DC0800000300000060
:104E9000060900000A0000001B09000009000000CC
:104EA00045090000090000006F090000090000002A
:104EB000990900000A000000C30900000700000073
:104EC000ED09000009000000020A000009000000CE
:104ED0002C0A000002000000560A00000400000036
:104EE0006B0A000009000000800A000002000000B8
:104EF000AA0A00000E000000BF0A0000090000001E
:104F0000E90A00000A000000130B0000090000007D
:104F10003D0B000009000000670B000006000000C8
:104F2000910B000009000000A60B00000500000026
:104F3000D00B000009000000E50B00000B00000092
:104F40000F0C00000F000000390C00000A000000E8
:104F5000630C0000090000008D0C00000900000037
:104F6000B70C000006000000E10C00000200000089
:104F7000F60C0000060000000B0D00000A00000007
:104F8000200D000015000000217E0000020000003E
:104F9000944C0008483F00084178656C20697320F4
:104FA00065656E2068756D6F6E67757320666167E5
:104FB0006769740000C0C0C0404000C0C00000006D
:104FC000D8D8D80000000000000000282828FC5095
:104FD000FC505000002070A8E0703828A870200015
:104FE0000042A4A8AA551525420000001C34343BF9
:104FF0005ACCED76000000C0C0C0000000000000E8
:105000000000106040C0C0C0C04060100080602040
:1050100030303030206080002020F8205000000028
:1050200000000000002020F8202000000000000008
:1050300000000000C0C04080000000000000E00050
:1050400000000000000000000000C0C000000020C0
:105050002040404040808000000070D8D8D8D8D888
:10506000D870000000E0606060606060F0000000E8
:1050700070F89810106078F80000007098183018D8
:105080001898700000000818385898FC181800008C
:1050900000787040F0F808D0E0000000186040F0A0
:1050A000D8D8D870000000F8F81010102020200088
:1050B000000070D8D87070D8D87000000070D8D8B0
:1050C000D8781030C0000000000000C0C000C0C090
:1050D000000000000000C0C000C0C0408000000010
:1050E000087080700800000000000000F800F80060
:1050F0000000000000008070087080000000007058
:10510000D8D81020006060000000001E0021004080
:10511000808D809380B280B7805A8021001E00006D
:1051200018181C2C3C4646EF000000FC66667C66A6
:105130006666FC0000003A66C2C0C0C0623C000067
:1051400000FC666363636366FC000000FC646878CF
:10515000686064FC000000FC646878686060F000CF
:1051600000003A66C2C0C0CF663C00000000F78075
:10517000630063007F00630063006300F78000004A
:10518000000000F0606060606060F00000003C18AB
:10519000181818D8D870000000F7646878786C6622
:1051A000F7000000F0606060606266FE00000000D2
:1051B000F3C0738073805D805D805D804980EBC04B
:1051C0000000000000E7725A5A4E4646E200000016
:1051D0003C66C3C3C3C3663C000000FC6666667CD5
:1051E0006060F00000003C66C3C3C3C3663C180F98
:1051F00000FC6666786C6C66F700000068D8C0F04A
:105200007818D8B0000000FCB4303030303078006E
:105210000000F76262626262623C000000F7626254
:10522000343434181800000000EF706620624037F4
:105230004037401980198019800000000000F66492
:10524000383018384CEE000000F762343418181863
:105250003C0000007E4C5818303266FE000000E032
:10526000C0C0C0C0C0C0C0C0E0008080404040405E
:105270002020000000E06060606060606060E0002E
:1052800000205050880000000000000000000000D6
:1052900000000000FC008040000000000000000052
:1052A00000000000709878D87C000000E060607812
:1052B0006C6C6C5800000000000070D0C0C0700022
:1052C000000038181878D8D8D87C000000000000FA
:1052D00070D8F8C078000000386860F0606060F056
:1052E0000000000000007CD870C07CCC7800E0603A
:1052F00060786C6C6CEE000000606000E0606060E4
:10530000F00000003030007030303030B0E000E0AD
:1053100060606E786C6CEE000000E0606060606061
:1053200060F000000000000000000000FB006D8045
:105330006D806D80EDC00000000000000000F86C82
:105340006C6CEE00000000000070D8D8D87000002F
:1053500000000000F86C6C6C7860F00000000068E1
:10536000D8D8D878183C00000000F8686060F000D9
:10537000000000000070D060B0E0000000002020BD
:10538000F060606070000000000000EC6C6C6C3E2F
:10539000000000000000EC686830300000000000F1
:1053A0000000000000ED806D006D0036003600004A
:1053B00000000000000000EC703038DC000000004D
:1053C0000000EC68703020A0C000000000F83070D1
:1053D00060F8000000306060408040606060300035
:1053E0008080808080808080808000C0606020100D
:1053F00020606060C00000000000C8B8000000002D
:105400000200000000000000050000000B0000008A
:10541000060000001600000005000000210000004A
:10542000080000002C000000080000003700000009
:105430000200000042000000040000004D000000D7
:105440000400000058000000050000006300000098
:10545000050000006E00000002000000790000005E
:105460000300000084000000020000008F00000024
:10547000030000009A00000005000000A5000000E5
:1054800004000000B000000005000000BB000000A8
:1054900005000000C600000006000000D10000006A
:1054A00005000000DC00000005000000E70000002F
:1054B00005000000F200000005000000FD000000F3
:1054C00005000000080100000200000013010000B8
:1054D000020000001E01000005000000290100007C
:1054E0000500000034010000050000003F0100003D
:1054F000050000004A0100000900000055010000FD
:10550000080000006B0100000700000076010000A9
:105510000700000081010000080000008C0100006D
:10552000060000009701000006000000A201000034
:1055300008000000AD01000009000000B8010000F3
:1055400004000000CE01000006000000D9010000A8
:1055500008000000E401000007000000EF01000067
:105560000A000000FA01000008000000100200001C
:10557000080000001B0200000700000026020000D7
:105580000800000031020000080000003C0200009A
:105590000500000047020000060000005202000063
:1055A000080000005D020000080000006802000022
:1055B0000C000000730200000700000089020000D8
:1055C0000800000094020000070000009F02000095
:1055D00003000000AA02000003000000B502000062
:1055E00003000000C002000005000000CB02000024
:1055F00006000000D602000002000000E1020000E8
:1056000006000000EC02000006000000F7020000A7
:105610000400000002030000060000000D0300006B
:10562000050000001803000005000000230300002F
:10563000060000002E0300000700000039030000F0
:105640000400000044030000040000004F030000B9
:10565000070000005A03000004000000650300007A
:105660000A0000007003000007000000860300002D
:105670000500000091030000060000009C030000EC
:1056800006000000A703000005000000B2030000B0
:1056900004000000BD03000004000000C803000077
:1056A00007000000D303000006000000DE03000036
:1056B00009000000E903000006000000FF030000ED
:1056C000060000000A0400000500000015040000A8
:1056D0000400000020040000010000002B04000072
:1056E0000400000036040000050000004104000032
:1056F0000B000000217E00000200000000540008A2
:10570000B44F000800E0E0E0E0E0E0E0E0E040402E
:1057100000E0E0E0000000000000E7E7E7E7E70066
:105720000000000000000000000000000000000079
:105730000C600C600C6018C0FFF0FFF018C039C09E
:105740003180FFF0FFF03180738063006300000060
:1057500000000000000000000C003F007F80EDC052
:10576000EDC0EC00FC007E003F800FC00DC00DC0FE
:10577000EDC0EDC07F803F000C000C000000000079
:10578000000000007830FC70CC60CC60CCC0CCC095
:10579000FD807980033C037E0766066606660C661C
:1057A0000C7E183C000000000000000000000F000C
:1057B0001F8039C039C03DC01F801F003F007F38A7
:1057C000E3F8E3F0E1E0F3F87FFC3F1800000000AD
:1057D00000000000000000E0E0E0E0E00000000069
:1057E00000000000000000000000000018303070D1
:1057F00070E0E0E0E0E0E0E0E06070703030180081
:1058000000C06060707038383838383838383070D8
:10581000706060C000001818DBFF1C3C66240000AC
:105820000000000000000000000000000000000078
:105830000E000E000E000E00FFE0FFE0FFE00E0085
:105840000E000E000E00000000000000000000002E
:105850000000000000000000000000000000000048
:1058600000E0E0E02060C000000000000000000058
:105870000000FCFCFC000000000000000000000034
:105880000000000000000000000000E0E0E0000078
:10589000000000000C0C18181838303030606060C0
:1058A00060C0C0000000000000001E007F80738008
:1058B000E1C0E1C0E1C0E1C0E1C0E1C0E1C0E1C0E0
:1058C000E1C073807F801E00000000000000000027
:1058D0000000000E0E1E7EFEEE8E0E0E0E0E0E0E42
:1058E0000E0E000000000000003F007F80F3C0E1CA
:1058F000C001C001C0038007800F001E003C0038BB
:10590000007000FFC0FFC0000000000000000000A9
:105910000000003E007F00E380E380038007801FDB
:10592000001F00038001C001C0E1C0F3807F803E02
:1059300000000000000000000000000000038007DD
:105940008007800F800F801B80338033806380C38B
:1059500080FFE0FFE0038003800380000000000080
:10596000000000000000003F803F80700070007069
:10597000007F00FF80E3C001C001C001C0E1C0F3AF
:10598000807F803E0000000000000000000000005A
:10599000001F007F8073C0E100E000EF00FF80F394
:1059A00080E1C0E1C0E1C0E1C073807F801E0000E3
:1059B0000000000000000000000000FFC0FFC00168
:1059C000C00380070007000E000E001C001C001C16
:1059D00000380038003800380000000000000000E7
:1059E00000000000003F007F80F3C0E1C0E1C07311
:1059F000803F003F007380E1C0E1C0E1C0F3C07FA1
:105A0000803F000000000000000000000000001EB9
:105A1000007F807380E1C0E1C0E1C0E1C073C07F5E
:105A2000C03DC001C061C0F3807F803E0000000027
:105A3000000000000000000000000000E0E0E000C6
:105A400000000000E0E0E0000000000000000000B6
:105A500000E0E0E00000000000E0E0E02060C000C6
:105A600000000000000000004001C00FC03F00F82F
:105A700000E000FC003F800FC001C00040000000BB
:105A80000000000000000000000000000000000016
:105A90000000000000FFC0FFC0FFC000000000FFCA
:105AA000C0FFC0FFC00000000000000000000000B8
:105AB00000000000000000000000008000E000FC8A
:105AC000003F0007C001C00FC07F00FC00E0008065
:105AD00000000000000000000000000000000000C6
