:020000040800F2
:10000000FC34012089010008E5010008E501000831
:10001000E5010008E5010008E50100080000000016
:10002000000000000000000000000000E5010008E2
:10003000E501000800000000E5010008E5010008F6
:10004000E5010008E5010008E5010008E5010008F8
:10005000E5010008E5010008E5010008E5010008E8
:10006000E5010008E5010008E5010008E5010008D8
:10007000E5010008E5010008E5010008E5010008C8
:10008000E5010008E5010008E5010008E5010008B8
:10009000E5010008E5010008E5010008E5010008A8
:1000A000E5010008E5010008E5010008E501000898
:1000B0008D0D0008E5010008E5010008E5010008D4
:1000C000E5010008E5010008E5010008E501000878
:1000D000E5010008E5010008E5010008E501000868
:1000E000E5010008E5010008E5010008E501000858
:1000F000E5010008E5010008E5010008E501000848
:10010000E5010008E5010008E5010008E501000837
:10011000E5010008E5010008E5010008E501000827
:10012000E5010008E5010008E5010008E501000817
:10013000E5010008E5010008E5010008E501000807
:10014000E5010008E5010008E5010008E5010008F7
:10015000490E0008E5010008E5010008E501000876
:10016000E5010008E5010008E5010008E5010008D7
:10017000E5010008E5010008E5010008E5010008C7
:10018000E5010008E501000880B582B000AF104B22
:100190007B60104B3B6007E03B681A1D3A607A6851
:1001A000111D796012681A603B680B4A9342F3D3C1
:1001B0000A480B494FF000028842B8BF40F8042BB0
:1001C000FADB00F013F800BF0837BD4680BD00BF62
:1001D000A0350008000000200000002000000020E2
:1001E000002D012080B400AFFEE700BF80B582B0D3
:1001F00002AF1D4BE0221A7000F068F900F010FC0D
:10020000002000F04DFC0A220A210A2000F06AFCBE
:10021000002000F045FC01230193D0230093062326
:1002200064226121B42000F0A9FE0023019303237E
:100230000093062364229621B42000F09FFE002341
:1002400001930323009328231E22C821C82000F015
:1002500003FF01230193032300931E232822C821B7
:10026000FA2000F0F9FEFEE70000002080B483B021
:1002700000AF78600B46FB70FB78002B06D0094975
:10028000084B1A6B7B6813430B6306E00549054B6B
:100290001A6B7B68DB4313400B6300BF0C37BD4612
:1002A00080BC70470038024080B483B000AF7860F3
:1002B0000B46FB70FB78002B06D00949084B1A6CE3
:1002C0007B6813430B6406E00549054B1A6C7B6899
:1002D000DB4313400B6400BF0C37BD4680BC704746
:1002E0000038024080B483B000AF78600B46FB70EA
:1002F000FB78002B06D00949084B5A6C7B681343E6
:100300004B6406E00549054B5A6C7B68DB431340A0
:100310004B6400BF0C37BD4680BC704700380240BC
:1003200080B487B000AF7860396000237B61002320
:100330003B610023FB6000237B6176E001227B6947
:1003400002FA03F33B613B681A683B691340FB60A8
:10035000FA683B699A4265D17B681A687B695B00E1
:10036000032101FA03F3DB431A407B681A607B68C0
:100370001A683B681B7919467B695B0001FA03F335
:100380001A437B681A603B681B79012B03D03B68DA
:100390001B79022B2ED17B689A687B695B00032155
:1003A00001FA03F3DB431A407B689A607B689A6822
:1003B0003B685B7919467B695B0001FA03F31A43DA
:1003C0007B689A607B685A687B699BB2012101FA5D
:1003D00003F3DB431A407B685A607B685A683B68CA
:1003E0009B7919467B699BB201FA03F39BB21A43CE
:1003F0007B685A607B68DA687B699BB25B0003218B
:1004000001FA03F3DB431A407B68DA607B68DA6841
:100410003B68DB7919467B695B0001FA03F31A43F9
:100420007B68DA607B6901337B617B690F2B85D93F
:1004300000BF1C37BD4680BC704700BF80B485B08C
:1004400000AF78600B467B8013467B700023FB6017
:100450000023BB607A787B8803F007039B0002FAD5
:1004600003F3FB607B88DB089BB218467B88DB08C4
:100470009BB21A467B68083253F822207B8803F02F
:1004800007039B000F2101FA03F3DB4302EA030198
:100490007B6800F1080243F822107B88DB089BB2DE
:1004A0001A467B68083253F82220FB681343BB606E
:1004B0007B88DB089BB21A467B680832B96843F830
:1004C000221000BF1437BD4680BC704780B500AF16
:1004D000124A124B1B6843F0010313600F4B0022BA
:1004E0009A600E4A0D4B1B6823F0847323F480330B
:1004F00013600A4B0A4A5A60084A084B1B6823F4E7
:1005000080231360054B0022DA6000F00DF8054BE4
:100510004FF000629A6000BF80BD00BF003802400B
:100520001030002400ED00E080B483B000AF002361
:100530007B6000233B60354A344B1B6843F48033B7
:100540001360324B1B6803F400333B607B6801335C
:100550007B603B68002B03D17B68B3F5A06FF0D1C3
:100560002A4B1B6803F40033002B02D001233B60AD
:1005700001E000233B603B68012B42D1234A234B1F
:100580001B6C43F080531364214A214B1B6843F4D6
:10059000804313601D4A1D4B9B6893601B4A1B4B95
:1005A0009B6843F400439360184A184B9B6843F4DC
:1005B000A0539360154B174A5A60144A134B1B689B
:1005C00043F08073136000BF104B1B6803F000738F
:1005D000002BF9D0104B40F205621A600B4A0B4B0E
:1005E0009B6823F003039360084A084B9B6843F021
:1005F0000203936000BF054B9B6803F00C03082BBC
:10060000F9D100BF0C37BD4680BC704700380240AE
:100610000070004008544007003C024080B483B0A2
:1006200000AF78607B681B6823F001027B681A606A
:100630007B6800221A607B6800225A607B68002277
:100640009A607B680022DA607B6800221A617B680E
:1006500021225A617B68454A934203D1444B3D2293
:100660009A607EE07B68434A934204D1404B4FF44A
:1006700074629A6075E07B683F4A934204D13C4BB8
:100680004FF474129A606CE07B683C4A934204D148
:10069000374B4FF074629A6063E07B68384A93424C
:1006A00003D1334B374ADA605BE07B68364A9342CA
:1006B00003D12F4B354ADA6053E07B68344A9342CA
:1006C00003D12B4B334ADA604BE07B68324A9342CA
:1006D00004D1274B4FF03D52DA6042E07B682F4A4D
:1006E000934203D12E4B3D229A603AE07B682D4A1B
:1006F000934204D12A4B4FF474629A6031E07B68D4
:10070000294A934204D1264B4FF474129A6028E090
:100710007B68264A934204D1214B4FF074629A6061
:100720001FE07B68224A934203D11D4B154ADA60D1
:1007300017E07B681F4A934203D1194B134ADA60D2
:100740000FE07B681C4A934203D1154B114ADA60D3
:1007500007E07B68194A934203D1114B4FF03D5299
:10076000DA6000BF0C37BD4680BC704710600240A5
:100770000060024028600240406002405860024031
:10078000706002403D00002088600240400F002061
:10079000A060024000003D20B860024010640240AA
:1007A00000640240286402404064024058640240F1
:1007B0007064024088640240A0640240B864024051
:1007C00080B485B000AF786039600023FB607B683F
:1007D0001B68FB60FA68244B1340FB603B681A6897
:1007E0003B68DB681A433B685B691A433B689B695B
:1007F0001A433B68DB691A433B681B6A1A433B6830
:100800005B6A1A433B689B6A1A433B685B6B1A43FB
:100810003B689B6B1343FA681343FB607B68FA6881
:100820001A607B685B69FB60FB6823F00703FB6071
:100830003B68DA6A3B681B6B1343FA681343FB603F
:100840007B68FA685A613B681A697B685A603B6842
:100850005A687B689A603B689A687B68DA6000BF78
:100860001437BD4680BC70473F801CF080B483B015
:1008700000AF78600B46FB70FB78002B06D07B68DE
:100880001B6843F001027B681A6005E07B681B6807
:1008900023F001027B681A6000BF0C37BD4680BCA4
:1008A000704700BF80B485B000AFF860B9601346F0
:1008B000FB71BB6803F08003002B0FD0FB79002B8A
:1008C00006D0FB685B6943F08002FB685A6105E073
:1008D000FB685B6923F08002FB685A61BB68802B70
:1008E00014D0FB79002B08D0FB681A68BB6803F0B2
:1008F0001E031A43FB681A6008E0FB681A68BB68AD
:1009000003F01E03DB431A40FB681A6000BF143774
:10091000BD4680BC704700BF80B487B000AF786030
:1009200039600023FB750023FB600023BB607B68FC
:10093000214A934202D8214B3B6101E0204B3B61AD
:100940003B6823F0F02323F0C313002B0AD03B684D
:10095000DB0A03F01E03FB607B681A68FB68134028
:10096000BB6004E07B685B6903F08003BB603B68AD
:1009700003F00053002B03D03B695B68FB6002E08F
:100980003B691B68FB60FB6823F0F02323F08213B4
:10099000FB60FA683B681340002B05D0BB68002B56
:1009A00002D00123FB7501E00023FB75FB7D184697
:1009B0001C37BD4680BC70470F6402400060024097
:1009C0000064024080B485B000AF786039607B6815
:1009D000104A934202D8104BFB6001E00F4BFB60C2
:1009E0003B6803F00053002B07D03B6823F0F02353
:1009F00023F08213FA68D36006E03B6823F0F0230B
:100A000023F08213FA68936000BF1437BD4680BCA0
:100A1000704700BF0F640240006002400064024063
:100A200080B582B000AF1B4B00221A80194B002208
:100A30005A60184B00229A600023BB8017E0002305
:100A4000FB800DE0BA8813469B0013449B011A44B7
:100A5000FB881344104A0021D154FB880133FB80EA
:100A6000FB88B3F5A07FEDD9BB880133BB80BB8881
:100A7000EF2BE4D900F05CF800F0AEF800F03EF99E
:100A800000F010F9054B1B68024A936000BF08375D
:100A9000BD4680BD04000020100000208864024094
:100AA00080B584B000AF0346FB710023BB8112E028
:100AB0000023FB8108E0FA79B989FB89184600F028
:100AC00011F8FB890133FB81FB89B3F5A07FF2D3D9
:100AD000BB890133BB81BB89EF2BE9D900BF10373C
:100AE000BD4680BD80B483B000AF0346FB800B469B
:100AF000BB801346FB70FB88B3F5A07F01D30023B6
:100B0000FB80BB88EF2B01D90023BB80BA8813463A
:100B10009B0013449B011A44FB8813440349FA7851
:100B2000CA5400BF0C37BD4680BC7047100000207F
:100B300080B582B000AF01211020FFF797FB4FF482
:100B40007F433B6001233B710023BB710123FB7199
:100B500003237B713B4619461D48FFF7E1FB1C4B05
:100B60004FF47F425A8301210220FFF77FFB4FF4AD
:100B700000633B6002233B7103237B710023BB7145
:100B80000123FB713B4619461248FFF7C9FB0122BE
:100B90000B211048FFF752FC01210220FFF766FBF2
:100BA0004FF480533B6001233B710023BB71012351
:100BB000FB7103237B713B4619460648FFF7B0FBE8
:100BC000044B4FF480521A8300BF0837BD4680BDE6
:100BD000001002400004024080B588B000AF01213F
:100BE0000120FFF77FFB0B23BB610023BB820023A7
:100BF000BB830023FB8207F114031946284800F049
:100C000055FB01210120FFF74FFB40F66B23BB6131
:100C10000023BB820023BB830023FB8207F1140364
:100C200019464FF0804000F041FB60233B800123D8
:100C30007B804FF4D273BB600223BB813B461946D5
:100C40004FF0804000F0DCFB08214FF0804000F0C6
:100C5000C3FC60233B8001237B804FF4A073BB6007
:100C60000223BB813B4619464FF0804000F04EFC0A
:100C700008214FF0804000F0CBFC0121084800F033
:100C80007FFB01214FF0804000F07AFB01214FF003
:100C9000804000F095FB00BF2037BD4680BD00BFFF
:100CA0000000014080B582B000AF0122102112483F
:100CB000FFF7F8FD44233B7100237B710023BB71D8
:100CC0000123FB713B1D184600F0E4F801220821C6
:100CD0004FF0804000F0BAFC1C233B7100237B7175
:100CE0000023BB710123FB713B1D184600F0D2F8B5
:100CF00000BF0837BD4680BD8864024080B590B013
:100D000000AF01214FF48000FFF7B0FA00211B482B
:100D1000FFF7ACFD1948FFF781FC4FF040637B60A3
:100D2000174BBB60174BFB6040233B6140F2411304
:100D30007B610023BB614FF48063FB6100233B6256
:100D400000237B620023BB624FF44033FB6200232D
:100D50003B6301237B630023BB630023FB633B1DD9
:100D600019460648FFF72CFD01224FF48071064812
:100D700000F0A0FC00BF4037BD4680BD8864024043
:100D800015100240100000200000014080B500AFA7
:100D900008214FF0804000F07DFC264B1B8801337A
:100DA0009AB2244B1A80234B1B88B3F5037F05D9D5
:100DB000204B00221A80204A1E4B5A601D4B1B8874
:100DC000012B04D81D4B4FF480525A8303E01B4B78
:100DD0004FF480521A83174B1B88232B27D9154BAE
:100DE0001B8840F20222934221D8154A114B9B687E
:100DF0001360134A0F4B5B68D360124A114B1B8878
:100E00009BB243F001039BB213800D4A0C4B1B684D
:100E100043F001031360074B1B8803F00103002B11
:100E200005D0044B5B6803F24113024A536000BFD4
:100E300080BD00BF0400002010000020000402401C
:100E4000886402400000014080B500AF0D490E48A3
:100E5000FFF762FD0346002B12D00A490A48FFF74C
:100E6000B1FD0A4A094B1B889BB223F001039BB2D8
:100E70001380054B00221A60054B4FF47F425A83C2
:100E800000BF80BD0088002088640240000001404F
:100E90000010024080B485B000AF78600023FB737F
:100EA0000023BB730F237B737B68DB78002B38D068
:100EB000264BDB68DB4303F4E0631B0AFB73FB7B1D
:100EC000C3F10403BB737A7BFB7B42FA03F37B73AE
:100ED0007B685B781A46BB7B02FA03F3FB737B6883
:100EE0009A787B7B1340DAB2FB7B1343FB73FB7B6B
:100EF0001B01FB73164A7B681B781344FA7B83F84B
:100F00000023134A7B681B785B09DBB218467B68B9
:100F10001B7803F01F03012101FA03F342F820308C
:100F20000FE00B497B681B785B09DBB218467B68D6
:100F30001B7803F01F0301229A4000F1200341F8BF
:100F4000232000BF1437BD4680BC704700ED00E091
:100F500000E100E080B584B000AFF860B9601346EE
:100F6000FB71FB689BB2BA6891B2FA791846FFF739
:100F7000B9FD00BF1037BD4680BD00BF80B586B04B
:100F800000AFF860B9607A603B607B6A002B1FD0CD
:100F900000237B6117E000233B610DE0FA687B6969
:100FA000D018BA683B69134497F820201946FFF718
:100FB000D1FF3B6901333B613A693B689A42EDDB03
:100FC0007B6901337B617A697B689A42E3DB3DE0B0
:100FD00000237B6116E0FA687B69134497F82020B0
:100FE000B9681846FFF7B6FFFA687B69D018BA6887
:100FF0003B68134497F820201946FFF7ABFF7B6945
:1010000001337B617B685A1C7B699A42E3DC0023D5
:101010003B6116E0BA683B69134497F820201946F3
:10102000F868FFF797FFFA687B68D018BA683B69E1
:10103000134497F820201946FFF78CFF3B690133D2
:101040003B613B685A1C3B699A42E3DC00BF18379E
:10105000BD4680BD000000002DE9B0438CB002AF5A
:10106000F860B9607A603B604FF07E537B624FF06E
:101070007E533B627B6C002B14D07B68002B11DD10
:101080003B68002B0EDD7B68591E3B68581E844B65
:101090001B7801220192009303460A46B968F8685A
:1010A000FFF7DAFF3A687B689A423ADD386801F068
:1010B00013FE4FF000027B4B01F074FE03460C461A
:1010C00025461C46786801F007FE02460B4620467E
:1010D000294601F067FE03460C4625461C46386843
:1010E00001F0FAFD02460B462046294601F084FF36
:1010F00003460C461846214602F016F903467B6269
:10110000386801F0E9FD4FF00002664B01F04AFE3D
:1011100003460C461846214602F006F903463B6298
:1011200039E0786801F0D8FD4FF000025D4B01F026
:1011300039FE03460C4625461C46386801F0CCFDB6
:1011400002460B462046294601F02CFE03460C467B
:1011500025461C46786801F0BFFD02460B46204636
:10116000294601F049FF03460C461846214602F085
:10117000DBF803463B62786801F0AEFD4FF00002F9
:10118000484B01F00FFE03460C461846214602F07C
:10119000CBF803467B620023FB6173E0F86801F043
:1011A0009BFD04460D46786A01F0A8FD80468946FD
:1011B000F86901F091FD38A3D3E9002301F0F2FDB5
:1011C00002460B46104619464FF00002364B01F01E
:1011D00013FF02460B461046194600F08FFA0246EE
:1011E0000B464046494601F0DDFD02460B462046CF
:1011F000294601F025FC03460C461846214602F01C
:101200006BF80346BB61B86801F066FD04460D4605
:10121000386A01F073FD80468946F86901F05CFD8B
:101220001DA3D3E9002301F0BDFD02460B46104685
:1012300019464FF000021C4B01F0DEFE02460B4641
:101240001046194600F0A4FA02460B4640464946AD
:1012500001F0A8FD02460B462046294601F0F0FBAE
:1012600003460C461846214602F036F803467B61D9
:1012700097F840301A467969B869FFF76BFEFB6949
:101280000133FB61FB69B3F5B47F87DB00BF28370F
:10129000BD46BDE8B08300BF6E861BF0F921094052
:1012A000000000200000E03F0080664080B485B070
:1012B00000AF786039600023FB817B681B88FB816D
:1012C0007B68284A934213D07B68274A93420FD009
:1012D0007B68B3F1804F0BD07B68244A934207D0E0
:1012E0007B68234A934203D07B68224A934208D109
:1012F000FB8923F07003FB813B685A88FB89134309
:10130000FB817B681C4A93420CD07B681B4A93424A
:1013100008D0FB8923F44073FB813B681A89FB8961
:101320001343FB817B68FA891A803B685A687B68A3
:10133000DA623B681A887B681A857B68094A93429F
:1013400003D07B68084A934204D13B689B7A9AB2E7
:101350007B681A867B6801229A8200BF1437BD46DB
:1013600080BC7047000001400004014000040040C0
:1013700000080040000C0040001000400014004035
:1013800080B483B000AF78600B46FB70FB78002B15
:1013900008D07B681B889BB243F080039AB27B68BD
:1013A0001A8007E07B681B889BB223F080039AB207
:1013B0007B681A8000BF0C37BD4680BC704700BFF9
:1013C00080B483B000AF78600B46FB70FB78002BD5
:1013D00008D07B681B889BB243F001039AB27B68FC
:1013E0001A8007E07B681B889BB223F001039AB246
:1013F0007B681A8000BF0C37BD4680BC704700BFB9
:1014000080B485B000AF7860396000237B81002311
:10141000FB810023BB817B681B8C9BB223F4807310
:101420009AB27B681A847B681B8CFB817B689B88E3
:10143000BB817B689B8B7B817B8923F070037B81E5
:101440007B8923F003037B813B681A887B891343E4
:101450007B81FB8923F40073FB813B689B891B0222
:101460009AB2FB891343FB813B685B881B029AB2EB
:10147000FB891343FB817B68224A934203D07B683C
:10148000214A93422BD1FB8923F40063FB813B6803
:10149000DB891B029AB2FB891343FB81FB8923F48E
:1014A0008063FB813B689B881B029AB2FB891343D4
:1014B000FB81BB8923F48053BB81BB8923F4005398
:1014C000BB813B681B8A1B019AB2BB891343BB815A
:1014D0003B685B8A1B019AB2BB891343BB817B6863
:1014E000BA899A807B687A899A833B689A687B6814
:1014F000DA637B68FA891A8400BF1437BD4680BC62
:10150000704700BF000001400004014080B485B076
:1015100000AF786039600023BB8100237B8100230A
:10152000FB817B681B8C9BB223F480539AB27B684F
:101530001A847B681B8C7B817B689B88FB817B6822
:101540009B8BBB81BB8923F4E043BB81BB8923F424
:101550004073BB813B681B881B029AB2BB89134353
:10156000BB817B8923F400537B813B689B891B03F0
:101570009AB27B8913437B813B685B881B039AB2D9
:101580007B8913437B817B68114A934203D07B683C
:10159000104A93420AD1FB8923F48043FB813B68C4
:1015A0001B8A9B019AB2FB891343FB817B68FA89F2
:1015B0009A807B68BA899A833B689A687B681A64C8
:1015C0007B687A891A8400BF1437BD4680BC704797
:1015D000000001400004014080B485B000AF786095
:1015E0000B467B800023FB817B689B8BFB81FB8907
:1015F00023F00803FB81FA897B881343FB817B6816
:10160000FA899A8300BF1437BD4680BC704700BF7B
:1016100080B485B000AF78600B467B800023FB81EF
:101620007B689B8BFB81FB8923F40063FB817B88B8
:101630001B029AB2FB891343FB817B68FA899A8368
:1016400000BF1437BD4680BC704700BF80B483B074
:1016500000AF78600B467B8013467B707B78002B55
:1016600008D07B689B899AB27B8813439AB27B68C7
:101670009A8109E07B689B899AB27B88DB439BB2A5
:1016800013409AB27B689A8100BF0C37BD4680BC7C
:10169000704700BF80B483B000AF78600B467B809A
:1016A0007B88DB439AB27B681A8200BF0C37BD4649
:1016B00080BC704780B483B000AF78600B467B80FD
:1016C00013467B707B78002B08D07B689B899AB28D
:1016D0007B8813439AB27B689A8109E07B689B8977
:1016E0009AB27B88DB439BB213409AB27B689A81A3
:1016F00000BF0C37BD4680BC704700BF30B5224AE2
:1017000021F00043934287B01BDD204A934205DD60
:1017100002460B4601F092F907B030BD02AA00F074
:101720007BF800F00303012B1AD0022B0FD01BB360
:101730000124DDE90423DDE90201009400F0B0FF9B
:10174000EAE70022002300F08BFA07B030BDDDE9A4
:101750000423DDE9020100F083FA01F10041DBE737
:10176000DDE904450093DDE9020122462B4600F045
:1017700097FF01F10041CFE7DDE90423DDE9020134
:1017800000F06EFAC8E700BFFB21E93FFFFFEF7FE3
:1017900030B51F4A21F00043934287B01BDD1D4A3C
:1017A000934205DD02460B4601F048F907B030BD13
:1017B00002AA00F031F800F003000128DDE904235B
:1017C0001AD002280FD0E0B1DDE9020100F048FA9A
:1017D00001F10041EAE7002300930022002300F01A
:1017E0005FFF07B030BD0124DDE90201009400F085
:1017F00057FF01F10041D9E7DDE9020100F030FABD
:10180000D4E70124DDE90201009400F049FFCDE7AF
:10181000FB21E93FFFFFEF7F2DE9F04F944E21F0D0
:101820000047B74291B040F382809246914A974276
:101830000C4626DC002984A3D3E9002340F3A881C9
:1018400001F0FCF88C4B9F4204460D4600F084806A
:101850007FA3D3E9002301F0F1F802460B46CAE961
:1018600000232046294601F0E9F879A3D3E90023B3
:1018700001F0E4F80125CAE90201284611B0BDE8EB
:10188000F08F7E4A974240F384807D4A974259DC2C
:101890003D15A5F21645A7EB055319461F4606460A
:1018A00001F01AFD01F018FA8046894602460B46FF
:1018B00030463946CDE90A8901F0C0F80022714B63
:1018C00001F070FA8946804601F006FD01F004FA45
:1018D00002460B4606460F4640464946CDE90C6790
:1018E00001F0ACF80022674B01F05CFA0022002303
:1018F000CDE90E0101F0BEFC002800F07581002347
:1019000030463946002201F0B5FC002814BF0123FF
:1019100002235D4A0192022100912A4651460AA8FB
:1019200000F0C2FA002CC0F25181054606E0C2E97F
:10193000000100250024C2E902450025284611B017
:10194000BDE8F08F02460B4601F078F80025CAE9A1
:101950000201CAE90001F1E73FA3D3E9002301F046
:101960006DF83FA3D3E900230D46044601F066F865
:1019700002460B46CAE900232946204601F05EF8DC
:1019800037A3D3E9002301F059F80125CAE9020180
:10199000D4E700F03BFF34A3D3E900238046894617
:1019A00001F000FA0022394B01F04AF801F094FCF2
:1019B000054601F091F924A3D3E90023CDE9040100
:1019C00001F0F0F902460B464046494601F036F870
:1019D0001FA3D3E9002380468946DDE9040101F015
:1019E000E1F91F2DCDE9020154DC294B6A1E53F8A1
:1019F00022309F424ED002460B464046494601F0F7
:101A00001DF802460B46CAE9002383460E465A4695
:101A100033464046494601F011F8DDE9022301F062
:101A20000DF8002C02460B46CAE9022386DA5B4613
:101A300006F1004601F100418AE84800CAF80C109E
:101A4000CAF808006D4279E700004054FB21F93FD5
:101A50003163621A61B4D03D0000601A61B4D03DB8
:101A60007370032E8A19A33B83C8C96D305FE43FAE
:101A7000FB21E93F7BD90240FB21F93FFB213941A2
:101A8000FFFFEF7F00007041483400080000E03F96
:101A9000C8330008DDE902234046494600F0CEFF86
:101AA0003A15C1F30A53D31A102B83460E460992F6
:101AB000CAE90001ABDD5EA3D3E90023DDE904013F
:101AC00001F070F906460F4602460B46404649466D
:101AD00000F0B4FFCDE9060102460B4640464946F8
:101AE00000F0ACFF32463B4600F0A8FF52A3D3E91A
:101AF000002306460F46DDE9040101F053F93246A2
:101B00003B4600F09BFFDDE90689CDE90201024674
:101B10000B464046494600F091FF0B46C1F30A5779
:101B20000E460999CF1B0246312F8346CAE900238E
:101B30007ADD43A3D3E90023DDE9040101F032F9A2
:101B400006460F4602460B4640464946CDE9068901
:101B500000F074FF02460B4680468946DDE9060127
:101B600000F06CFF32463B4600F068FF36A3D3E935
:101B7000002306460F46DDE9040101F013F9324661
:101B80003B4600F05BFF02460B46CDE9022334E7FB
:101B900000F056FF304B9F4204460D4626D02CA342
:101BA000D3E9002300F04CFF02460B46CAE90023AC
:101BB0002946204600F042FF25A3D3E9002300F088
:101BC0003FFF4FF0FF35CAE90201B7E6DAF804201B
:101BD000DAF80C3002F1004203F100434542CAF842
:101BE0000420CAF80C30A9E6032392E610A3D3E937
:101BF000002300F025FF10A3D3E900230D4604467F
:101C000000F01EFF02460B46CAE900232946204683
:101C100000F014FF08A3D3E9002300F011FF4FF0F8
:101C2000FF35CAE9020189E6DDE90689EFE600BF72
:101C30000000601A61B4D03D7370032E8A19A33B73
:101C40000000002E8A19A33BC14920259A837B39C5
:101C50003163621A61B4D03DFB21F93F00000000FE
:101C60002DE9F04F21F00046B6F1795F85B00C46C2
:101C700092469B4605466BDA01F02EFB002800F0E9
:101C8000E8802A4623462846214601F08BF874A3B3
:101C9000D3E900238046894601F084F872A3D3E992
:101CA000002300F0CDFE42464B4601F07BF870A3C6
:101CB000D3E9002300F0C2FE42464B4601F072F821
:101CC0006DA3D3E9002300F0BBFE42464B4601F072
:101CD00069F86BA3D3E9002300F0B0FE42464B46FF
:101CE00001F060F868A3D3E9002300F0A9FE4246A2
:101CF0004B4601F057F8CDE900010022644B404605
:101D0000494601F04FF8DDE9002306460F464046FC
:101D1000494601F047F85246804689465B462846C8
:101D2000214601F03FF802460B464046494600F086
:101D300085FE02460B463046394600F07FFE0246DD
:101D40000B460020534900F079FE05B0BDE8F08F46
:101D500002460B4601F026F841A3D3E90023804652
:101D6000894601F01FF840A3D3E9002300F068FE84
:101D700042464B4601F016F83DA3D3E9002300F09C
:101D80005DFE42464B4601F00DF83BA3D3E900232C
:101D900000F056FE42464B4601F004F838A3D3E962
:101DA000002300F04BFE42464B4600F0FBFF36A3FB
:101DB000D3E9002300F044FE4B46424600F0F2FF18
:101DC000354B9E42CDE9000197DD344B9E424FF0EA
:101DD000000238DCA6F5001300202E4916461F46E7
:101DE00000F02CFECDE902010022294B4046494675
:101DF00000F0D8FF32463B4600F020FEDDE900232C
:101E000006460F464046494600F0CCFF5246804603
:101E100089465B462846214600F0C4FF02460B4631
:101E20004046494600F00AFE02460B463046394617
:101E300000F004FE02460B46DDE9020100F0FEFD63
:101E400005B0BDE8F08F164B164FCDE902230026F2
:101E5000CAE71049002005B0BDE8F08FAFF300805D
:101E6000D43888BEE9FAA8BDC4B1B4BD9EEE213E07
:101E7000AD529C804F7E923E9015CB19A001FA3E48
:101E80007751C1166CC1563F4C5555555555A53F18
:101E90000000E03F0000F03F3233D33F0000E93F55
:101EA0000000E73F0000D23F2DE9F04FADF51D7D6A
:101EB000794CA69E794D54F8264009942646D41EA6
:101EC00085FB0475E417C4EBA50424EAE4741D46FD
:101ED0000C93631CA3EB8303013D02EBC303089344
:101EE0002B460D940295651BF41804900A9116D4A4
:101EF0002C44013422AEA79F08E057F8250000F0DB
:101F0000EBFE0135A542E6E9020108D0002DF4DA26
:101F1000013500200021A542E6E90201F6D1099B26
:101F2000002B31DB099A0C9B74A901EBC20BC3EBAC
:101F30004373029A24A9DB0001EBC20901930DF55A
:101F4000E47A029B002BC0F29081049BA3F1080568
:101F5000019B4C4609EB030800260027F5E9022304
:101F600074E8020100F01EFF02460B463046394677
:101F700000F066FD444506460F46EFD1EAE90267E8
:101F8000DA4509F10809DCD1099D05F18043023BDE
:101F90009B001A1D10A90A440B440F920E939CAB90
:101FA00003EBC503002D53E928672BDD9CAB03EB46
:101FB000C504A83C0DF13C0A0DF5E47B0022384B2A
:101FC0003046394600F0EEFE01F086F900F084FE5E
:101FD0000022344B8046894600F0E4FE02460B4660
:101FE0003046394600F02AFD01F076F974E8022304
:101FF0004AF8040F4946404600F022FD5C4506467B
:102000000F46DBD1089C30463946224600F08CFC56
:1020100000224FF07F5306460F4600F0C3FE00F04B
:10202000FBFB0022204B00F0BDFE02460B46304673
:10203000394600F003FD0F46064601F04DF9814692
:1020400000F04AFE02460B463046394600F0F6FCE8
:10205000002C06460F4640F3EF80691E10AAC4F11B
:10206000180352F8212042FA03F000FA03F3D31ABE
:1020700010AAC4F1170842F82130814443FA08F845
:10208000B8F1000F3DDD002D09F1010940F3D682C2
:10209000002214460FA911E050350008ABAAAA2A65
:1020A0000000703E0000704100002040C3F18070CD
:1020B0000BB108600124013295420DDD51F8043F57
:1020C000002CF3D0C3F1FF13013203F57F43954297
:1020D0000B604FF00104F1DC089B002B0DDD012BA0
:1020E00000F0B280022B08D16A1E10AB10A953F881
:1020F0002230C3F3150341F82230B8F1020F00F08B
:102100008280002200233046394601F0B3F80028CF
:1021100000F05E82099B05F1FF3B5B4510DC05F199
:10212000804310AA013B0F9802EB8303002253F86F
:102130000419834242EA0102F9D1002A40F0B28038
:10214000099B10AA013B52F82330002B40F0748207
:102150000E9A012352F8041901330029FAD0E91824
:102160006A1C8A420B9149DC0D990C985118DB00CE
:1021700001F180410593A79B05440139E80003EB79
:10218000810A24ABD20003EB000B74AB1344019320
:10219000A2F10803069007934FF000095AF8040FC4
:1021A00000F09AFD029B002BEBE8020128DB069B66
:1021B00003EB0904079B09EB030824AB1C44984478
:1021C000049B0026A3F108050027F5E9022374E823
:1021D000020100F0E7FD02460B463046394600F0AA
:1021E0002FFC444506460F46EFD1019BE3E802670A
:1021F0000193059B09F108099945CFD10B9DCEE6C6
:1022000000260027F1E732463B460020B04900F0A7
:1022100015FC06460F46002C3FF473AF089AAC49F4
:10222000002000F081FB02460B463046394600F0A4
:1022300005FC06460F4664E710D16B1E10AA52F843
:1022400023304FEAE3581BE76A1E10AB10A953F87E
:102250002230C3F3160341F822304EE700229D4B93
:1022600001F026F858B980464BE700260027EAE936
:102270000267DA4509F108097FF463AE84E6002DB0
:1022800009F10109C8BF4FF002083FF701AF32461C
:102290003B4600208E4900F0D1FB4FF00208064675
:1022A0000F462EE710AB089A53F82B30CDF8149058
:1022B000183ACDF8048008926BB90BF18043013BCA
:1022C00010A901EB830353F804190BF1FF3B183AF3
:1022D0000029F8D00892089A7D49002000F024FBDC
:1022E000BBF1000F04460D46C0F2B8814FEACB03A4
:1022F0000DF5E87810AA02EB8B0608EB03090493AE
:10230000043609F1080756F8040D00F0E5FC2246F2
:102310002B4600F047FD002267E902016E4B204684
:10232000294600F03FFDB84504460D46EBD10DF5BA
:10233000987A4B46CDF808A0DDF824A0CDF818B067
:102340004FF000099B46BAF1000FC0F22A81DFF876
:102350008C815D465CA3D3E900230026002700247E
:1023600003E0A14510DBF8E90223F5E8020100F0E3
:1023700019FD02460B463046394600F061FB013438
:10238000A24506460F46ECDA029B03EBC903ABF10C
:10239000080BC3E9006772AB5B4509F10109D2D1B3
:1023A000A69BDDF818B0DDF808A0032B00F28380AF
:1023B000DFE813F0D500960096000400BBF1000F93
:1023C00040F35681049BCDF808B00AEB0308D8E926
:1023D0000067D34658E9029A32463B464846514682
:1023E00000F02EFB04460D4602460B464846514679
:1023F00000F024FB32463B4600F022FBC8E9000116
:1024000068E90245C34526462F46E3D1DA46DDF8A2
:1024100008B0BBF1010F40F32B81049B5344D3E977
:102420000067984699460DF59C7B59E90234304681
:10243000CDE902341A463946234600F001FB044632
:102440000D4602460B46DDE9020100F0F7FA32467E
:102450003B4600F0F5FAC9E9000169E90245CB45C0
:1024600026462F46E1D1002308F108081D4650AC4E
:102470001846294678E9022300F0E2FA444503466B
:102480000D46F5D1019A002A00F0DA800A9FDAF8A9
:102490000440DAF80C20DAF80010DAF808003B61A2
:1024A00005F1004504F1004402F100437D617C60C8
:1024B000FB603960B860059B03F007000DF51D7DDA
:1024C000BDE8F08FAFF3008000000040FB21F93F32
:1024D0000000F03F0000E03F0000703E6035000863
:1024E000049C00260834544433463046194674E9A7
:1024F000022300F0A5FA544506460B46F5D1019A91
:1025000030461946002A4FD00A9803F1004432465B
:1025100044600660DAE9000100F090FABBF1000FB8
:1025200002460B460DDD012410461946FAE9022346
:1025300000F086FA0134A34502460B46F4DA01990D
:1025400009B103F1004319460A9B1046C3E9020191
:10255000059B03F007000DF51D7DBDE8F08F049B82
:10256000002208339A441346104619467AE902239A
:1025700000F066FA0BF1FF3BBBF1FF3F02460B4652
:10258000F2D1019909B103F1004319460A9B1046A3
:10259000C3E90001059B03F007000DF51D7DBDE8B3
:1025A000F08F00260027EFE60A9B3246C3E90001C0
:1025B0000B46DAE9000100F041FABBF1000F0246D8
:1025C0000B46B0DC19460A9B1046C3E90201BFE77F
:1025D000089BCDF814905A4230463946CDF8048015
:1025E00000F0A2F900222C4B06460F4600F060FED8
:1025F000002840D00022294B3046394600F0D2FB5B
:1026000000F06AFE044600F067FB0022224B00F057
:10261000C9FB0B4602463946304600F00FFA00F07F
:102620005BFE089B183305F1010B089310AB43F8D0
:10263000250043F82B404EE6012390E500244BE5AE
:1026400018462946DAE90023DAE902450A9FC7E974
:102650000401C7E90023C7E902452CE7A69B032B29
:102660003FF629AFDFE803F0151010020DF5987A58
:1026700000231D4606E73046394600F02DFE10AB1C
:10268000AB4643F8250026E6002633460DF5987A3A
:1026900035E70022134674E7000070410000703EE9
:1026A0002DE9F04F21F00046B6F1795F85B00C4678
:1026B00090469946054604DA00F00EFE002800F028
:1026C00085802A4623462846214600F06BFB0646B5
:1026D0000F4602460B462846214600F063FB3EA308
:1026E000D3E9002382468B463046394600F05AFB38
:1026F0003BA3D3E9002300F0A1F932463B4600F0AA
:1027000051FB39A3D3E9002300F09AF932463B4646
:1027100000F048FB36A3D3E9002300F08FF93246DE
:102720003B4600F03FFB34A3D3E9002300F088F9D7
:102730000E9BCDE900019BB30022334B4046494636
:1027400000F030FBDDE90023CDE902015046594697
:1027500000F028FB02460B46DDE9020100F06EF9AD
:1027600032463B4600F01EFB42464B4600F066F9FF
:1027700023A3D3E9002306460F465046594600F0EE
:1027800011FB02460B463046394600F059F9024625
:102790000B462846214600F051F905B0BDE8F08F00
:1027A00002460B463046394600F0FCFA14A3D3E942
:1027B000002300F043F952465B4600F0F3FA2A4644
:1027C000234600F03DF905B0BDE8F08F28462146CC
:1027D00005B0BDE8F08F00BF7CD5CF5A3AD9E53DB2
:1027E000EB9C2B8AE6E55A3E7DFEB157E31DC73EC2
:1027F000D561C119A0012A3FA6F810111111813F1E
:10280000495555555555C53F0000E03F21F0004161
:10281000704700BF00000000C1F30A522DE9F843E1
:10282000A2F2FF36132E0B460D4604468846074695
:102830001CDC002E3FDB3A4A42FA06F901EA0902A3
:102840000243864617D034A3D3E9002300F0F8F8FA
:102850000022002300F036FD20B1002D40DB28EAE5
:102860000905002738462946BDE8F883332E06DDE2
:10287000B6F5806F2FD020461946BDE8F883A2F246
:1028800013424FF0FF3929FA02F910EA090FF2D08A
:1028900021A3D3E9002300F0D3F80022002300F0A5
:1028A00011FD0028DED0002D20DB454627EA090770
:1028B00038462946D8E718A3D3E9002300F0C0F82A
:1028C0000022002300F0FEFC0028CBD0002D18DBF6
:1028D00000273D46C6E702460B4600F0B1F8CCE7BC
:1028E0004FF4801343FA06F6B044B8E7142E10D024
:1028F0000123C6F1340603FA06F6371928BF9844B7
:10290000D3E725F00042074B224318BF1D4600279E
:10291000A8E705F10108C8E79C7500883CE4377E0C
:10292000FFFF0F000000F0BFF8B5C1F30A560446E0
:102930000D460B46174606BB21F00043034325D046
:102940000022354B00F02EFA344A974204460D46D9
:102950000B462ADBC1F30A56363E3E4440F2FE7275
:10296000964228DC002E12DD23F0FF4323F4E0031F
:1029700043EA065520462946F8BD40F2FF729642CA
:10298000EBD102460B4600F05BF8F8BDF8BD16F13E
:10299000350F1DDA4CF250339F4222462B4625DC80
:1029A00019A1D1E9000100F03DF817A3D3E90023F4
:1029B00000F0F8F9F8BD22462B4615A1D1E9000137
:1029C00000F030F812A3D3E9002300F0EBF9F8BDD2
:1029D00023F0FF4323F4E003363643EA065520464E
:1029E000294600220E4B00F0DDF9F8BD08A1D1E91F
:1029F000000100F017F806A3D3E9002300F0D2F994
:102A0000F8BD00BFAFF3008059F3F8C21F6EA501F7
:102A10009C7500883CE4377E00005043B03CFFFFCB
:102A20000000903C03F0004321F0004242EA030121
:102A3000704700BF81F0004102E000BF83F0004317
:102A400030B54FEA41044FEA430594EA050F08BF49
:102A500090EA020F1FBF54EA000C55EA020C7FEA0D
:102A6000645C7FEA655C00F0E2804FEA5454D4EB8A
:102A70005555B8BF6D420CDD2C4480EA020281EA54
:102A8000030382EA000083EA010180EA020281EA8C
:102A90000303362D88BF30BD11F0004F4FEA0131DE
:102AA0004FF4801C4CEA113102D0404261EB4101ED
:102AB00013F0004F4FEA03334CEA133302D0524273
:102AC00063EB430394EA050F00F0A780A4F101042F
:102AD000D5F1200E0DDB02FA0EFC22FA05F2801869
:102AE00041F1000103FA0EF2801843FA05F359414F
:102AF0000EE0A5F120050EF1200E012A03FA0EFCCE
:102B000028BF4CF0020C43FA05F3C01851EBE371F7
:102B100001F0004507D54FF0000EDCF1000C7EEB14
:102B200000006EEB0101B1F5801F1BD3B1F5001F52
:102B30000CD349085FEA30004FEA3C0C04F1010471
:102B40004FEA445212F5800F80F09A80BCF1004F9A
:102B500008BF5FEA500C50F1000041EB045141EA1C
:102B6000050130BD5FEA4C0C404141EB010111F41D
:102B7000801FA4F10104E9D191F0000F04BF0146C8
:102B80000020B1FA81F308BF2033A3F10B03B3F1A6
:102B900020020CDA0C3208DD02F1140CC2F10C0236
:102BA00001FA0CF021FA02F10CE002F11402D8BF94
:102BB000C2F1200C01FA02F120FA0CFCDCBF41EA60
:102BC0000C019040E41AA2BF01EB0451294330BD2F
:102BD0006FEA04041F3C1CDA0C340EDC04F114040C
:102BE000C4F1200220FA04F001FA02F340EA0300E3
:102BF00021FA04F345EA030130BDC4F10C04C4F129
:102C0000200220FA02F001FA04F340EA0300294608
:102C100030BD21FA04F0294630BD94F0000F83F452
:102C2000801306BF81F480110134013D4EE77FEA35
:102C3000645C18BF7FEA655C29D094EA050F08BF81
:102C400090EA020F05D054EA000C04BF1946104662
:102C500030BD91EA030F1EBF0021002030BD5FEAA6
:102C6000545C05D14000494128BF41F0004130BDCE
:102C700014F580043CBF01F5801130BD01F0004522
:102C800045F0FE4141F470014FF0000030BD7FEA95
:102C9000645C1ABF194610467FEA655C1CBF0B4690
:102CA000024650EA013406BF52EA033591EA030FA7
:102CB00041F4002130BD00BF90F0000F04BF00219F
:102CC000704730B54FF4806404F132044FF00005D2
:102CD0004FF0000150E700BF90F0000F04BF00214B
:102CE000704730B54FF4806404F1320410F00045B1
:102CF00048BF40424FF000013EE700BF42004FEAAC
:102D0000E2014FEA31014FEA02701FBF12F07F4328
:102D100093F07F4F81F06051704792F0000F14BF25
:102D200093F07F4F704730B54FF4607401F0004569
:102D300021F0004120E700BF50EA010208BF7047C0
:102D400030B54FF000050AE050EA010208BF7047B5
:102D500030B511F0004502D5404261EB41014FF41E
:102D6000806404F132045FEA915C3FF4DCAE4FF022
:102D700003025FEADC0C18BF03325FEADC0C18BF09
:102D8000033202EBDC02C2F1200300FA03FC20FA5A
:102D900002F001FA03FE40EA0E0021FA02F11444A7
:102DA000C1E600BF70B54FF0FF0C4CF4E06C1CEABC
:102DB00011541DBF1CEA135594EA0C0F95EA0C0F31
:102DC00000F0DEF82C4481EA030621EA4C5123EAA4
:102DD0004C5350EA013518BF52EA033541F48011D3
:102DE00043F4801338D0A0FB02CE4FF00005E1FB86
:102DF00002E506F00042E0FB03E54FF00006E1FBD0
:102E000003569CF0000F18BF4EF0010EA4F1FF0412
:102E1000B6F5007F64F5407404D25FEA4E0E6D4152
:102E200046EB060642EAC62141EA55514FEAC52063
:102E300040EA5E504FEACE2EB4F1FD0C88BFBCF5DF
:102E4000E06F1ED8BEF1004F08BF5FEA500E50F190
:102E5000000041EB045170BD06F0004646EA010156
:102E600040EA020081EA0301B4EB5C04C2BFD4EB88
:102E70000C0541EA045170BD41F480114FF0000E81
:102E8000013C00F3AB8014F1360FDEBF002001F0EF
:102E9000004170BDC4F10004203C35DA0C341BDC69
:102EA00004F11404C4F1200500FA05F320FA04F03B
:102EB00001FA05F240EA020001F0004221F000416F
:102EC00010EBD37021FA04F642EB06015EEA430EE2
:102ED00008BF20EAD37070BDC4F10C04C4F1200512
:102EE00000FA04F320FA05F001FA04F240EA0200C5
:102EF00001F0004110EBD37041F100015EEA430E96
:102F000008BF20EAD37070BDC4F1200500FA05F2B5
:102F10004EEA020E20FA04F301FA05F243EA020334
:102F200021FA04F001F0004121FA04F220EA020043
:102F300000EBD3705EEA430E08BF20EAD37070BD89
:102F400094F0000F0FD101F00046400041EB010169
:102F500011F4801F08BF013CF7D041EA060195F04B
:102F6000000F18BF704703F00046520043EB030305
:102F700013F4801F08BF013DF7D043EA06037047F2
:102F800094EA0C0F0CEA135518BF95EA0C0F0CD0FD
:102F900050EA410618BF52EA4306D1D181EA030143
:102FA00001F000414FF0000070BD50EA410606BF3D
:102FB0001046194652EA430619D094EA0C0F02D182
:102FC00050EA013613D195EA0C0F05D152EA0336C7
:102FD0001CBF104619460AD181EA030101F00041E5
:102FE00041F0FE4141F470014FF0000070BD41F02E
:102FF000FE4141F4780170BD70B54FF0FF0C4CF408
:10300000E06C1CEA11541DBF1CEA135594EA0C0F26
:1030100095EA0C0F00F0A7F8A4EB050481EA030E73
:1030200052EA03354FEA013100F088804FEA03335A
:103030004FF0805545EA131343EA12634FEA022228
:1030400045EA111545EA10654FEA00260EF00041E9
:103050009D4208BF964244F1FD0404F5407402D23B
:103060005B084FEA3202B61A65EB03055B084FEACC
:1030700032024FF480104FF4002CB6EB020E75EBC9
:10308000030E22BFB61A754640EA0C005B084FEAF1
:103090003202B6EB020E75EB030E22BFB61A75466E
:1030A00040EA5C005B084FEA3202B6EB020E75EBB9
:1030B000030E22BFB61A754640EA9C005B084FEA31
:1030C0003202B6EB020E75EB030E22BFB61A75463E
:1030D00040EADC0055EA060E18D04FEA051545EA2D
:1030E00016754FEA06164FEAC30343EA52734FEAD6
:1030F000C2025FEA1C1CC0D111F4801F0BD141EA4F
:1031000000014FF000004FF0004CB6E711F4801FB3
:1031100004BF01430020B4F1FD0C88BFBCF5E06F93
:103120003FF6AFAEB5EB030C04BFB6EB020C5FEAA3
:10313000500C50F1000041EB045170BD0EF0004EF8
:103140004EEA113114EB5C04C2BFD4EB0C0541EA2A
:10315000045170BD41F480114FF0000E013C90E627
:1031600045EA060E8DE60CEA135594EA0C0F08BFEB
:1031700095EA0C0F3FF43BAF94EA0C0F0AD150EAEA
:1031800001347FF434AF95EA0C0F7FF425AF10467D
:1031900019462CE795EA0C0F06D152EA03353FF4A5
:1031A000FDAE1046194622E750EA410618BF52EA22
:1031B00043067FF4C5AE50EA41047FF40DAF52EAF6
:1031C00043057FF4EBAE12E74FF0FF3C06E000BF93
:1031D0004FF0010C02E000BF4FF0010C4DF804CDA0
:1031E0004FEA410C7FEA6C5C4FEA430C18BF7FEA60
:1031F0006C5C1BD001B050EA410C0CBF52EA430C8E
:1032000091EA030F02BF90EA020F0020704710F10D
:10321000000F91EA030F58BF994208BF90422CBF9C
:10322000D8176FEAE37040F0010070474FEA410C95
:103230007FEA6C5C02D150EA013C07D14FEA430CB3
:103240007FEA6C5CD6D152EA033CD3D05DF8040B24
:10325000704700BF8446104662468C461946634656
:1032600000E000BF01B5FFF7B7FF002848BF10F12D
:10327000000F01BD4DF808EDFFF7F4FF0CBF012072
:1032800000205DF808FB00BF4DF808EDFFF7EAFFEE
:1032900034BF012000205DF808FB00BF4DF808EDA9
:1032A000FFF7E0FF94BF012000205DF808FB00BF9E
:1032B0004DF808EDFFF7CEFF94BF012000205DF828
:1032C00008FB00BF4DF808EDFFF7C4FF34BF012035
:1032D00000205DF808FB00BF4FEA410212F5001222
:1032E00015D211D56FF47873B3EB625212D94FEA4D
:1032F000C12343F0004343EA505311F0004F23FA37
:1033000002F018BF404270474FF00000704750EA8B
:10331000013005D111F0004008BF6FF00040704748
:103320004FF00000704700BF4FEA4102B2F1E043A6
:1033300024BFB3F5001CDCF1FE5C0DD901F0004C9C
:103340004FEAC0024CEA5070B2F1004F40EB8300EC
:1033500008BF20F00100704711F0804F21D113F118
:103360003872BCBF01F00040704741F480114FEA51
:103370005252C2F11802C2F1200C10FA0CF320FADA
:1033800002F018BF40F001004FEAC1234FEAD323F7
:1033900003FA0CFC40EA0C0023FA02F34FEA430361
:1033A000CCE77FEA625307D150EA01331EBF4FF0EA
:1033B000FE4040F44000704701F0004040F0FE4005
:1033C00040F40000704700BFFB21F93FFB2109409A
:1033D0007CD91240FB2119407A6A1F407CD92240D7
:1033E000BBFD2540FB2129403A462C407A6A2F40FC
:1033F0005C4731407CD932409C6B3440BBFD35404A
:10340000DB8F3740FB2139401BB43A403A463C4001
:103410005AD83D407A6A3F404C7E40405C4741402C
:103420006C1042407CD942408CA243409C6B44408B
:10343000AC344540BBFD4540CBC64640DB8F4740E2
:10344000EB584840FB21494083F9A200444E6E00EE
:10345000FC291500D1572700DD34F50062DBC000E0
:103460003C999500419043006351FE00BBDEAB00E8
:10347000B761C5003A6E2400D24D42004906E00013
:1034800009EA2E001C92D100EB1DFE0029B11C00A0
:10349000E83EA700F535820044BB2E009CE984007D
:1034A000B4267000417E5F00D69139005383390005
:1034B0009CF439008B5F840028F9BD00F81F3B00A5
:1034C000DEFF97000F980500112FEF000A5A8B00BE
:1034D0006D1F6D00CF7E360009CB2700464FB70029
:1034E0009E663F002DEA5F00BA277500E5EBC70036
:1034F0003D7BF100F739070092528A00FB6BEA002E
:103500001FB15F00085D8D00300356007BFC460054
:10351000F0AB6B0020BCCF0036F49A00E3A91D008D
:103520005E619100081BE60085996500A0145F00AC
:103530008D40680080D8FF0027734D0006063100DB
:10354000CA561500C9A873007BE260006B8CC000EE
:10355000020000000300000004000000060000005C
:1035600000000040FB21F93F000000002D44743EA4
:10357000000000809846F83C0000006051CC783B89
:1035800000000080831BF0390000004020257A38BD
:10359000000000802282E336000000001DF3693540
:0400000508000000EF
:00000001FF
